:100000000C943E050C9485050C9485050C9485058F
:100010000C9485050C9485050C9485050C94850538
:100020000C9485050C9485050C943D2C0C940F2D97
:100030000C94C0230C9485050C9485050C948505BF
:100040000C9485050C9485050C9485050C94850508
:100050000C94FF060C9428240C9485050C948505BB
:100060000C9485050C9485050C9485050C948505E8
:100070000C9485050C9485050C9485050C948505D8
:100080000C9485050C9485050C9485050C948505C8
:100090000C9485050C9485050C9485050C948505B8
:1000A0000C9485050C9485050C9485053C093E0946
:1000B0004909400942094409460948094B094D09C3
:1000C0004F095A09510953095509570959095C093A
:1000D000381A381A6A1A6A1AAA1A0F1C0F1C0F1C2F
:1000E000CA1A0F1C771B771B0F1CE71B841B841B72
:1000F000841B841B841B841B841B841B841B841B08
:10010000841B841B841B841B841B841B931BA11BCB
:10011000A81BAF1BB91B9A1C9A1CAC1CAC1CA31CC3
:10012000AC1CAC1CAC1C9A1C9A1CA81CAC1CAC1CB7
:10013000A81C7C2DA32D952EA32D952EEF2D122ED0
:10014000952E682E772E07634236B79BD8A71A39AB
:10015000685618AEBAAB558C1D3CB7CC5763BD6D15
:10016000EDFD753EF6177231BF000000803F05A817
:100170004CCDB2D44EB93836A9020C50B99186880C
:10018000083CA6AAAA2ABE000000803F29001E0043
:100190001F0020002100220023002400250026004B
:1001A00027002D002E0031002B0014001A0008003B
:1001B000150017001C0018000C00120013002F007F
:1001C00030002A00E00004001600070009000A00C1
:1001D0000B000D000E000F0033003400280000005B
:1001E000E1001D001B0006001900050011001000B1
:1001F000360037003800E500015100000000E20041
:10020000E3000000000000002C00000000000000DF
:10021000E300E6000000350029003A003B003C0006
:100220003D003E003F0040004100420043004400CA
:10023000450049003900AC00AE00AB0001000100F0
:1002400001000100460047004800520001004C0038
:100250000100A900AA00A800AD0001002502380095
:100260004A004B0050004F00010000000100010057
:1002700001000100010001002E022D024D004E0080
:100280005100010001000000000001000100000019
:100290000000000001000000000000000100025208
:1002A00000004C00165C1E001F00200021002200F0
:1002B000230024002500260027002D002E003500F5
:1002C0002B0014001A000800150017001C0018006D
:1002D0000C00120013002F00300031000351040005
:1002E0001600070009000A000B000D000E000F00A9
:1002F0003300340028000000E1001D001B00060050
:100300001900050011001000360037003800E50024
:10031000035100000000E200E300000000000000C4
:100320002C00000000000000E300010000002A0093
:10033000165C3A003B003C003D003E003F004000A0
:100340004100420043004400450035000000AC007D
:10035000AE00AB000000000000004B0052004E0059
:1003600000000000000000000100A800AA00A90091
:10037000000000004A00500051004F000000000043
:10038000000000000000000000000000000000006D
:100390004D0000000000000000000000010000000F
:1003A000000000000000000000000000000000004D
:1003B000000000000000005200004C00444542557F
:1003C000473A20656E61626C65642E0A0000000089
:1003D00000000000000000000101020304050608FF
:1003E0000A0C0F1114181C2024292E33393F464CB7
:1003F000535B626A7179818A929AA2AAB2B9C1C822
:10040000CFD5DCE1E7EBF0F4F7FAFCFDFEFFFEFDF3
:10041000FCFAF7F4F0EBE7E1DCD5CFC8C1B9B2AA3A
:10042000A29A928A8179716A625B534C463F393352
:100430002E2924201C1814110F0C0A080605040389
:10044000020101000000000000000000000A002579
:1004500030313662003A200025303258000A722FBF
:1004600063203031323334353637383941424344F2
:1004700045460A0054494D45523320646973616210
:100480006C65642E0A0054494D45523320656E61F7
:10049000626C65642E0A007267626C69676874201A
:1004A00073657420687376205B4E4F454550524FFC
:1004B0004D5D3A2025752C25752C25750A0072672F
:1004C000626C696768742073657420687376205B5A
:1004D000454550524F4D5D3A2025752C25752C25EC
:1004E000750A007267626C69676874207261696E70
:1004F000626F7720736574206873763A2025752CB7
:1005000025752C25642C25750A007267626C696755
:1005100068742064697361626C65205B4545505264
:100520004F4D5D3A207267626C696768745F636FF4
:100530006E6669672E656E61626C65203D2025756B
:100540000A007267626C6967687420656E61626C2C
:1005500065205B454550524F4D5D3A207267626C95
:10056000696768745F636F6E6669672E656E616246
:100570006C65203D2025750A007267626C696768AA
:100580007420746F67676C65205B454550524F4D12
:100590005D3A207267626C696768745F636F6E664C
:1005A00069672E656E61626C65203D2025750A00C5
:1005B0007267626C69676874206D6F6465205B4E5A
:1005C0004F454550524F4D5D3A2025750A007267E0
:1005D000626C69676874206D6F6465205B45455087
:1005E000524F4D5D3A2025750A007267626C69674B
:1005F00068745F696E6974207267626C6967687499
:100600005F636F6E6669672E6D6F6465203D203095
:100610002E2057726974652064656661756C74205C
:1006200076616C75657320746F20454550524F4D4F
:100630002E0A007267626C696768745F696E69741C
:10064000206565636F6E666967206973206E6F74DD
:1006500020656E61626C65642E0A007267626C6967
:100660006768745F696E6974207374617274210ABB
:10067000007267626C696768745F696E6974206391
:10068000616C6C65642E0A007267626C69676874DD
:100690005F636F6E6669672E7370656564203D20C9
:1006A00025640A007267626C696768745F636F6EC5
:1006B0006669672E76616C203D2025640A007267AA
:1006C000626C696768745F636F6E6669672E7361D9
:1006D00074203D2025640A007267626C6967687443
:1006E0005F636F6E6669672E687565203D202564BF
:1006F0000A007267686C696768745F636F6E666929
:10070000672E6D6F6465203D2025640A0072676264
:100710006C696768745F636F6E6669672E656E618A
:10072000626C65203D2025640A007267626C69670F
:1007300068745F636F6E666967206570726F6D0ABB
:100740000000047F3F1F643214643214783C1E1E84
:10075000140A056801F000B40078005A0000000097
:100760000000010101010101010101020202020276
:100770000202020203030303030303030404040449
:10078000040405050505050606060606070707070E
:10079000080808080909090A0A0A0A0B0B0B0C0CBD
:1007A0000C0D0D0D0E0E0F0F0F1010111111121256
:1007B00013131414151516161717181819191A1AD1
:1007C0001B1C1C1D1D1E1F1F20202122222324252F
:1007D0002526272728292A2B2B2C2D2E2F2F303169
:1007E0003233343536363738393A3B3C3D3E3F407C
:1007F00041424344464748494A4B4C4D4F50515261
:1008000053555657585A5B5C5E5F60626364666717
:10081000696A6C6D6E707173747678797B7C7E809A
:1008200081838486888A8B8D8F91929496989A9BE7
:100830009D9FA1A3A5A7A9ABADAFB1B3B5B7B9BBF8
:10084000BDBFC1C4C6C8CACCCFD1D3D6D8DADCDFCD
:10085000E1E4E6E8EBEDF0F2F5F7FAFCFF0A00253B
:1008600030325820006B6579626F6172645F726527
:10087000706F72743A20000A0025303258006B65A0
:1008800079626F6172645F7365745F6C65643A204E
:1008900000646F6E652E0A00626F6F746D61676928
:1008A00063207363616E3A202E2E2E2000626163F6
:1008B0006B6C6967687420737465703A2025750ADB
:1008C000006261636B6C696768742064697361625C
:1008D0006C650A006261636B6C6967687420656EA1
:1008E00061626C650A006261636B6C6967687420A1
:1008F000746F67676C653A2025750A006261636BE7
:100900006C696768742064656372656173653A2019
:1009100025750A006261636B6C6967687420696E93
:100920006372656173653A2025750A005B735D002B
:100930004B6579626F6172642073746172742E0A00
:10094000005B575D005B535D005B525D005B445D87
:10095000005B435D000403300000000C036B006289
:10096000006400360078000000080359006F00752D
:100970000000000403090409025B00030100A0FA5F
:1009800009040000010301010009211101000122F5
:1009900040000705810308000A0904010001030063
:1009A0000000092111010001223600070582032001
:1009B000000A0904020002030000000921110100DD
:1009C00001222200070583032000010705030320FD
:1009D00000011201100100000008EDFE00000100FE
:1009E000010203010631FF0974A1010975150026F2
:1009F000FF009520750881020976150026FF0095F5
:100A00002075089102C005010980A1018503160126
:100A1000002603001A81002A8300751095018100C9
:100A2000C0050C0901A1018504160100269C021ACB
:100A300001002A9C02751095018100C0050109067C
:100A4000A101050719E029E71500250195087501A1
:100A5000810295017508810105081901290595058F
:100A6000750191029501750391010507190029FF90
:100A7000150026FF00950675088100C011241FBED1
:100A8000CFEFDAE0DEBFCDBF04B603FE27C0809112
:100A9000600290916102A0916202B091630287307E
:100AA000904BA740B04BD1F41092600210926102BB
:100AB000109262021092630214BE84B7877F84BFD3
:100AC0000FB6F894A89580916000886180936000CB
:100AD000109260000FBEE0E0F8E3099511E0A0E09D
:100AE000B1E0ECEDF5E602C005900D92AE33B10732
:100AF000D9F722E0AEE3B1E001C01D92A036B20703
:100B0000E1F70E9456290C94EC320C940000FF93FC
:100B1000EF93E0913E01F0913F01309709F0099584
:100B2000EF91FF910895FC018591803011F0EFDF86
:100B3000FBCF0895FF27E0E230E247FF0CC041956C
:100B400097FF09C0EDE26095709580959095611DC5
:100B5000711D811D911D27FF02C0219530E350E2D8
:100B6000AA27660F771F881F991FAA1FA41710F0C6
:100B7000A41B63955A95A9F7AA3008F0A95FA05D58
:100B8000AF93F395611571058105910541F7ED323C
:100B900011F4EF93F395F21718F43F93F395FBCF0D
:100BA0008F91B5DFFA95E1F70895E991F991859173
:100BB000803021F0853219F0AADFF9CF089520E0C6
:100BC000E89455915532C1F3503311F4689455911E
:100BD0005A3348F4505390F3220F022E220F220F63
:100BE000200D250FF4CF0EF421958991999153365C
:100BF00019F3533729F1533559F1BC018827992747
:100C0000E8945C3621F48991999168945591543611
:100C100039F446EF7EF077FF0DC08FEF9FEF0AC0EB
:100C200055374AE039F0583540E121F0523642E07C
:100C300009F00895FF93EF937DDFEF91FF91B7CF18
:100C4000FF93EF93FC0181918030B9F360DFFBCF1C
:100C5000FF93EF9368DFF1CFDF93CF93CDB7DEB78C
:100C60002596A3DFCF91DF9108950C94BE0C0C94D0
:100C7000BF0C0C94810681FF02C0269A01C0269801
:100C80002E980C948807CF92DF92EF92FF928C37C8
:100C900024E1920728F469E070E00E942D3229C017
:100CA000A0E0B0E08A50974DAF4FBF4F6627782F36
:100CB000892F9A2F25EF38E241E050E00E9455320B
:100CC00069017A01CA01B9010E9411329B01AC018C
:100CD000C701B6010E941132BB27A92F982F872F79
:100CE000009721E0A207B10511F0BC0102C06FEF2F
:100CF0007FEFCB01FF90EF90DF90CF90089581E0E0
:100D0000089581E008951F93CF93DF9300D000D022
:100D10001F92CDB7DEB749835A8320919201898112
:100D20009A81211112C0662349F00E944221182F96
:100D3000682F89819A810E94E72003C00E941621B2
:100D4000182F69817A81812F04C00E944221698114
:100D50007A810F900F900F900F900F90DF91CF91AD
:100D60001F910C94110AFC014081518162817381B1
:100D700084810C9483060C943706843030F48111FE
:100D800005C090918000977F04C083E0909180001F
:100D9000986090938000282F30E0AFEFBFEF0E9463
:100DA0007D3223E030E040E050E00E945532C9013E
:100DB0000E94430690938D0080938C00089580914B
:100DC0006F008170089510924101109240011092BD
:100DD0004201EFE6F0E08081816080830895EFE6D4
:100DE000F0E080818E7F80830E9413270C94BD06E3
:100DF0000E94DF0681110C94EF060C94E3061F920B
:100E00000F920FB60F9211242F933F934F935F933E
:100E10006F937F938F939F93AF93BF93CF93EF93F2
:100E2000FF93209100018091400190914101019632
:100E300044EF249F90011124B9010E942D32909318
:100E4000410180934001B901660F672F661F770B40
:100E500071950E942D326F7780914201823019F492
:100E6000603451F404C0813039F46F3729F4809133
:100E70006F008E7F80936F00E62FF0E0E353FC4F0E
:100E8000C4910E941327282F41E051E0C49FC00164
:100E9000C59F900D112463E070E00E942D32269FC3
:100EA000C001279F900D11240E94430690938D004E
:100EB00080938C00FF91EF91CF91BF91AF919F9163
:100EC0008F917F916F915F914F913F912F910F90F3
:100ED0000FBE0F901F901895279A2F988AE0809345
:100EE000800089E1809381008FEF9FEF90938700CE
:100EF000809386000E94EF250C94E3060E949A22BC
:100F0000811102C00E9427230E946C070C943506B1
:100F100008950C943B0608950E948A1C0E948B073A
:100F20002FEF84E39CE0215080409040E1F700C027
:100F300000000C944E240F931F93CF93DF938C01EA
:100F40000E94B306EC01B8010E943906882309F417
:100F500062C2CB3C8CE5D80709F4E3C0E8F5C33C9A
:100F6000ECE5DE0709F4A3C0F8F4C5318CE5D80739
:100F700078F4C2309CE5D90708F05CC1C115ECE5F6
:100F8000DE0709F46DC0C130DC4509F471C037C219
:100F9000C13C8CE5D80709F42BC208F080C0C631EB
:100FA000DC4509F4FEC12BC2F8018281C73CFCE597
:100FB000DF0709F49EC040F4C53CECE5DE0709F408
:100FC0008CC008F480C08FC0C93C9CE5D90709F4E7
:100FD0009CC008F494C09FC0C33DFCE5DF0709F442
:100FE000FBC0C0F4F8018281CF3CFCE5DF0709F4C7
:100FF000B9C040F4CD3CECE5DE0709F4A0C008F42C
:1010000098C0A2C0C13D9CE5D90709F4C9C008F445
:10101000B7C0D4C0C83DFCE5DF0709F480C160F467
:10102000C53D9CE5D90709F4EEC008F4DCC0C73D16
:10103000DC4509F451C1E3C1CC3D8CE5D80709F486
:10104000E9C028F4C93DDC4509F490C1D8C1CD3DC3
:10105000FCE5DF0709F4E5C0CE3DDC45C1F0CFC1BA
:10106000F8018281882309F4D6C10E948C07D3C17C
:10107000F8018281882309F4CEC180910D0281603C
:1010800080930D028CEB93E00E949305C4C1F8019C
:101090008281882309F4BFC10E942723BCC1F801C3
:1010A0008281882309F4B7C10E943913B4C1F801C1
:1010B0008281882309F4AFC10E94C221827251F05B
:1010C0000E948312A8C1882309F4A5C10E94C221ED
:1010D0008272B1F30E9475129EC1882309F49BC1EC
:1010E0000E94431198C1882309F495C10E94671199
:1010F00092C1882309F48FC10E9487118CC1882373
:1011000009F489C10E94A71186C1882309F483C10B
:101110000E94C71180C1882309F47DC10E94E71194
:101120007AC1F8018281882309F475C10E94970F62
:1011300072C1882309F46FC10E94AC0F6CC188236F
:1011400009F469C181E029C0882309F464C10E94BF
:101150008E0F823028F00E948E0F853008F4BACFAF
:1011600082E01BC0882309F456C10E948E0F86308E
:1011700028F00E948E0F883008F4ACCF86E00DC0B6
:10118000882309F448C10E948E0F893028F00E94FC
:101190008E0F8E3008F49ECF89E00E9486123BC1EC
:1011A000882309F438C10E948E0F8F3028F00E94E6
:1011B0008E0F843108F48ECF8FE0EFCF882309F4AF
:1011C0002AC10E948E0F853128F00E948E0F873130
:1011D00008F480CF85E1E1CFF8018281882309F40A
:1011E0001AC188E1DACFF8018281882309F413C19A
:1011F0000E948E0F893128F00E948E0F823208F4EF
:1012000069CF89E1CACFF8018281882309F403C13B
:1012100083E2C3CFF8018281882309F4FCC080E017
:1012200006C0F8018281882309F4F5C082E00E949B
:10123000002AF1C0F8018281882309F4E5C00E94E8
:101240009A22811102C00E9427230E94B72290E0B7
:101250009093510280935002FE01E350FC45E2312D
:10126000F10530F4EA5AFF4F809150020C94773226
:1012700080915002816027C0826025C0846023C0B5
:10128000806121C080621FC080641DC080681BC057
:101290008460886018C08E7F16C08D7F14C08B7FDD
:1012A00012C08F7E10C08F7D0EC08F7B0CC08F77D9
:1012B0000AC08B7F877F07C087FB222720F991E038
:1012C000922790FB87F980935002809150020E94F0
:1012D000BB220E948A1C9FC0F8018281882351F0A2
:1012E000109248010E94F22390934501809344019B
:1012F00082E022C08091480181110FC08091440199
:10130000909145010E94FE23883C910530F486E2CD
:101310000E94791886E20E94901982E024C0F801A8
:101320008281882361F0109249010E94F2239093F8
:1013300047018093460180E20E94EF196CC08091C2
:10134000490181110FC080914601909147010E948F
:10135000FE23883C910530F487E20E94791887E2E9
:101360000E94901980E20E94F61955C0F80182810E
:101370008111D9CF809149018111F4CF809146012B
:10138000909147010E94FE23883C910558F780E226
:101390000E94F61988E20E94791888E20E9490194A
:1013A0003AC00E94C221282FF801828140910F018A
:1013B00050911001882379F02A7A91E009F490E0A5
:1013C00090934301911102C069E201C065E3CA0133
:1013D0000E945B230AC080914301811102C069E22F
:1013E00001C065E3CA010E945D230E94012213C06F
:1013F000F8018281882379F00E94F8060CC081E010
:101400008093480180934901C801DF91CF911F91DA
:101410000F910C947F0680E0DF91CF911F910F9187
:1014200008959EE0799FF001112496E4899FE00DD4
:10143000F11D1124E60FF11DEE0FFF1FE457FE4FC3
:10144000859194910895880F991FFC01E35BFB4FF0
:10145000859194910895CF93DF930E94110A0E9481
:101460001E0CEC01811521E5920708F042C08115A0
:1014700060E5960708F031C1883E910500F5803E91
:10148000910508F0D7C1883A910570F4853A910525
:1014900008F0A6C08130910509F4CCC108F47DC1E3
:1014A000049708F0C7C179C18F3B910508F4A3C028
:1014B000803C910508F471C1805C9109FDC0C115A3
:1014C00080E3D80780F4C11590E2D90708F0F2C094
:1014D000C03FD10508F461C1CF3FD10511F008F03C
:1014E000A9C1D065A7C1C11520E4D20708F0F2C098
:1014F000E7C0811569E5960760F5C11588E5D8074D
:1015000008F037C1C11594E5D90778F4C11523E572
:10151000D20708F013C1C11562E5D60708F0F8C07C
:10152000DC2FCC27C16FD06A85C1C11585E5D807EE
:1015300008F41AC1C11596E5D90708F02EC18C2F01
:101540000E949B0C8F71C82FD0E0DC2FCC27D0627B
:1015500071C18D3B2CE5920709F416C1F0F4CB3B29
:101560008CE5D80709F40AC108F00BC1C1152AE5BA
:10157000D20708F012C18C2F8F700E949B0C94E050
:10158000D695C7959A95E1F7CF70D0E0DC2FCC27A0
:10159000D06A8F70806EC82B4DC1803C9C4509F489
:1015A000F9C0C13C8CE5D80760F4CE3B9CE5D90777
:1015B00009F4EDC0CF3BDC4509F0EFC0C0E0D2ED4F
:1015C00039C1CE0190568115904208F0E6C08D2FAA
:1015D0008F710E949B0CDD27D0628F71D82B2AC19E
:1015E000853A910509F4DCC0863A910509F0DBC023
:1015F000C2E8D0E41FC1883A910509F4D7C0893AFE
:10160000910509F4D6C08A3A910509F4D5C08B3A00
:10161000910509F4D4C08C3A910509F4D3C08B3BF1
:10162000910509F4D2C08C3B910509F4D1C08D3AE3
:10163000910509F4D0C0803B910509F4CFC08E3AE2
:10164000910509F4CEC08F3A910509F4CDC0813BD4
:10165000910509F4CCC0823B910509F4CBC0833BD2
:10166000910509F4CAC0843B910509F4C9C0853BC2
:10167000910509F4C8C0863B910509F4C7C0873BB2
:10168000910509F4C6C0883B910509F4C5C0893BA2
:10169000910509F4C4C08D3B910509F4C3C08E3B8C
:1016A000910509F4C2C08A3B910509F4C1C0C0E0AC
:1016B000D4E4C0C0CE019F700E94230AEC01BAC0DE
:1016C000CE019927D3FF03C0EC01D86CB3C0EC0165
:1016D000D06CB0C0DF70D06AADC0837021E030E064
:1016E00002C0220F331F8A95E2F73C68CE0174E0F6
:1016F000969587957A95E1F78370382BCF70C695CC
:10170000C69580E2C89FE0011124C22BD32B92C062
:101710004C2F4695469590E2499FA0011124C37035
:10172000DD2721E030E0C90102C0880F991FCA956A
:10173000E2F7EC01C42BD52BDC687CC04C2F46951E
:10174000469580E2489FA0011124C370DD2721E067
:1017500030E0C90102C0880F991FCA95E2F7EC0179
:10176000C42BD52BDA6866C0DC2FCC27C46FD06AB7
:1017700061C0DC2FCC27C06FD06A5CC0C0E0D4ED64
:1017800059C0C0E0D5ED56C0C0E0D1ED53C0C0E0B7
:10179000D0ED50C0C0E0D3ED4DC0C0E0D0E04AC0B5
:1017A000C1E8D0E447C0C3E8D0E444C0C2EED4E40A
:1017B00041C0C9EED4E43EC0CAEED4E43BC0C5EBA0
:1017C000D4E438C0C6EBD4E435C0C3EBD4E432C0B3
:1017D000C4EBD4E42FC0C7EBD4E42CC0CCECD4E4ED
:1017E00029C0CDECD4E426C0C3E8D5E423C0CAE8C0
:1017F000D5E420C0C2E9D5E41DC0C4E9D5E41AC0CF
:10180000C1E2D6E417C0C3E2D6E414C0C4E2D6E411
:1018100011C0C5E2D6E40EC0C6E2D6E40BC0C7E2F2
:10182000D6E408C0CFE6D4E405C0C0E7D4E402C0E3
:10183000CAE2D6E4CE01DF91CF91089582389105B6
:1018400049F1B0F48133910509F458C048F4893264
:10185000910509F44EC08A32910509F454C00895E7
:101860008533910509F440C08933910599F00895B5
:10187000833E910529F138F4803E910591F0823E36
:101880009105A1F00895863E9105F9F0873E9105F6
:1018900031F108952091500220FD3AC021FD38C059
:1018A00008958091500280FD35C032C08091500271
:1018B00082FF32C08091500284FD30C083EE39C077
:1018C0008091500282FD28C0F5CF8091500283FFA5
:1018D00027C08091500284FD21C087EE2AC08091EC
:1018E000500283FD1DC0F5CF8091500285FD1AC0C6
:1018F0001BC08091500285FD17C014C0809150021A
:1019000086FD14C015C08091500286FD11C00EC026
:1019100080EE0FC089E30DC082EE0BC080E009C0ED
:1019200086EE07C089E205C085E303C08AE201C0F4
:1019300081E390E008959091500292FF0DC0282F0E
:101940002871283019F4877F846006C0282F2471FD
:10195000243011F48B7F886093FF0DC0282F2871ED
:10196000283119F4877E846106C0282F2471243120
:1019700011F48B7E886194FD877E08950895089503
:10198000EAE2F1E041E050E025E02E0F9191A92F2D
:10199000A295AF70B0E091963C9191979F70BA017B
:1019A00002C0660F771F9A95E2F7CB0180958323DB
:1019B00091968C932E13EACFACE1B1E041E050E078
:1019C0002EE02A0F8D91E82FE295EF70F0E031A123
:1019D0008F70BA0102C0660F771F8A95E2F7CB01BC
:1019E000962F9095932391A392A1892B82A32A13DA
:1019F000E9CFE4E5F1E0AAE4B1E0119211921D9281
:101A00001D9271E0EE35F707C1F785E00E94F20DF7
:101A10000C947E074F925F927F928F929F92AF922B
:101A2000BF92CF92DF92EF92FF920F931F93CF93CB
:101A3000DF932AE2422E21E0522EA4E5B1E020E01D
:101A400001E010E05D018D909C90119711961C9221
:101A50001E92E20189912E01E82FE295EF70F0E0ED
:101A600031A18F70A80102C0440F551F8A95E2F77B
:101A7000CA01342B31A342A1382F3095432342A30E
:101A800050EA5A95F1F79CE1C92E91E0D92E40E039
:101A900050E0E60179906E01672D62956F7070E0FD
:101AA000EB01E8A06D917C911197F12CD72DDF709F
:101AB00002C0F594E794DA95E2F7E0FC08C07801FB
:101AC000042E02C0EE0CFF1C0A94E2F702C0E12CC7
:101AD000F12C6E297F2911967C936E934F5F5F4F97
:101AE0004E305105B1F691A1392331A392A1892B32
:101AF00082A3129681E0F5014081518184169506FA
:101B000009F480E0282BF1E0AE35BF0709F09ACF49
:101B100045E06AE471E084E591E00E94F30D0E94E3
:101B2000BB0681E0DF91CF911F910F91FF90EF9065
:101B3000DF90CF90BF90AF909F908F907F905F90FD
:101B40004F900895E82FF0E0EE0FFF1FE65BFE4F89
:101B5000808191810895CF92DF92EF92FF920F934F
:101B60001F93CF93DF938DE594E00E9493058AE461
:101B7000E82E81E0F82EC0E0D0E098E5C92E94E090
:101B8000D92E0FE414E0DF93CF93DF92CF920E941F
:101B90002C0685E594E00E949305F70181919191CF
:101BA0007F010E9480229F938F931F930F930E9427
:101BB0002C068DE494E00E94930521968DB79EB784
:101BC00008960FB6F8949EBF0FBE8DBFC530D105E5
:101BD000D1F6DF91CF911F910F91FF90EF90DF90A1
:101BE000CF9008950895FF920F931F93CF93DF93A3
:101BF000F82E092F162FD72FC42F222349F081E06A
:101C0000809360010E94F22390935F0180935E01B4
:101C1000809160018823D9F080915E0190915F01ED
:101C20000E94FE23069798F0EF2DF02FA12FBD2FD5
:101C300080E090E04C2F50E08417950734F4219118
:101C400031912D933D930196F7CF10926001DF9172
:101C5000CF911F910F91FF900895EF92FF920F93F4
:101C60001F93CF93DF93E901662309F44BC0242F20
:101C700030E0EFEFF0E0E61BF109B901E69F9001DB
:101C8000E79F300DF69F300D1124232F8B01031B8E
:101C900011095CE3E52EF12CB7010E942D32FB0106
:101CA000BC01069FC001079F900D169F900D112447
:101CB000B7010E942D32E230F105B1F040F43097C7
:101CC00079F0319711F5832F242F461B21C0E43082
:101CD000F105A1F068F03597C1F4842F861B18C078
:101CE000832F262F230F14C0862F830FE42F03C0CA
:101CF000E42FE61B842F432F2E2F0AC0842F462F5C
:101D0000430F06C0842F242F03C080E020E040E072
:101D1000E42FF0E0E35AF84F4491E22FF0E0E35A69
:101D2000F84F9491E82FF0E0E35AF84FE49149839B
:101D30009883EA83DF91CF911F910F91FF90EF90ED
:101D4000089580911D02282F26952F7330E02115CC
:101D5000310519F48178826005C02532310524F0FF
:101D60008178886480931D0230911D02432F441FA7
:101D70004427441F20911E02522F550F852F842B7C
:101D800027FB992790F9893641E094077CF068E6B3
:101D900071E00E94413280FB37F930931D02869535
:101DA0002078822B90FB87F980931E02089588E0AB
:101DB00090E00C94AC32CF93DF9300D000D0CDB73D
:101DC000DEB7AB01BC0149835A836B837C830E94DD
:101DD000A10E49815A816B817C8188E090E00F904F
:101DE0000F900F900F90DF91CF910C94CA32EDE1DC
:101DF000F2E083E0808310921E028FEF8283838360
:101E0000148260817181828193810C94DB0E8091B8
:101E10000D0280FF08C08AE297E09F938F930E9493
:101E20002C060F900F9080910D0280FF0FC08091C3
:101E30001D0281701F928F938DE097E09F938F9387
:101E40000E942C060F900F900F900F9080910D0222
:101E500080FF10C080911D0286958F731F928F9313
:101E600082EF96E09F938F930E942C060F900F9025
:101E70000F900F9080910D0280FF19C080911D027C
:101E8000881F8827881F90911E02292F220F822BDE
:101E900097FB992790F99F938F9388ED96E09F93F6
:101EA0008F930E942C060F900F900F900F908091AF
:101EB0000D0280FF0EC080911F021F928F938EEB48
:101EC00096E09F938F930E942C060F900F900F9097
:101ED0000F9080910D0280FF0EC0809120021F9212
:101EE0008F9384EA96E09F938F930E942C060F9025
:101EF0000F900F900F9080910D0280FF0EC0809187
:101F000021021F928F9388E896E09F938F930E94FF
:101F10002C060F900F900F900F90089580911D0246
:101F200080FF03C086958F73089580E008958091A7
:101F3000210290E001968430910514F083E090E056
:101F40008093210260911D0270911E0280911F02F8
:101F5000909120020C94DB0E8091210290E0019779
:101F600097FF02C080E090E08430910514F083E098
:101F700090E08093210260911D0270911E02809179
:101F80001F02909120020C94DB0E80917E0123E0D1
:101F9000829FC00111248E5D9D4F6091030170E00E
:101FA00020911D0220FD0DC020E030E0F901EE5D22
:101FB000FD4F1182108212822D5F3F4F2A32310570
:101FC000A9F70C94B61690911D0290FF0FC020E067
:101FD00030E0F901EE5DFD4F8183608342832D5F28
:101FE0003F4F2A323105A9F70C94C50F0895CF93BE
:101FF000DF9300D01F92CDB7DEB720911D0220FFE6
:102000000AC09E012F5F3F4F0E942D0E4B816981B8
:102010008A810E94E30F0F900F900F90DF91CF9174
:1020200008952F923F924F925F926F927F928F927C
:102030009F92AF92BF92CF92DF92EF92FF920F9357
:102040001F93CF93DF93CDB7DEB727970FB6F894E2
:10205000DEBF0FBECDBF8C01262E342E2D83809186
:102060001D0280FFDDC0982F9E77923061F49E01A3
:102070002F5F3F4FC8010E942D0E4B8169818A81DD
:102080000E94E30F80C0E82FE695EF739EE39E0F5A
:102090009F73943018F43090200275C09AE39E0F1D
:1020A0009F73993068F4881F8827881F90911E02BB
:1020B000292F220F022F082B97FB112710F963C03D
:1020C00087E28E0F8F738A3008F05DC0F0E0799759
:1020D000E0FD03C021E02C8302C03FEF3C83EE7F94
:1020E000ED5AF84F859094908C81682E880F770870
:1020F000C4016EE070E00E942D32669E2001679E52
:10210000500C769E500C1124580198E9A91A9EEFA4
:10211000B90A82E2C82E82E0D82EE12CF12CC5014A
:1021200068E671E00E942D3220910D0220FF18C058
:102130009F928F927F92AC81AF939F938F93FF92E8
:10214000EF92A3EEB4E0BF93AF938E839F830E9480
:102150002C060FB6F894DEBF0FBECDBF9F818E81D7
:102160009601432D622D0E942D0EBFEFEB1AFB0A44
:10217000A40CB51C23E0C20ED11C3EE0E316F10412
:1021800071F60E94C50F80911D0200FB87F98093B4
:102190001D0280911E028078902F9695892B10FB4E
:1021A00087F980931E0220921F02309220028D81B7
:1021B000882321F160911D0270911E0280911F02FF
:1021C000909120020E94DB0E809120021F928F933B
:1021D00080911F021F928F9380911D02881F882774
:1021E000881F90911E02292F220F822B97FB99277F
:1021F00090F99F938F938EEB94E009C01F923F92CA
:102200001F922F9211701F930F9387E994E09F9371
:102210008F930E942C060FB6F894DEBF0FBECDBF81
:1022200027960FB6F894DEBF0FBECDBFDF91CF91DA
:102230001F910F91FF90EF90DF90CF90BF90AF90E4
:102240009F908F907F906F905F904F903F902F90D6
:102250000895282FEDE1F2E09081991F9927991FA9
:1022600030911E02832F880F482F492B37FB5527AB
:1022700050F9CA010C9668E671E00E944132438130
:1022800062810C94111081E00C942911282F9091F7
:102290001D02991F9927991F30911E02832F880FC5
:1022A000482F492B37FB552750F9CA014C305105AF
:1022B0001CF4845A9E4F01C00C9768E671E00E949E
:1022C00041324091200260911F020C94111081E074
:1022D0000C94461160911F02262F30E0243F3105F7
:1022E00014F4645F01C06FEF30911D02331F332778
:1022F000331F90911E02592F550F97FB992790F984
:10230000282F40912002852F832B0C94111081E0FF
:102310000C946A1160911F02262F30E02C30310599
:1023200014F06C5001C060E030911D02331F332760
:10233000331F90911E02592F550F97FB992790F943
:10234000282F40912002852F832B0C94111081E0BF
:102350000C948A1140912002242F30E0243F310553
:1023600014F4445F01C04FEF30911D02331F332737
:10237000331F90911E02592F550F97FB992790F903
:10238000282F60911F02852F832B0C94111081E060
:102390000C94AA1140912002242F30E02C303105FA
:1023A00014F04C5001C040E030911D02331F332720
:1023B000331F90911E02592F550F97FB992790F9C3
:1023C000282F60911F02852F832B0C94111081E020
:1023D0000C94CA1120E00C94111081E080937F01CD
:1023E00080910D0280FF08C086E894E09F938F9350
:1023F0000E942C060F900F90089510927F018091FB
:102400000D0280FF08C084E794E09F938F930E94A1
:102410002C060F900F90089590911D0290FF58C0C8
:102420009178811102C0926007C0853210F09864E3
:1024300003C08F73880F982B90931D02662399F029
:1024400060911D0270911E0280911F0290912002E6
:102450000E94DB0E80911D0286958F731F928F93D1
:102460008EEC95E008C080911D0286958F731F92B7
:102470008F9380EB95E09F938F930E942C060F9093
:102480000F900F900F9060911D0266956F7370E032
:102490004BE050E084E091E00E949732892B19F0E4
:1024A0000E94FD1102C00E94ED1180911D02881F43
:1024B0008827881F90911E02292F220F97FB9927AA
:1024C00090F94091200260911F02822B0C94EA1136
:1024D0000895682F90911D0296959F7381E0890F52
:1024E000853208F081E00C940C1281E00C946912A2
:1024F000682F90911D0296959F738FEF890F09F4B5
:1025000084E20C940C1281E00C94781261E00C943B
:102510000C12CF93DF93CDE1D2E088818160888374
:102520001F9281E08F9382E495E09F938F930E94A6
:102530002C060F900F900F900F90888186958F73C7
:10254000DF91CF910C94861260E00C940C12809174
:102550008001811163C080910D02816080930D0222
:1025600081E796E09F938F930E942C0680910D0245
:102570000F900F9080FF08C08BE596E09F938F939C
:102580000E942C060F900F900E949A22811110C079
:1025900080910D0280FF08C083E396E09F938F93A4
:1025A0000E942C060F900F900E9427230E94F70E86
:1025B0000E94D70E60931D0270931E0280931F022B
:1025C000909320026E77C1F480910D0280FF08C0C5
:1025D0008AEE95E09F938F930E942C060F900F90A8
:1025E0000E94F70E0E94D70E60931D0270931E0288
:1025F00080931F02909320020E94A10E0E94070F59
:1026000081E080937F0180911D0280FF04C0869548
:102610008F730E94A41281E0809380010895CF936C
:10262000DF93CDE1D2E088818E7F888368817981D4
:102630008A819B810E94DB0E888181701F928F931B
:102640008AE095E09F938F930E942C060E94FD11D3
:102650002FEF80E792E0215080409040E1F700C0EA
:1026600000000F900F900F900F90DF91CF910C947E
:10267000C50F80911D02809581701F928F9389E70D
:1026800095E09F938F930E942C0680911D020F90DE
:102690000F900F900F9080FD0C940F130C948912E3
:1026A000CF93E82FF0E0E15BF84FC49180917C017B
:1026B00090917D010E94FE23EC2FF0E08E179F0782
:1026C00008F443C00E94F22390937D0180937C0123
:1026D00060917B0170E080E090E00E94123020E089
:1026E00030E04FE753E40E94352F2BED3FE049E403
:1026F00050E40E943B310E94A8310E94AF2F2BE48E
:102700003AE34EE25FE30E94C82E20EF3BEF48ED34
:1027100052E40E943B310E94E12F462F80911D021E
:10272000881F8827881F90911E02292F220F97FB50
:10273000992790F960911F02822B0E94F70F8091D8
:102740007B0190E0019680937B01CF910895CF9318
:10275000E82FF0E0E45BF84FC4918091790190910B
:102760007A010E94FE23EC2FF0E08E179F07E8F01D
:102770000E94F22390937A01809379014091200284
:1027800060911F0280917701909178010E94F70F6C
:102790008091770190917801019668E671E00E943E
:1027A0002D329093780180937701CF910895CF9245
:1027B000DF92FF920F931F93CF93DF93F82EE82FB2
:1027C000E695F0E0E75BF84FC49180917501909138
:1027D00076010E94FE23EC2FF0E08E179F07F0F1A8
:1027E0000E94F223909376018093750102E212E039
:1027F000C0E0D0E088E6C82EDD24D3948091730138
:10280000909174018C0F9D1FB6010E942D3298018A
:102810004091200260911F020E942D0E69960D5F6B
:102820001F4FCE3581E0D80749F70E94C50F209190
:10283000730130917401F0FE0BC0C901019668E686
:1028400071E00E942D32909374018093730106C051
:10285000215031093093740120937301DF91CF919E
:102860001F910F91FF90DF90CF900895AF92BF928C
:10287000CF92DF92EF92FF920F931F93CF93DF934C
:1028800080FF02C01FEF01C011E08695E82FF0E045
:10289000EA5BF84FC49180917101909172010E949E
:1028A000FE23EC2FF0E08E179F0708F466C00E940D
:1028B000F223909372018093710122E2C22E22E0F2
:1028C000D22E34E2E32E32E0F32EC0E0D0E0F70166
:1028D00031971082F6011082F701108294E0A92E40
:1028E000B12C00E080917001800F87FD825F082E7F
:1028F000000C990BC817D907E9F4809120028A9D32
:10290000A0018B9D500D11245595479555954795E0
:1029100080911D02881F8827881F90911E02592FC1
:10292000550F97FB992790F9960160911F02852B0F
:102930000E942D0E010FF1E0AF1AB10899F6219611
:1029400083E0C80ED11CE3E0EE0EF11CCE30D105C1
:1029500009F0BDCF0E94C50F80917001113031F494
:10296000811102C08DE007C0815005C090E0019642
:10297000BE010E94413280937001DF91CF911F917F
:102980000F91FF90EF90DF90CF90BF90AF900895A0
:102990000F931F93CF93DF93E82FF0E0ED5BF84F99
:1029A000C49180916E0190916F010E94FE23EC2FE3
:1029B000F0E08E179F0708F466C00E94F223909300
:1029C0006F0180936E0180E090E0FC01EE5DFD4FB1
:1029D00011821082128203968A329105B1F7C0E00B
:1029E000D0E00EE010E0CE01B8010E9441324091EB
:1029F0006D01042E000C550BFC01EE0FFF1FC417D8
:102A0000D5070CF140910201042E000C550B4C1718
:102A10005D07CCF08E0F9F1F9C012E5D3D4F809176
:102A20001D02881F8827881F90911E02592F550F5D
:102A300097FB992790F94091200260911F02852B06
:102A40000E942D0E07C0E80FF91FEE5DFD4F1182A9
:102A5000108212822196CE30D10529F60E94C50F30
:102A60008091010190916D01980F90936D012091DB
:102A70000201280F20930201121614F49D301CF05D
:102A8000819580930101DF91CF911F910F9108955E
:102A9000EF92FF920F931F93CF93DF9380916B017F
:102AA00090916C010E94FE23883E9340D0F10E94D9
:102AB000F22390936C0180936B01C0916901D091D6
:102AC0006A012196C170DD27D0936A01C093690124
:102AD00082E2E82E82E0F82E10E008E7812F86954A
:102AE000FE01E80FF11DCF018170992797014091F8
:102AF000200260911F02FC010E9FC0010F9F900DEC
:102B000011240E942D0E1F5FF3E0EF0EF11C1E300A
:102B100029F7DF91CF911F910F91FF90EF900C94C7
:102B2000C50FDF91CF911F910F91FF90EF90089506
:102B3000CF93DF9300D01F92CDB7DEB780916701AE
:102B4000909168010E94FE23E1E4F7E02591349121
:102B500082179307C0F18091660181110CC09E011C
:102B60002F5F3F4F4FEF6FEF80E090E00E942D0E00
:102B70008A81809366010E94F2239093680180937A
:102B8000670180916501813051F028F0823061F455
:102B9000409166010AC08091660140E007C06091E3
:102BA000660140E080E003C040E080E060E00E9419
:102BB000E30F8091650190E0019663E070E00E9470
:102BC0004132809365010F900F900F90DF91CF916C
:102BD00008950F931F93CF93DF938091630190919A
:102BE00064010E94FE23843F914008F448C00E9483
:102BF000F2239093640180936301C2E2D2E000E08B
:102C000010E0209161013091620180911D0290914C
:102C10001E02073011051CF4232B79F002C0232B70
:102C200061F4881F8827881F592F550F97FB992714
:102C300090F99E01409120020AC0881F8827881FB2
:102C4000592F550F97FB992790F99E0140E060910D
:102C50001F02852B0E942D0E0F5F1F4F23960E30F3
:102C6000110579F60E94C50F809161019091620172
:102C70000196817099279093620180936101DF91A1
:102C8000CF911F910F91089580917F018823D9F1F1
:102C900090911D02892F86958F732EE3280F2F7335
:102CA000243018F482500C9450132AE3280F2F7309
:102CB000233018F486500C94A71327E3280F2F73A2
:102CC000263018F489500C94D71321E3280F2F7362
:102CD000263018F48F500C9436142BE2280F2F73E3
:102CE000233018F485510C94C814892F8E778033C3
:102CF00011F40C944815863411F40C94981588340A
:102D000011F40C94E915089521B3342F3095232341
:102D100031B3432B3FB7F894FC01680F791FE617D6
:102D2000F70789F0819198E041BB000000C087FF60
:102D300021BB880F000000C000C000C021BB00C044
:102D40009A9591F7ECCF3FBF089520B3242B20BB79
:102D50009B01220F331F620F731F0E94841687ECA2
:102D600090E00197F1F700C00000089541E00C9455
:102D7000A51690938601809385010895E0918501C1
:102D8000F0918601309721F00190F081E02D0994B7
:102D900080E00895EF92FF920F931F93CF93DF93FC
:102DA000E0918501F09186013097B1F18C010280AC
:102DB000F381E02D099580910D0282FF2DC080FFE7
:102DC00004C085E698E00E949305E80118E08FE5CD
:102DD000E82E88E0F82E80910D0280FF0BC08881DC
:102DE0001F928F93FF92EF920E942C060F900F90EC
:102DF0000F900F90115021961111EDCF80910D027F
:102E000080FF0AC08DE598E0DF91CF911F910F916F
:102E1000FF90EF900C949305DF91CF911F910F914C
:102E2000FF90EF90089520918301309184018217E3
:102E3000930771F09093840180938301E091850161
:102E4000F0918601309721F00680F781E02D0994FA
:102E5000089520918101309182018217930771F0CA
:102E60009093820180938101E0918501F091860128
:102E7000309721F00084F185E02D0994089585B7FD
:102E8000806885BF85B7806885BF089508950895D7
:102E90000C94471708950C944A170E943F170E94FC
:102EA00046170C94481781E008950E94E9230E9478
:102EB000C00C0E94BE240E94EF250E94A7120C9411
:102EC0004B17CF93C82F80910D0282FF1EC080FF49
:102ED00004C08EE798E00E94930580910D0280FF68
:102EE0000CC01F92CF9389E798E09F938F930E9425
:102EF0002C060F900F900F900F9080910D0280FF85
:102F000004C087E798E00E9493058C2FCF910C9422
:102F100089074F925F927F928F929F92AF92BF925A
:102F2000CF92DF92EF92FF920F931F93CF93DF9395
:102F3000CDB7DEB72A970FB6F894DEBF0FBECDBF70
:102F40000E940A0D0E945317811111C08FEF8983CF
:102F50008A831B820E94F2238160782F9D838C8359
:102F600049815A816B818D810E94451857C098E82C
:102F7000C92E91E0D92E00E010E0AA24A394B12C30
:102F8000702E802F0E94A20D4C01F60141905190AD
:102F90006F01482659264114510431F40F5F1F4F29
:102FA0000530110569F7D2CF80910D0281FD0E9495
:102FB000AB0D20E030E07501022E02C0EE0CFF1CCC
:102FC0000A94E2F7C70184219521892B09F12E8308
:102FD0007F828E209F2091E0892809F490E09887D5
:102FE0000E94F2238160782F9A8789874E815F81C2
:102FF00068858A850E944518000F111FF801E8575F
:10300000FE4F80819181E826F926F182E08206C098
:103010002F5F3F4F2E30310571F6C0CF10918701E1
:103020000E94BE161817D9F00E94BE168093870121
:103030002A960FB6F894DEBF0FBECDBFDF91CF91B9
:103040001F910F91FF90EF90DF90CF90BF90AF90C6
:103050009F908F907F905F904F900C9461172A966D
:103060000FB6F894DEBF0FBECDBFDF91CF911F9199
:103070000F91FF90EF90DF90CF90BF90AF909F9017
:103080008F907F905F904F900895CF93DF93CDB74F
:10309000DEB72B970FB6F894DEBF0FBECDBF4F83C0
:1030A000588769877A878B87DE01119686E0FD0154
:1030B00011928A95E9F785E0FE01379601900D920D
:1030C0008A95E1F749815A816B817C818D819E814E
:1030D0000E94341F2B960FB6F894DEBF0FBECDBFF3
:1030E000DF91CF910895FC01808191810E9483211D
:1030F0000895882309F413C1682F8238C1F40E940F
:10310000BE1681FD0CC169E380910F019091100101
:103110000E945B230E9401222FEF81EE94E0215058
:1031200080409040E1F700C0000069E319C0833897
:10313000F9F40E94BE1680FDF2C063E580910F0194
:10314000909110010E945B230E9401222FEF81EEDB
:1031500094E0215080409040E1F700C0000063E51A
:1031600080910F01909110010E945D230C94012227
:103170008438C1F40E94BE1682FDD1C067E48091FC
:103180000F01909110010E945B230E9401222FEFFA
:1031900081EE94E0215080409040E1F700C00000B3
:1031A00067E4DECF8CEF860F813A38F480910F010F
:1031B000909110010E945B23D9CF80E2860F883066
:1031C00048F4677081E001C0880F6A95EAF70E94B1
:1031D000C521CCCF8BE5860F833070F4653A29F09A
:1031E000663A31F083E890E005C081E890E002C0E3
:1031F00082E890E00C94131788E5860F873108F079
:103200008EC0683A09F445C0693A09F445C06A3A83
:1032100009F445C06B3A09F445C06C3A09F445C05D
:103220006B3B09F445C06C3B09F445C06D3A09F4A9
:1032300045C0603B09F445C06E3A09F445C06F3A99
:1032400009F445C0613B09F445C0623B09F445C03F
:10325000633B09F445C0643B09F445C0653B09F490
:1032600045C0663B09F445C0673B09F445C0683B6F
:1032700009F445C0693B09F445C06D3B09F445C0FC
:103280006E3B09F445C06A3B09F445C080E090E01C
:1032900044C082EE90E041C089EE90E03EC08AEEEC
:1032A00090E03BC085EB90E038C086EB90E035C005
:1032B00083EB90E032C084EB90E02FC087EB90E08E
:1032C0002CC08CEC90E029C08DEC90E026C083E807
:1032D00091E023C08AE891E020C082E991E01DC01E
:1032E00084E991E01AC081E292E017C083E292E0A3
:1032F00014C084E292E011C085E292E00EC086E242
:1033000092E00BC087E292E008C08FE690E005C033
:1033100080E790E002C08AE292E00C9429170895B9
:10332000882309F45BC0682F823879F40E94BE16A6
:1033300081FF54C069E380910F01909110010E94B8
:103340005B230E94012269E310C08338B1F40E941C
:10335000BE1680FF43C063E580910F01909110017C
:103360000E945B230E94012263E580910F019091EE
:1033700010010E945D230C940122843879F40E948C
:10338000BE1682FF2BC067E480910F01909110015F
:103390000E945B230E94012267E4E7CF8CEF860F37
:1033A000813A18F380E2860F883048F4677081E034
:1033B00001C0880F6A95EAF70E94CB21DCCF8BE52C
:1033C000860F833020F480E090E00C941317685A45
:1033D000673120F480E090E00C9429170895882349
:1033E00021F00E94C5210C9401220895882321F028
:1033F0000E94CB210C94012208954F925F926F920C
:103400007F92BF92CF92DF92EF92FF920F931F9322
:10341000CF93DF937C01D62FC72FFC010581029546
:103420000F70128111110E94E2210E94BB2188239A
:1034300079F0112369F080E28D0F883048F082E046
:103440000E944C220E94BB2191E0B82EB92601C0F7
:10345000B12CCC2EC2948FE0C822D12CFEE0CF1626
:10346000D10408F0DCC1F601E859FF4F0C94773223
:103470008C2F807FCF70882311F0C295C07F1123DD
:1034800099F0CC2309F48EC180E28D0F883010F0C2
:10349000D11104C08C2F0E94C52103C08C2F0E9423
:1034A000D5210E9401227EC18D2F0E949019CC232C
:1034B00009F4B5C180E28D0F883010F0D11104C03D
:1034C0008C2F0E94CB2103C08C2F0E94DB210E94F5
:1034D0000122A5C18C2F807FCF70803211F0C29560
:1034E000C07FDD2319F0D130C9F022C0112371F063
:1034F000002341F0013031F40E94E8218C2B0E941E
:10350000EE218DC10E94E8218C2B1DC0002319F0F3
:10351000013009F484C10E94F7211AC0112321F05F
:10352000063008F07CC10EC0053008F078C110C02C
:10353000112361F0002331F0F701858180FF32C152
:103540008F7085838C2F0E94EF1969C101113BC1D7
:103550008C2FE6C08C2F86958695837090E000971F
:1035600019F0019761F05BC1112321F08D2F9C2F81
:10357000937002C080E090E00E94131760C1112395
:1035800021F08D2F9C2F937002C080E090E00E946C
:10359000291755C18C2F837009F050C011114BC1F0
:1035A0008D2F829586958770880F880F9D2F9F702D
:1035B000492E512C612C712C082E04C0440C551C32
:1035C000661C771C0A94D2F7D4FF14C04FE050E079
:1035D00060E070E08A019B0104C0000F111F221FF0
:1035E000331F8A95D2F7C901B8016095709580950F
:1035F000909503C060E070E0CB01C695C695C3709E
:10360000D0E0C230D10561F0C330D10581F064292A
:10361000752986299729219771F00E94FC1F0BC1FB
:1036200064297529862997290E940E2004C10E94C9
:10363000FC1FC301B2010E94EA1FFDC0112319F053
:103640008C2F817001C08695882309F4F4C08D2FDA
:10365000829586958770880F880F9D2F9F70492EC1
:10366000512C612C712C082E04C0440C551C661C76
:10367000771C0A94D2F7D4FF14C04FE050E060E00A
:1036800070E08A019B0104C0000F111F221F331F2D
:103690008A95D2F7C901B80160957095809590958B
:1036A00003C060E070E0CB01C695C695C3702C2FB7
:1036B00030E02230310569F02330310589F064298A
:1036C0007529862997292130310571F00E94C22081
:1036D000B2C064297529862997290E94D420ABC0DD
:1036E0000E94C220C301B2010E94B020A4C08D2F4D
:1036F00090E0FC01E05EF109E531F10508F04EC013
:10370000EA58FF4F0C947732DF708C2F8F711123A2
:1037100021F00E9449208D2F16CF0E946A208D2F04
:103720000E94F6197CC0112341F0053008F077C0E3
:103730008C2F8F710E948F2072C0063008F06FC0EE
:10374000F7CF112339F08C2F8F710E94492067C069
:103750001123C9F38C2F8F710E946A2060C011233E
:1037600029F08C2F8F710E94342059C00E942F2085
:1037700056C0112349F0CF718C2F0E94492063E07D
:103780008C2F0E9437224BC081E00E944C220230D5
:1037900008F445C082E00E944C2241C0112331F060
:1037A000002389F28D2F0E94791839C0002391F2ED
:1037B000D93349F41FEF27EE33E011502040304059
:1037C000E1F700C000008D2F0E94901928C0111150
:1037D00036C0CF702C2F30E022303105B1F04CF4E0
:1037E0002115310579F021303105C9F40E943C26BC
:1037F00026C02430310579F05CF02530310579F4AC
:1038000080E00AC00E940C261AC00E94A62617C09B
:103810000E94C22614C083E00E94F82610C088E0EF
:10382000C816D10441F05CF0EAE0CE1AD108F2E00B
:10383000CF16D10420F40E94BE160E948907BB2037
:10384000F1F00E94B72180FD1AC0F70112820E9498
:10385000B1210E944920C7010E944D1C0E94B12144
:10386000DF91CF911F910F91FF90EF90DF90CF905C
:10387000BF907F906F905F904F900C946A20DF9183
:10388000CF911F910F91FF90EF90DF90CF90BF905D
:103890007F906F905F904F9008950F931F93CF93F9
:1038A000DF93EC01888199812B813C81232BB9F036
:1038B0009F3F11F48F3F99F0CE010E949B07882310
:1038C00071F0688179818A810E948E218C010E9429
:1038D000E6200E94E71FB801CE010E94FD19DF918A
:1038E000CF911F910F9108950E94E2210E94E5213E
:1038F0000E94012280E090E00E94131780E090E097
:103900000C94291780910F01909110010E945F2360
:103910000C94741C0E94D2210C94821CE92FE29515
:10392000EF70F0E03297EE30F105B0F4E557FF4F5D
:103930000C947732803F91F018F4803E68F40EC00A
:10394000843F51F40BC0803E48F0813F29F406C00B
:1039500093FB882780F9089580E0089581E0089519
:103960000E9483210E948E1C0895CF93DF9300D084
:1039700000D01F92CDB7DEB70F900F900F900F9031
:103980000F90DF91CF910895CF93DF9300D000D0B7
:1039900000D0CDB7DEB726960FB6F894DEBF0FBEC7
:1039A000CDBFDF91CF9108951F93CF93DF93C09147
:1039B000930116E080919401C81799F0D0E01C9F04
:1039C000F0011D9FF00D1124EB56FE4F40815181F7
:1039D00062817381848195810E94C41C2196C77085
:1039E000E9CFDF91CF911F9108954091C50150918A
:1039F000C6016091C7017091C8018091C901909181
:103A0000CA010C94C41C8091CA0182958F7009F080
:103A100054C08091C701882309F44FC0809193015D
:103A2000A09194016091C5017091C6014091C801B7
:103A30005091C901B6E08A1709F43FC090E04115E2
:103A40005105C1F17F3F11F46F3FA1F1B89FF00123
:103A5000B99FF00D1124EB56FE4F218172132AC03D
:103A60002081621327C02281211124C02381348147
:103A70002417350710F421503109241B350B283C3D
:103A80003105C0F42091CA012F7020612093CA0132
:103A900026E0289FF001299FF00D1124E656FE4FE5
:103AA00080818F708061808385EC91E00E944D1C45
:103AB0000C94D41C01968770BECF0895CF92DF92EC
:103AC000EF92FF920F931F93CF93DF93CDB7DEB7A3
:103AD00062970FB6F894DEBF0FBECDBF8C0185E0B4
:103AE000F801DE011D9601900D928A95E1F7D8014B
:103AF0004C9111965C91119712966C9112971396B6
:103B0000CD90DC9014973091C5017091C6018091E1
:103B1000C8019091C901009709F46BC17F3F19F466
:103B20003F3F09F466C1E090C701EE2009F4C0C030
:103B30002091CA01C816D90628F0F601E81BF90B36
:103B4000CF0104C0809590958C0D9D1DFF24F394AA
:103B5000883C910578F0F12C207F09F0C6C07C2DBF
:103B6000D98AC88A89890E94B51C85EC91E00E9497
:103B70004D1CB1C0822F807F09F046C0751314C060
:103B8000341312C0611110C02F7020612093CA013C
:103B90000E94F51C85EC91E00E944D1C8091CA01A9
:103BA000D80115968C932EC0CD2819F15F3F11F4E2
:103BB0004F3FF9F0F62E61111CC0809193012091C6
:103BC000940136E0821709F45AC090E0389FF00162
:103BD000399FF00D1124EB56FE4F7181571306C02B
:103BE0007081471303C07281711103C00196877001
:103BF000E9CFF62E662309F427C18091CA018160BE
:103C00008093CA01F12C20C1751308C0341306C07B
:103C1000611104C08091CA01D801C3C04D875E877D
:103C20008D859E856A8B0E94B01C6A898823E1F18C
:103C30006623D1F12091CA01822F82958F7090E086
:103C4000029774F08091C5019091C60198878F8387
:103C50001986DB86CA862C87CE0107960E944D1CEA
:103C600086E0F801A5ECB1E001900D928A95E1F7AC
:103C70000E94031D0E94F51CFF24F394E5C04D87AC
:103C80005E878D859E850E948321292F22952F7026
:103C900030E0223031050CF0CBC09F7009F0C5C078
:103CA000805E883008F4D0C0C8010E944D1CE4CF6B
:103CB000C816D90608F453C0F601E81BF90BCF016A
:103CC000883C910508F450C0F12C7C2DD98AC88A13
:103CD00089890E94B51CE5ECF1E086E0DF011D92C8
:103CE0008A95E9F70E94F51CAFC0751314C0341310
:103CF00012C0611110C08091CA01F8018583C8010A
:103D00000E944D1C86E0E5ECF1E0DF011D928A95F2
:103D1000E9F7FE2C99C04D875E878D859E856A8B5D
:103D20000E94B01C6A89882309F4BECF662309F477
:103D3000BBCF2091CA01822F82958F7090E00297AD
:103D40000CF48ECF8091C5019091C6019A8389832E
:103D50001B82DD82CC822E83CE0101967FCF80959F
:103D600090958C0D9D1DACCFF62E662309F49CCF4B
:103D700075132EC034132CC02091CA0120FD1FC022
:103D8000822F82958F70D9F0D80115962C931597B4
:103D90008F3049F08F5F982F9295907F822F8F7090
:103DA000892B15968C93C8010E944D1C86E0F80162
:103DB000A5ECB1E001900D928A95E1F793CF86E0F2
:103DC000F801A5ECB1E001900D928A95E1F73CC0B5
:103DD0004D875E878D859E850E94B01C811140CFE6
:103DE0008091CA0181608093CA01C8010E944D1C64
:103DF0002BC0662309F458CF4D875E878D859E853D
:103E00000E94B01CF82E882309F44ECF86E0F801FA
:103E1000A5ECB1E001900D928A95E1F785EC91E077
:103E20000E9473180E94031D5DCF811139CF0CC011
:103E3000243031050CF038CF9F7009F431CFF801F0
:103E40009581907F09F02CCF8F2D62960FB6F89454
:103E5000DEBF0FBECDBFDF91CF911F910F91FF90BD
:103E6000EF90DF90CF9008951F93CF93DF93CDB75E
:103E7000DEB72C970FB6F894DEBF0FBECDBF4F83D1
:103E8000588769877A878B879C87CE0107960E941F
:103E90005E1D882369F08F8198852A853B85232BB9
:103EA000F1F19F3F09F063C08F3F09F060C037C058
:103EB00086E0FE013796DE01119601900D928A95FB
:103EC000E1F76F817885EA85FB85309741F17F3F87
:103ED00011F46F3F21F12091940130E0C901019666
:103EE000877099274091930150E08417950709F452
:103EF00047C069837A83FD83EC8396E0929FD0016B
:103F0000939FB00D1124AB56BE4FFE013196019028
:103F10000D929A95E1F7809394010E94D41C16E0CB
:103F200080919301909194018917C1F1189FC0016C
:103F300011248B569E4F0E945E1D882379F1E091DB
:103F400093011E9FF0011124EB56FE4F40815181D9
:103F500062817381848195810E94C41C8091930148
:103F600090E001968770992780939301D9CF4F8174
:103F7000588569857A858B859C850E94C41CCFCF26
:103F80000E948A1C1092940110929301E5ECF1E0DA
:103F900086E0DF011D928A95E9F7C1CF2C960FB616
:103FA000F894DEBF0FBECDBFDF91CF911F91089572
:103FB00008950C94D81F0E94D91F6093FC01709340
:103FC000FD018093FE019093FF010C94741C0895F1
:103FD0000C94DB1F0F931F930091FC011091FD01C6
:103FE0002091FE013091FF01602B712B822B932BCE
:103FF0001F910F910C94DB1F0F931F930091FC01F5
:104000001091FD012091FE013091FF016023712389
:10401000822393231F910F910C94DB1F0F931F9307
:104020000091FC011091FD012091FE013091FF01F2
:1040300060277127822793271F910F910C94DB1F14
:1040400008950C9420200E9421206093F801709321
:10405000F9018093FA019093FB010C94741C60E0C9
:1040600070E0CB010C9423200F931F9341E050E0AC
:1040700060E070E08A019B0104C0000F111F221F45
:10408000331F8A95D2F7C901B8011F910F910C9483
:1040900023200F931F9341E050E060E070E004C0E4
:1040A000440F551F661F771F8A95D2F78091F8013C
:1040B0009091F901A091FA01B091FB018A019B0155
:1040C000082B192B2A2B3B2BC901B8011F910F91EB
:1040D0000C9423200F931F9341E050E060E070E0C8
:1040E00004C0440F551F661F771F8A95D2F740956D
:1040F0005095609570958091F8019091F901A0918B
:10410000FA01B091FB018A019B01082319232A239C
:104110003B23C901B8011F910F910C9423200F93E9
:104120001F9341E050E060E070E004C0440F551F71
:10413000661F771F8A95D2F78091F8019091F90157
:10414000A091FA01B091FB018A019B010827192770
:104150002A273B27C901B8011F910F910C942320F6
:104160000F931F930091F8011091F9012091FA012A
:104170003091FB01602B712B822B932B1F910F91A0
:104180000C9423200F931F930091F8011091F901D3
:104190002091FA013091FB01602371238223932344
:1041A0001F910F910C9423200F931F930091F801FE
:1041B0001091F9012091FA013091FB0160277127DC
:1041C000822793271F910F910C94232008952EE0AE
:1041D000929F800D1124A82FA695A695A69587706D
:1041E00051E001C0550F8A95EAF785E0A89FD001FC
:1041F000112420E030E070E0F901EA0FFB1FE553E5
:10420000FE4F4081CB01022E02C0969587950A94FD
:10421000E2F78170992781958427852384278083FD
:104220002F5F3F4F2530310539F708952EE0929FDB
:10423000800D1124682F669566956695982F977066
:1042400085E0689FB001112440E050E080E0FA0171
:10425000E60FF71FE553FE4F208130E0092E02C024
:10426000369527950A94E2F721703327042E01C072
:10427000220F0A94EAF7822B4F5F5F4F45305105BA
:1042800031F70895BF92CF92DF92EF92FF920F9392
:104290001F93CF93DF938C01C090FC01D090FD0160
:1042A000E090FE01F090FF018091F8019091F901FA
:1042B000A091FA01B091FB01C82AD92AEA2AFB2A67
:1042C000CFE1D0E0D701C6010C2E04C0B695A7956A
:1042D000979587950A94D2F780FF07C0BC2EB80146
:1042E0008C2F0E942B0A019719F4219758F7B12CB3
:1042F0008B2DDF91CF911F910F91FF90EF90DF9069
:10430000CF90BF900895CF93DF93EC010E9442219C
:10431000BE010E942B0ADF91CF9108951F93CF9386
:10432000DF93EB0190919201992321F0CB010E9440
:10433000832113C0882349F0CB010E944221182F0A
:10434000682FCE010E94E72004C0CB010E941621F5
:10435000182FBE01812F0E942B0ADF91CF911F9150
:1043600008958091000285958595859508958091A1
:1043700000028770089590910002977081E009F41F
:1043800080E0089580910C02089590910C02892B91
:1043900080930C020895809590910C02892380935C
:1043A0000C02089510920C02089590910B02892B33
:1043B00080930B020895809590910B02892380933E
:1043C0000B02089510920B02089510920A020895AC
:1043D00080910102089508950C94EB2190910102BF
:1043E000981721F0809301020C94EC21089580919C
:1043F0000102882329F01092010280E00C94EC2144
:104400000895E0910F01F091100180910C028083DA
:10441000E0910F01F0911001908180910B02892BA6
:104420008083E0910F01F0911001908180910A0248
:10443000892B808380910102882381F0E0910F0114
:10444000F09110019081892B808380910F019091D0
:1044500010010E94292381110E94F72180910F01F0
:10446000909110010C94CA1608950C94342298E08F
:10447000899F90011124262B209300020E9449203D
:10448000809100028595859585950C943522109232
:10449000000280E00C943522209100028095822356
:1044A00080930002982F977079F430E0482F082EFF
:1044B000000C550B2417350739F0859585958595A2
:1044C0000E946A200C944722089590933F018093A4
:1044D0003E0108958295982F9C7C392F369536950C
:1044E000282F237344E0249FC0011124932F982B7D
:1044F000292F2A7A2695892F8575880F822B089572
:104500001F93CF93DF931F92CDB7DEB799830E949D
:104510006A22182F9981892F0E946A22212F30E068
:10452000322F2227A901482BCA010F90DF91CF918A
:104530001F91089580E090E00E94B23221E08D3E0C
:104540009E4F09F020E0822F089582E090E00C94C5
:10455000A432682F82E090E00C94B83283E090E0BF
:104560000C94A432682F83E090E00C94B83284E07D
:1045700090E00C94A432682F84E090E00C94B83260
:1045800086E090E00C94A432682F86E090E00C94D2
:10459000B832AB01BC018FE090E00C94CA32AB01A1
:1045A000BC0183E190E00C94CA3260E070E0CB0182
:1045B0000C94CF2260E070E0CB010E94C9220C94E1
:1045C000D5226DEE7EEF80E090E00E94D63260E072
:1045D00082E090E00E94B83260E083E090E00E94C8
:1045E000B8321092FC011092FD011092FE0110925F
:1045F000FF0160E084E090E00E94B83260E085E076
:1046000090E00E94B83260E086E090E00E94B8320C
:104610006FEF87E090E00E94B83240E050E0BA01CE
:1046200088E090E00E94CA3260E08DE090E00E9455
:10463000B83240E050E0BA0188E190E00E94CA320E
:1046400060E087E190E00E94B8320C94DA220C948A
:10465000E122FC01329697E080E0915029F021910F
:104660002223D9F38F5FF9CF08959C01FC01329684
:104670009FEF80E04191461789F09F3F19F4411167
:1046800001C0982F8F5F8630A9F79F3F39F0F9015D
:10469000E90FF11D97FDFA95628308950895FC01D5
:1046A000329608962081261301C010823196E817B1
:1046B000F907C1F708950C9435230C944F23029603
:1046C00026E0FC0111922A95E9F7089508950C94CB
:1046D00066230E94672380915702843061F1109213
:1046E0000E0220E488E190E00FB6F894A89580933C
:1046F00060000FBE2093600080E00E94BD0680E055
:104700000E9489070E94672383B7817F846083BFEB
:1047100083B7816083BF7894889583B78E7F83BF8A
:104720000FB6F894A895809160008861809360002E
:10473000109260000FBE089508950895CF930E94CF
:104740009C230E940A0D0E949D23C0E08C2F0E9492
:10475000A20D892B29F4CF5FC530C1F780E001C0DD
:1047600081E0CF91089508950C94B3230E948A1C90
:104770000E94EF250E94BE160E9489070C94B42364
:104780001F920F920FB60F9211248F939F93AF93A6
:10479000BF9380910E02811113C080914C029091C1
:1047A0004D02A0914E02B0914F024196A11DB11D44
:1047B00080934C0290934D02A0934E02B0934F020F
:1047C000BF91AF919F918F910F900FBE0F901F904F
:1047D000189582E084BD93E095BD9AEF97BD8093D4
:1047E0006E0008952FB7F89480914C0290914D027D
:1047F000A0914E02B0914F022FBF0895CF92DF9249
:10480000EF92FF920F931F932FB7F89440914C02B1
:1048100050914D0260914E0270914F022FBF6A017C
:104820007B01EE24FF248C0120E030E0C016D1068D
:10483000E206F30610F4415051099A01281B390B86
:10484000C9011F910F91FF90EF90DF90CF900895D5
:1048500078941F920F920FB60F9211248F939F930B
:10486000AF93BF9380914C0290914D02A0914E0264
:10487000B0914F020196A11DB11D80934C029093FF
:104880004D02A0934E02B0934F02BF91AF919F9102
:104890008F910F900FBE0F901F90189581E080931D
:1048A000E00080E28093D8001092C9008FE19EE47E
:1048B0000197F1F700C0000087E090EBDC018093E6
:1048C000600290936102A0936202B09363029CE045
:1048D00088E10FB6F894A895809360000FBE90937E
:1048E0006000FFCFAF92BF92CF92DF92EF92FF9224
:1048F0000F931F93CF93C0E0CC24C394D12CE82E08
:10490000F12C8C2F0E94A20D5C0100E010E09601BA
:10491000002E02C0220F331F0A94E2F72A213B2106
:10492000232B31F40F5F1F4F0E30110581F70AC0A2
:10493000602F7C2F80E00E94110AE816F90691F79B
:1049400081E004C0CF5FC530E1F680E0CF911F91D8
:104950000F91FF90EF90DF90CF90BF90AF900895B0
:10496000CF93C82F8CE20E947224882321F08C2FD1
:10497000CF910C94722480E0CF910895CF930E9440
:104980009A22811102C00E94272388E998E00E94A0
:104990009305C5E6C15049F00E940A0D8FE39CE9DA
:1049A0000197F1F700C00000F5CF81E998E00E947F
:1049B000930589E20E94B02481110FC18AE20E940E
:1049C000B02481110E94272385E00E94B024811128
:1049D0000E944E240E94A52280930D0287E00E942F
:1049E000B0248823A9F18BE10E94B024882351F0E0
:1049F00080910D0281FB222720F991E0922790FB04
:104A000081F90EC08EE00E94B024882361F080916D
:104A10000D0282FB222720F991E0922790FB82F978
:104A200080930D0215C080E10E94B02490910D0288
:104A3000882341F093FB222720F981E0822780FB25
:104A400093F904C0892F809580FB90F990930D0213
:104A500080910D020E94A9220E94B72290E09093BB
:104A600051028093500280EE0E94B024882341F0CE
:104A700080915002982F909590FB80F9809350027E
:104A800089E30E94B024882359F08091500281FB71
:104A9000222720F991E0922790FB81F98093500220
:104AA00082EE0E94B024882359F08091500282FB4C
:104AB000222720F991E0922790FB82F980935002FF
:104AC00086EE0E94B024882359F08091500283FB27
:104AD000222720F991E0922790FB83F980935002DE
:104AE00083EE0E94B024882359F08091500284FB09
:104AF000222720F991E0922790FB84F980935002BD
:104B000085E30E94B024882359F08091500285FBF0
:104B1000222720F991E0922790FB85F9809350029B
:104B200081E30E94B024882359F08091500286FBD3
:104B3000222720F991E0922790FB86F9809350027A
:104B400081E10E94B024882359F08091500287FBB4
:104B5000222720F991E0922790FB87F98093500259
:104B6000809150020E94BB2287E20E94B024C82F8D
:104B70008EE10E94B0248111C2608FE10E94B024B6
:104B80008111C46080E20E94B0248111C86081E27A
:104B90000E94B0248111C06182E20E94B024811180
:104BA000C06283E20E94B0248111C06484E20E944A
:104BB000B024882311F0C06802C0CC2329F08C2FC8
:104BC0000E94B2226C2F03C00E94AE22682F70E0B8
:104BD00080E090E0CF910C94E81FCF9108950E945F
:104BE0009A22811102C00E9427230E94C022809332
:104BF0005202282F269530E02430310524F08170B0
:104C00008660809352028091520280FF02C0869596
:104C100001C080E00C94BD0620915202822F86953F
:104C2000482F50E04330510544F48F5F982F990F7F
:104C3000822F8170892B8093520280915202816071
:104C4000809352020E94C42280910D0280FF0FC007
:104C50008091520286951F928F9384E199E09F93F1
:104C60008F930E942C060F900F900F900F908091C1
:104C7000520286950C94BD0680915202982F96950B
:104C800091F09158990F8170892B809352028E7FF9
:104C900091E009F490E08091520290FB80F98093BA
:104CA00052020E94C42280910D0280FF0FC08091A9
:104CB000520286951F928F938CEF98E09F938F936B
:104CC0000E942C060F900F900F900F90809152022F
:104CD00086950C94BD068091520280FD1DC08160B6
:104CE00080935202813019F483E0809352028091C4
:104CF00052020E94C42280910D0280FF08C084ED00
:104D000098E09F938F930E942C060F900F908091B4
:104D1000520286950C94BD0608958091520280FF40
:104D200014C08E7F809352020E94C42280910D0293
:104D300080FF08C081EC98E09F938F930E942C061F
:104D40000F900F9080E00C94BD060895CF93C09112
:104D50005202C17080910D0280FF0CC01F92CF9350
:104D600086EE98E09F938F930E942C060F900F90F1
:104D70000F900F90CC2319F0CF910C948D26CF91EA
:104D80000C946B2690915202892F86958F5F8F77B6
:104D90009170843028F4880F892B8093520202C0CE
:104DA00090935202809152028E7F91E009F490E03C
:104DB0008091520290FB80F9809352020E94C4229B
:104DC00080910D0280FF0FC08091520286951F9244
:104DD0008F938DEA98E09F938F930E942C060F90FB
:104DE0000F900F900F908091520286950C94BD0603
:104DF000843008F083E0880F909152029170892BE3
:104E0000809352028E7F91E009F490E080915202EB
:104E100090FB80F9809352020E94C422809152023A
:104E200086950C94BD0680915202869508958091D6
:104E30001A02089508959FB7F894109211029FBF27
:104E400090915702943009F057C09091E9009F70FB
:104E50003091EC00232F217030FD20E8922B23E0CD
:104E60002093E9002091EB0020FF43C02091EE0049
:104E700027FF3FC020910F02222321F02091E8005C
:104E800025FF37C010920F0226E03091E80035FD73
:104E900015C030915702343061F53091EB0035FD8B
:104EA00028C0215021F481E080930F0222C0EFE955
:104EB000FFE03197F1F700C00000E7CF8093F100E9
:104EC0008091E80085FD0AC08091E80080FFFCCF5A
:104ED0008091E8008E778093E80006C08FB7F89441
:104EE00021E0209311028FBF9F709093E90080E032
:104EF00008959F709093E9008FEF08950F931F938B
:104F0000CF93DF9300D01F92CDB7DEB78C010E9404
:104F1000102A823011F0843021F584E089831B83CC
:104F20000A8382E08093E9008FEF9091E80081503E
:104F300095FD06C095ED9A95F1F700008111F5CF2A
:104F40008091E80085FF0DC040E050E063E070E034
:104F5000CE0101960E942D2A8091E8008E778093E1
:104F6000E8000F900F900F90DF91CF911F910F915C
:104F70000895CF93DF9300D01F92CDB7DEB7209175
:104F80005702243031F523E02983805891099B830F
:104F90008A8382E08093E9008FEF9091E80081504E
:104FA00095FD06C095ED9A95F1F700008111F5CFBA
:104FB0008091E80085FF0DC040E050E063E070E0C4
:104FC000CE0101960E942D2A8091E8008E77809371
:104FD000E8000F900F900F90DF91CF910895CF933D
:104FE000DF93EC010E94102A823011F0843039F5F1
:104FF00081E08093E9008FEF9091E800815095FD6A
:1050000006C095ED9A95F1F700008111F5CF8091DA
:10501000E80085FF14C040E050E068E070E0CE0199
:105020000E942D2A8091E8008E778093E80088E026
:10503000FE01A2E1B2E001900D928A95E1F7DF91C5
:10504000CF91089581E599E00E94930580915602E1
:10505000811109C00E94C22B0E941F2C8091E20086
:1050600084608093E20008958DE499E00E949305A6
:1050700010925602089589E499E00C94930585E412
:1050800099E00C94930581E499E00E9493050C94B7
:10509000B623209110022F5F822F62E30E942132FB
:1050A000992319F020931002089510921002809114
:1050B0001102882371F180915702843041F580916B
:1050C000E9008F702091EC00922F917020FD90E804
:1050D000892B93E09093E9009091EB0090FF14C02E
:1050E0009091EE0097FF10C09091E80095FF03C0EB
:1050F0001092F100F9CF9091E80090FF05C09091D7
:10510000E8009E779093E8008F708093E9001092FA
:105110001102089542E061EC81E00E943C2B42E2E2
:1051200061EC82E00E943C2B42E261EC83E00C9453
:105130003C2B80915902833009F460C030F48130F7
:1051400071F0823009F499C008958A3009F485C05D
:105150008B3009F46BC0893009F0A7C020C0809162
:105160005802813A09F0A1C08091E800877F8093BE
:10517000E80080915C0290915D02892B21F468E047
:1051800082E192E003C060E080E090E070E00E9485
:10519000782A8091E8008B778093E80008958091C9
:1051A0005802813209F081C080915C0290915D02C9
:1051B000029708F07AC08091E800877F8093E8002A
:1051C0008091E80082FD05C0809157028111F8CFDF
:1051D0006CC02091F3008091F20090E0922B029736
:1051E00029F48091F1008B7F813021F48091F100CE
:1051F00080931A028091E8008B7753C08091580207
:10520000813A09F052C080915C0290915D02892B35
:1052100009F04BC08091E800877F8093E80080917F
:10522000E80080FFFCCF80911B0136C080915802BE
:105230008132D9F580915C0290915D02892BA9F5AC
:105240008091E800877F8093E8000E94712B809115
:105250005A0280931B010C948A1C8091580281325F
:1052600021F58091E800877F8093E8000E94712BF0
:1052700080915B0280931B02089580915802813ACD
:10528000A1F48091E800877F8093E8008091E80096
:1052900080FFFCCF80911B028093F1008091E80099
:1052A0008E778093E8000C94712B089584B7877FE4
:1052B00084BF0FB6F894A8958091600088618093B0
:1052C0006000109260000FBE80E880936100109231
:1052D00061000E944D170E94C22B0E941F2C8091DA
:1052E000E20084608093E2008BE197E20E946522F5
:1052F00078940E94AD2E0E94551781E191E00E94A2
:10530000B91680E399E00E94930580915702853099
:1053100089F48CE299E00E9493050E9469238091B0
:105320005502882391F30E949E23882371F30E94E3
:10533000172AEBCF0E9489170E944416E6CF0C94DF
:10534000A129292F332723303105C9F064F42130F6
:10535000310581F02230310509F049C08BE590E03C
:1053600027E739E048C02132310521F122323105E9
:1053700071F13DC082E190E022ED39E03CC0992717
:105380008130910571F02CF4892B89F5E3E7F9E080
:105390000DC08230910541F0039749F5E5E5F9E04C
:1053A00005C0E9E6F9E002C0EBE5F9E0849190E0A0
:1053B0009F0121C063307105D0F4660F771FFB0198
:1053C000E85CFE4F2081318189E090E014C06330B9
:1053D000710568F4FB01EE0FFF1FEE5CFE4F2081AC
:1053E0003181FB01E15DFE4F808190E004C080E0EF
:1053F00090E020E030E0FA013183208308950895A1
:10540000CF93C82F0E94FF29C0931C02CF9108950B
:1054100080915702843011F081E0089582E0089570
:1054200080911C02811102C00C94082A089580E129
:1054300089BD82E189BD09B400FEFDCF8091D8000D
:105440008F7D8093D8008091E00082608093E0009F
:105450008091E00081FDFCCF0895CF92DF92EF9222
:10546000FF920F931F93CF93DF93EC018B016A019F
:105470000E94902B811133C0C114D10439F0F60180
:1054800080819181081B190BC80FD91FE12CF12CC9
:105490000115110519F18091E80085FD16C0809174
:1054A000E8008E778093E800C114D10449F0F6013A
:1054B00080819181E80EF91EF182E08285E00FC0C3
:1054C0000E94902B882321F30AC089918093F100D8
:1054D00001501109FFEFEF1AFF0ADACF80E0DF91E8
:1054E000CF911F910F91FF90EF90DF90CF90089593
:1054F00020915E0230915F022617370748F0611550
:10550000710539F42091E8002E772093E80001C05E
:10551000B90140E061157105A9F1209157022223DC
:1055200009F443C0253009F442C02091E80023FD6E
:1055300040C02091E80022FD32C02091E80020FF09
:10554000E9CF4091F3002091F20030E0342BFC01D0
:10555000CF016115710559F02830310540F4819172
:105560008093F100615071092F5F3F4FF1CF41E00F
:105570002830310509F040E02091E8002E77209393
:10558000E800C8CF4111C9CF0AC0809157028823D3
:1055900061F0853061F08091E80083FD0AC0809160
:1055A000E80082FFF2CF80E0089582E0089583E072
:1055B000089581E0089520915E0230915F022617E0
:1055C000370748F06115710539F42091E8002E770E
:1055D0002093E80001C0B901FC0120E061157105CC
:1055E00091F180915702882309F440C0853009F475
:1055F0003FC08091E80083FD3DC08091E80082FDBE
:105600002FC08091E80080FFE9CF2091F3008091C6
:10561000F20090E0922B6115710559F088309105E8
:1056200040F424912093F100319661507109019664
:10563000F2CF21E0089709F020E08091E8008E7712
:105640008093E800CBCF2111CCCF0AC080915702C4
:10565000882361F0853061F08091E80083FD0AC005
:105660008091E80082FFF2CF80E0089582E0089503
:1056700083E0089581E00895982F973058F590932E
:10568000E900981739F07091EC002091ED005091ED
:10569000F00003C0242F762F50E021FF19C0309175
:1056A000EB003E7F3093EB003091ED003D7F309377
:1056B000ED003091EB0031603093EB007093EC0023
:1056C0002093ED005093F0002091EE0027FF07C0DB
:1056D0009F5FD3CF8F708093E90081E0089580E0D1
:1056E00008958091580287FF11C08091E80082FDE3
:1056F00005C0809157028111F8CF11C08091E80058
:105700008B770BC080915702882349F08091E80085
:1057100080FFF8CF8091E8008E778093E8000895AD
:105720002091E4003091E50095E64091EC00842F53
:10573000817040FF22C08091E80080FD1CC08091F4
:105740005702882391F0853091F08091EB0085FD20
:1057500010C04091E4005091E5004217530729F32F
:105760009A01915011F784E0089582E0089583E052
:10577000089581E0089580E008954091E80042FF97
:10578000DECF08950E94302C0E94382CE0EEF0E02D
:10579000808181608083E8EDF0E080818F77808375
:1057A00019BCA7EDB0E08C918E7F8C9380818F7EA9
:1057B00080831092560208950F931F93CF93DF9327
:1057C0000E94302C0E94382CC8EDD0E088818F7761
:1057D000888388818068888388818F7D888319BCCD
:1057E00010925702109253021092550210925402D6
:1057F00000EE10E0F80180818B7F808388818160DA
:10580000888342E060E080E00E943C2BE1EEF0E023
:1058100080818E7F8083E2EEF0E0808181608083F2
:10582000808188608083F80180818E7F8083888179
:1058300080618883DF91CF911F910F910895E8EDEA
:10584000F0E080818F7E8083E7EDF0E080818160F1
:10585000808384E082BF81E0809356020C94DC2B2D
:10586000E8EDF0E080818E7F80831092E200089561
:105870001092DA001092E10008951F920F920FB675
:105880000F9211242F933F934F935F936F937F93C6
:105890008F939F93AF93BF93EF93FF938091E1001A
:1058A00082FF0BC08091E20082FF07C08091E1007F
:1058B0008B7F8093E1000E9449288091DA0080FF6D
:1058C0001FC08091D80080FF1BC08091DA008E7FBE
:1058D0008093DA008091D90080FF0DC080E189BDFE
:1058E00082E189BD09B400FEFDCF81E080935702BB
:1058F0000E94222805C019BC109257020E94342829
:105900008091E10080FF19C08091E20080FF15C006
:105910008091E2008E7F8093E2008091E2008061BE
:105920008093E2008091D80080628093D80019BCF7
:1059300085E0809357020E943F288091E10084FF18
:1059400030C08091E20084FF2CC080E189BD82E1FB
:1059500089BD09B400FEFDCF8091D8008F7D809372
:10596000D8008091E1008F7E8093E1008091E20079
:105970008F7E8093E2008091E20081608093E2005C
:1059800080915302882311F084E007C08091E300E6
:1059900087FD02C081E001C083E0809357020E942E
:1059A00043288091E10083FF29C08091E20083FFBA
:1059B00025C08091E100877F8093E10082E08093A1
:1059C0005702109253028091E1008E7F8093E10094
:1059D0008091E2008E7F8093E2008091E2008061FE
:1059E0008093E20042E060E080E00E943C2B8091E6
:1059F000F00088608093F0000E943B28FF91EF91B7
:105A0000BF91AF919F918F917F916F915F914F91D6
:105A10003F912F910F900FBE0F901F9018951F92DE
:105A20000F920FB60F9211242F933F934F935F93D2
:105A30006F937F938F939F93AF93BF93CF93DF9396
:105A4000EF93FF93C091E900CF708091EC00D82FC5
:105A5000D17080FDD0E81092E9008091F000877F3E
:105A60008093F00078940E94532D1092E900809169
:105A7000F00088608093F000CD2BCF70C093E900D8
:105A8000FF91EF91DF91CF91BF91AF919F918F9156
:105A90007F916F915F914F913F912F910F900FBE2A
:105AA0000F901F9018951F93CF93DF93CDB7DEB75C
:105AB000AA970FB6F894DEBF0FBECDBFE8E5F2E0BF
:105AC00088E08E0F9091F10091938E13FBCF0E948E
:105AD00099288091E80083FF28C180915802909115
