:100000000C94EF020C9436030C9436030C943603D4
:100010000C9436030C9436030C9436030C9436037C
:100020000C9436030C9436030C94AD280C947F2961
:100030000C94141F0C9436030C9436030C94360362
:100040000C9436030C9436030C9436030C9436034C
:100050000C9436030C947C1F0C9436030C943603DA
:100060000C9436030C9436030C9436030C9436032C
:100070000C9436030C9436030C9436030C9436031C
:100080000C9436030C9436030C9436030C9436030C
:100090000C9436030C9436030C9436030C943603FC
:1000A0000C9436030C9436030C9436039A059C0585
:1000B000A7059E05A005A205A405A605A905AB05F3
:1000C000AD05B805AF05B105B305B505B705BA056A
:1000D00095149514C714C71405152515BA16BA1624
:1000E0006715BA161416141686168F16BA16B31696
:1000F0002116211621162116211621162116211648
:100100002116211621162116211621162116211637
:100110003216401647164E165816491749175B17E0
:100120005B1752175B175B175B1749174917571770
:100130005B175B175717EC29132A052B132A052B7E
:100140005F2A822A052BD82AE72A07634236B79B03
:10015000D8A71A39685618AEBAAB558C1D3CB7CC27
:100160005763BD6DEDFD753EF6177231BF0000009F
:10017000803F05A84CCDB2D44EB93836A9020C50F8
:10018000B9918688083CA6AAAA2ABE000000803F32
:10019000165C1E001F002000210022002300240006
:1001A0002500260027002D002E0000002A002B002D
:1001B00014001A000800150017001C0018000C009D
:1001C000120013002F00300031000000015804001D
:1001D0001600070009000A000B000D000E000F00BA
:1001E00033003400000028000000E10000001D0082
:1001F0001B00060019000500110010003600370032
:1002000038000000E5000000E000E200E30000002C
:10021000000000002C00000000000000E700015179
:1002200002526D00000035003A003B003C003D00EA
:100230003E003F00400041004200430044004500B2
:1002400000002A002B00AC00AE00AB000000000054
:1002500000004B0052004E000000000000000000B3
:1002600000000100A800AA00A900000000004A0048
:10027000500051004F000000000000002800000066
:10028000E1000000000000000000000000004D0040
:1002900000000000000000000000E5000000E00099
:1002A000E200E3000000000000002C00000000005D
:1002B0000000E300010000000000000029001E0013
:1002C0001F0020002100220023002400250026001A
:1002D00027002D002E0000002A002B0014001A0019
:1002E0000800150017001C0018000C001200130075
:1002F0002F003000310000000158040016000700F4
:1003000009000A000B000D000E000F00330034003E
:10031000000028000000E10000001D001B00060096
:1003200019000500110010003600370038000000E9
:10033000E5000000E000E300E20000000000000033
:100340002C00000000000000E60001510052E40013
:10035000000000047F3F1F643214643214783C1E96
:100360001E140A056801F000B40078005A0000006D
:10037000000000010101010101010101020202026C
:10038000020202020203030303030303030404043F
:100390000404040505050505060606060607070705
:1003A00007080808080909090A0A0A0A0B0B0B0CB6
:1003B0000C0C0D0D0D0E0E0F0F0F10101111111250
:1003C0001213131414151516161717181819191ACD
:1003D0001A1B1C1C1D1D1E1F1F202021222223242E
:1003E000252526272728292A2B2B2C2D2E2F2F3069
:1003F000313233343536363738393A3B3C3D3E3F7F
:100400004041424344464748494A4B4C4D4F505166
:100410005253555657585A5B5C5E5F606263646620
:1004200067696A6C6D6E707173747678797B7C7EA7
:100430008081838486888A8B8D8F91929496989AF6
:100440009B9D9FA1A3A5A7A9ABADAFB1B3B5B7B90C
:10045000BBBDBFC1C4C6C8CACCCFD1D3D6D8DADCE5
:10046000DFE1E4E6E8EBEDF0F2F5F7FAFCFF040378
:10047000300000000A034F004B003600300000003F
:100480000A034F004B00360030000000040309044B
:1004900009023B00020100A0FA0904000001030167
:1004A0000100092111010001224000070581030814
:1004B000000A0904010001030000000921110100E4
:1004C0000122C0000705820320000A12011001006A
:1004D000000008EDFE606001000102030105010952
:1004E00002A10185020901A10005091901290515CB
:1004F00000250195057501810295017503810105AE
:1005000001093009311581257F9502750881060999
:10051000381581257F950175088106050C0A38027A
:100520001581257F950175088106C0C005010980E8
:10053000A10185031601002603001A81002A830009
:10054000751095018100C0050C0901A101850416F3
:100550000100269C021A01002A9C02751095018157
:1005600000C005010906A1018505050719E029E775
:100570001500250195087501810205081901290555
:100580009505750191029501750391010507190003
:1005900029EF1500250195F075018102C0050109BB
:1005A00006A101050719E029E71500250195087541
:1005B0000181029501750881010508190129059538
:1005C000057501910295017503910105071900292F
:1005D000FF150026FF00950675088100C000112454
:1005E0001FBECFEFDAE0DEBFCDBF04B603FE27C0EB
:1005F0008091850290918602A0918702B091880235
:100600008730904BA740B04BD1F4109285021092E6
:100610008602109287021092880214BE84B7877FE8
:1006200084BF0FB6F894A89580916000886180938C
:100630006000109260000FBEE0E0F8E3099511E061
:10064000A0E0B1E0E6EAFEE502C005900D92A63317
:10065000B107D9F722E0A6E3B1E001C01D92A538A9
:10066000B207E1F70E94CF250C94512F0C940000A3
:1006700081E0089581E008950C943A031F93CF938D
:10068000DF9300D000D01F92CDB7DEB749835A83E5
:100690002091850189819A81211112C0662349F038
:1006A0000E946E1C182F682F89819A810E94131C4A
:1006B00003C00E94421C182F69817A81812F04C0D7
:1006C0000E946E1C69817A810F900F900F900F909D
:1006D0000F90DF91CF911F910C946C06FC0140812B
:1006E00051816281738184810C943E030C941D09B5
:1006F000CF92DF92EF92FF92863030F4811105C0E5
:1007000090918000977F04C085E090918000986070
:1007100090938000282F30E0AFEFBFEF0E94E22ED1
:1007200025E030E040E050E00E94BA2E2C3784E112
:1007300038074105510530F4C90169E070E00E94B5
:10074000922E29C0DA01C9018A50974DAF4FBF4F91
:100750006627782F892F9A2F25EF38E241E050E065
:100760000E94BA2E69017A01CA01B9010E94822E43
:100770009B01AC01C701B6010E94822EBB27A92FA5
:10078000982F872F009721E0A207B10511F0BC0137
:1007900002C06FEF7FEF70938D0060938C00FF902D
:1007A000EF90DF90CF900895279A2F988AE080935A
:1007B000800089E1809381008FEF9FEF9093870005
:1007C000809386000C944F230E949E1D811102C0CD
:1007D0000E942B1E0E94D4030C941A0908950C94B5
:1007E000EE030C94EF0308950E9439170E94F3035F
:1007F0002FEF84E39CE0215080409040E1F700C05F
:1008000000000C94A21F0F931F93CF93DF938C01D2
:100810000E946E03EC01B8010E943C03882309F496
:1008200051C2CC3C8CE5D80709F4E1C0E8F5C43CE2
:10083000ECE5DE0709F4A5C0F8F4C5318CE5D8076E
:1008400078F4C2309CE5D90708F052C1C115ECE537
:10085000DE0709F467C0C130DC4509F46BC026C26D
:10086000C23C8CE5D80709F478C008F07EC0C631D8
:10087000DC4509F4F4C11AC2F8018281C83CFCE5E8
:10088000DF0709F49CC040F4C63CECE5DE0709F440
:100890008AC008F482C08DC0CA3C9CE5D90709F41F
:1008A0009AC008F492C09DC0C43DFCE5DF0709F47E
:1008B000F8C0C0F4F8018281C03DFCE5DF0709F40F
:1008C000BFC040F4CE3CECE5DE0709F49DC008F45F
:1008D00096C0A8C0C23D9CE5D90709F4CFC008F472
:1008E000BFC0DAC0C93DFCE5DF0709F49DC160F473
:1008F000C73D9CE5D90709F44DC108F06EC1C53D5F
:10090000DC4509F4DEC0D2C1CD3D8CE5D80709F441
:10091000E6C0CE3D9CE5D907C1F0CC3DDC4509F0F1
:10092000C5C1D6C0F8018281882309F4CBC10E94D9
:10093000F403C8C1F8018281882309F4C3C18091FE
:100940001D02816080931D02BDC1F8018281882350
:1009500009F4B8C10E942B1EB5C1F8018281882319
:1009600009F4B0C10E94E30DADC1F8018281882372
:1009700009F4A8C10E94EE1C827261F00E947F0DF2
:10098000A1C1F8018281882309F49CC10E94EE1C58
:100990008272A1F30E94710D95C1882309F492C15E
:1009A0000E94740C8FC1882309F48CC10E94980C9A
:1009B00089C1882309F486C10E94B80C83C18823A9
:1009C00009F480C10E94D80C7DC1882309F47AC142
:1009D0000E94F80C77C1882309F474C10E94180D95
:1009E00071C1882309F46EC10E94290B6BC1F80103
:1009F0008281882309F466C10E943E0B63C188236B
:100A000009F460C181E029C0882309F45BC10E9418
:100A1000200B823028F00E94200B853008F4BACFDA
:100A200082E01BC0882309F44DC10E94200B863050
:100A300028F00E94200B883008F4ACCF86E00DC06F
:100A4000882309F43FC10E94200B893028F00E94BE
:100A5000200B8E3008F49ECF89E00E94820D32C1B7
:100A6000882309F42FC10E94200B8F3028F00E94A8
:100A7000200B843108F48ECF8FE0EFCF882309F468
:100A800021C10E94200B853128F00E94200B873164
:100A900008F480CF85E1E1CF882309F413C188E110
:100AA000DCCFF8018281882309F40CC10E94200B5D
:100AB000893128F00E94200B823208F46BCF89E143
:100AC000CCCFF8018281882309F4FCC083E2C5CF32
:100AD000F8018281882309F4F5C080E006C0F8019E
:100AE0008281882309F4EEC082E00E947026EAC069
:100AF000F8018281882309F4DEC00E949E1D8111C5
:100B000002C00E942B1E0E94BB1D90E090937602B3
:100B100080937502FE01E350FC45E231F10530F4AB
:100B2000EA5AFF4F809175020C94DC2E8091750279
:100B3000816027C0826025C0846023C0806121C09D
:100B400080621FC080641DC080681BC08460886094
:100B500018C08E7F16C08D7F14C08B7F12C08F7E11
:100B600010C08F7D0EC08F7B0CC08F770AC08B7F2B
:100B7000877F07C087FB222720F991E0922790FB0F
:100B800087F980937502809175020E94BF1D0E94B3
:100B9000391798C0F8018281882351F010923B01E7
:100BA0000E94461F909338018093370182E022C053
:100BB00080913B0181110FC08091370190913801E4
:100BC0000E94521F883C910530F486E20E94CB12AD
:100BD00086E20E94E91382E024C0F8018281882322
:100BE00061F010923C010E94461F90933A0180935D
:100BF000390180E20E94511465C080913C0181114D
:100C00000FC08091390190913A010E94521F883C97
:100C1000910530F487E20E94CB1287E20E94E9132B
:100C200080E20E9458144EC0F80182818111D9CF10
:100C300080913C018111F4CF8091390190913A016A
:100C40000E94521F883C910558F780E20E94581478
:100C500088E20E94CB1288E20E94E91333C00E940E
:100C6000EE1C282FF801828140910E0150910F0156
:100C7000882379F02A7A91E009F490E09093360184
:100C8000911102C069E201C065E3CA010E94921E8F
:100C90000AC080913601811102C069E201C065E39A
:100CA000CA010E949D1E0E943A1D0CC081E08093E3
:100CB0003B0180933C01C801DF91CF911F910F91BF
:100CC0000C94380380E0DF91CF911F910F9108952C
:100CD00080E090E0089508959FE0799FF00111244D
:100CE0009BE4899FE00DF11D1124E60FF11DEE0F2D
:100CF000FF1FE057FE4F859194910895880F991F2B
:100D0000FC01EE5AFC4F859194910895CF93DF93A7
:100D10000E946C060E947908EC01811521E592077A
:100D200008F042C0811560E5960708F031C1883EA1
:100D3000910500F5803E910508F0D7C1883A9105EC
:100D400070F4853A910508F0A6C08130910509F448
:100D5000CCC108F47DC1049708F0C7C179C18F3BAD
:100D6000910508F4A3C0803C910508F471C1805C32
:100D70009109FDC0C11580E3D80780F4C11590E248
:100D8000D90708F0F2C0C03FD10508F461C1CF3FD8
:100D9000D10511F008F0A9C1D065A7C1C11520E4A3
:100DA000D20708F0F2C0E7C0811569E5960760F543
:100DB000C11588E5D80708F037C1C11594E5D907F2
:100DC00078F4C11523E5D20708F013C1C11562E517
:100DD000D60708F0F8C0DC2FCC27C16FD06A85C1D8
:100DE000C11585E5D80708F41AC1C11596E5D907DC
:100DF00008F02EC18C2F0E94F6088F71C82FD0E00A
:100E0000DC2FCC27D06271C18D3B2CE5920709F411
:100E100016C1F0F4CB3B8CE5D80709F40AC108F001
:100E20000BC1C1152AE5D20708F012C18C2F8F70B3
:100E30000E94F60894E0D695C7959A95E1F7CF7091
:100E4000D0E0DC2FCC27D06A8F70806EC82B4DC1CC
:100E5000803C9C4509F4F9C0C13C8CE5D80760F49E
:100E6000CE3B9CE5D90709F4EDC0CF3BDC4509F04A
:100E7000EFC0C0E0D2ED39C1CE019056811590424D
:100E800008F0E6C08D2F8F710E94F608DD27D06232
:100E90008F71D82B2AC1853A910509F4DCC0863AB6
:100EA000910509F0DBC0C2E8D0E41FC1883A910582
:100EB00009F4D7C0893A910509F4D6C08A3A910558
:100EC00009F4D5C08B3A910509F4D4C08C3A910548
:100ED00009F4D3C08B3B910509F4D2C08C3B91053A
:100EE00009F4D1C08D3A910509F4D0C0803B910539
:100EF00009F4CFC08E3A910509F4CEC08F3A91051E
:100F000009F4CDC0813B910509F4CCC0823B910529
:100F100009F4CBC0833B910509F4CAC0843B910519
:100F200009F4C9C0853B910509F4C8C0863B910509
:100F300009F4C7C0873B910509F4C6C0883B9105F9
:100F400009F4C5C0893B910509F4C4C08D3B9105E6
:100F500009F4C3C08E3B910509F4C2C08A3B9105D8
:100F600009F4C1C0C0E0D4E4C0C0CE019F700E94AB
:100F70007E06EC01BAC0CE019927D3FF03C0EC0175
:100F8000D86CB3C0EC01D06CB0C0DF70D06AADC01B
:100F9000837021E030E002C0220F331F8A95E2F710
:100FA0003C68CE0174E0969587957A95E1F7837059
:100FB000382BCF70C695C69580E2C89FE0011124FA
:100FC000C22BD32B92C04C2F4695469590E2499F59
:100FD000A0011124C370DD2721E030E0C90102C067
:100FE000880F991FCA95E2F7EC01C42BD52BDC685A
:100FF0007CC04C2F4695469580E2489FA001112465
:10100000C370DD2721E030E0C90102C0880F991FBD
:10101000CA95E2F7EC01C42BD52BDA6866C0DC2F49
:10102000CC27C46FD06A61C0DC2FCC27C06FD06AD8
:101030005CC0C0E0D4ED59C0C0E0D5ED56C0C0E002
:10104000D1ED53C0C0E0D0ED50C0C0E0D3ED4DC0F5
:10105000C0E0D0E04AC0C1E8D0E447C0C3E8D0E473
:1010600044C0C2EED4E441C0C9EED4E43EC0CAEEEE
:10107000D4E43BC0C5EBD4E438C0C6EBD4E435C0FF
:10108000C3EBD4E432C0C4EBD4E42FC0C7EBD4E448
:101090002CC0CCECD4E429C0CDECD4E426C0C3E809
:1010A000D5E423C0CAE8D5E420C0C2E9D5E41DC018
:1010B000C4E9D5E41AC0C1E2D6E417C0C3E2D6E45D
:1010C00014C0C4E2D6E411C0C5E2D6E40EC0C6E244
:1010D000D6E40BC0C7E2D6E408C0CFE6D4E405C02E
:1010E000C0E7D4E402C0CAE2D6E4CE01DF91CF91DA
:1010F00008958238910549F1B0F48133910509F4DE
:1011000058C048F48932910509F44EC08A329105DD
:1011100009F454C008958533910509F440C089331A
:10112000910599F00895833E910529F138F4803EA8
:10113000910591F0823E9105A1F00895863E9105BA
:10114000F9F0873E910531F108952091750220FD57
:101150003AC021FD38C008958091750280FD35C0E8
:1011600032C08091750282FF32C08091750284FD89
:1011700030C083EE39C08091750282FD28C0F5CF62
:101180008091750283FF27C08091750284FD21C084
:1011900087EE2AC08091750283FD1DC0F5CF809136
:1011A000750285FD1AC01BC08091750285FD17C0B0
:1011B00014C08091750286FD14C015C0809175021F
:1011C00086FD11C00EC080EE0FC089E30DC082EE17
:1011D0000BC080E009C086EE07C089E205C085E348
:1011E00003C08AE201C081E390E008959091750206
:1011F00092FF0DC0282F2871283019F4877F846052
:1012000006C0282F2471243011F48B7F886093FF4F
:101210000DC0282F2871283119F4877E846106C0FB
:10122000282F2471243111F48B7E886194FD877EF0
:10123000089508950C94190908950C941C09E0E38D
:10124000F1E041E050E025E02E0F9191A92FA29509
:10125000AF70B0E091963C9191979F70BA0102C037
:10126000660F771F9A95E2F7CB01809583239196BD
:101270008C932E13EACFA1E2B1E041E050E02FE0E1
:101280002A0F8D91E82FE295EF70F0E031A18F7079
:10129000BA0102C0660F771F8A95E2F7CB01962F3D
:1012A0009095932391A392A1892B82A32A13E9CF2E
:1012B000E7E4F1E0ADE3B1E0119211921D921D92CD
:1012C00071E0E135F707C1F785E00E940B0A0C9445
:1012D000E4034F925F927F928F929F92AF92BF9260
:1012E000CF92DF92EF92FF920F931F93CF93DF93F2
:1012F00020E3422E21E0522EA7E4B1E020E001E0FD
:1013000010E05D018D909C90119711961C921E9299
:10131000E20189912E01E82FE295EF70F0E031A112
:101320008F70A80102C0440F551F8A95E2F7CA01C9
:10133000342B31A342A1382F3095432342A350EAE6
:101340005A95F1F791E2C92E91E0D92E40E050E094
:10135000E60179906E01672D62956F7070E0EB0188
:10136000E8A06D917C911197F12CD72DDF7002C010
:10137000F594E794DA95E2F7E0FC08C07801042ED2
:1013800002C0EE0CFF1C0A94E2F702C0E12CF12C23
:101390006E297F2911967C936E934F5F5F4F4F307C
:1013A0005105B1F691A1392331A392A1892B82A3D2
:1013B000129681E0F501408151818416950609F469
:1013C00080E0282BF1E0A135BF0709F09ACF45E076
:1013D0006DE371E087E491E00E940C0A0E947603BD
:1013E00081E0DF91CF911F910F91FF90EF90DF90FF
:1013F000CF90BF90AF909F908F907F905F904F90D5
:101400000895E82FF0E0EE0FFF1FE35CFE4F8081B0
:101410009181089508950895FF920F931F93CF939C
:10142000DF93F82E092F162FD72FC42F222349F030
:1014300081E0809353010E94461F90935201809354
:101440005101809153018823D9F0809151019091ED
:1014500052010E94521F069798F0EF2DF02FA12FF6
:10146000BD2F80E090E04C2F50E08417950734F4B6
:10147000219131912D933D930196F7CF1092530115
:10148000DF91CF911F910F91FF900895EF92FF92FE
:101490000F931F93CF93DF93E901662309F44BC0A9
:1014A000242F30E0EFEFF0E0E61BF109B901E69FF1
:1014B0009001E79F300DF69F300D1124232F8B01F3
:1014C000031B11095CE3E52EF12CB7010E94922E5B
:1014D000FB01BC01069FC001079F900D169F900D58
:1014E0001124B7010E94922EE230F105B1F040F4D0
:1014F000309779F0319711F5832F242F461B21C0A7
:10150000E430F105A1F068F03597C1F4842F861B13
:1015100018C0832F262F230F14C0862F830FE42F8C
:1015200003C0E42FE61B842F432F2E2F0AC0842FE5
:10153000462F430F06C0842F242F03C080E020E0F5
:1015400040E0E42FF0E0E259FC4F4491E22FF0E05C
:10155000E259FC4F9491E82FF0E0E259FC4FE491FE
:1015600049839883EA83DF91CF911F910F91FF9078
:10157000EF90089580914C02282F26952F7330E02C
:101580002115310519F48178826005C025323105B5
:1015900024F08178886480934C0230914C02432F70
:1015A000441F4427441F20914D02522F550F852F71
:1015B000842B27FB992790F9893641E094077CF02A
:1015C00068E671E00E94A62E80FB37F930934C024A
:1015D00086952078822B90FB87F980934D020895A1
:1015E00088E090E00C94112FCF93DF9300D000D0CF
:1015F000CDB7DEB7AB01BC0149835A836B837C83D3
:101600000E94BA0A49815A816B817C8188E090E00E
:101610000F900F900F900F90DF91CF910C942F2F80
:10162000ECE4F2E083E0808310924D028FEF82833E
:101630008383148260817181828193810C94F40A86
:1016400080914C0280FF03C086958F73089580E0DF
:1016500008958091500290E001968430910514F035
:1016600083E090E08093500260914C0270914D02B3
:1016700080914E0290914F020C94F40A8091500296
:1016800090E0019797FF02C080E090E084309105E0
:1016900014F083E090E08093500260914C027091CE
:1016A0004D0280914E0290914F020C94F40A809169
:1016B000710123E0829FC00111248F5A9D4F6091D8
:1016C000020170E020914C0220FD0DC020E030E0CE
:1016D000F901EF5AFD4F1182108212822D5F3F4FA8
:1016E0002E313105A9F70C944F1190914C0290FFC7
:1016F0000FC020E030E0F901EF5AFD4F8183608395
:1017000042832D5F3F4F2E313105A9F70C94570BC3
:101710000895CF93DF9300D01F92CDB7DEB720910D
:101720004C0220FF0AC09E012F5F3F4F0E94460AD5
:101730004B8169818A810E94750B0F900F900F90E9
:10174000DF91CF9108955F926F927F928F929F92D7
:10175000AF92BF92CF92DF92EF92FF920F931F93BF
:10176000CF93DF9300D01F92CDB7DEB78C01E62E6A
:10177000F42E522E80914C0280FF89C0982F9E77C4
:10178000923061F49E012F5F3F4FC8010E94460ACC
:101790004B8169818A810E94750B59C0E82FE695BB
:1017A000EF739EE39E0F9F73943018F4F0904F02F6
:1017B0004EC09AE39E0F9F73993068F4881F882764
:1017C000881F90914D02292F220F022F082B97FB83
:1017D000112710F93CC087E28E0F8F738A30B8F55D
:1017E000F0E07997E0FD02C021E001C02FEFEE7F2D
:1017F000EC59FC4F859194916AE070E00E94922E22
:1018000026034001279F900C1124580188E9A81A4B
:101810008EEFB80A81E5C82E82E0D82E98E6692EB0
:1018200077247394C501B3010E94922E96014F2D27
:101830006E2D0E94460AA80CB91C83E0C80ED11C6C
:101840008FE6C81682E0D80669F70E94570B809190
:101850004C0200FB87F980934C02902F9695809163
:101860004D028078892B10FB87F980934D02E0921E
:101870004E02F0924F02552051F060914C0270914F
:101880004D0280914E0290914F020E94F40A0F90F7
:101890000F900F90DF91CF911F910F91FF90EF90DC
:1018A000DF90CF90BF90AF909F908F907F906F9080
:1018B0005F900895282FECE4F2E09081991F99271A
:1018C000991F30914D02832F880F482F492B37FBEA
:1018D000552750F9CA01089668E671E00E94A62EC5
:1018E000438162810C94A30B81E00C945A0C282F45
:1018F00090914C02991F9927991F30914D02832F87
:10190000880F482F492B37FB552750F9CA0148301B
:1019100051051CF4805A9E4F01C0089768E671E09B
:101920000E94A62E40914F0260914E020C94A30B90
:1019300081E00C94770C60914E02262F30E0283F16
:10194000310514F4685F01C06FEF30914C02331F12
:101950003327331F90914D02592F550F97FB99272D
:1019600090F9282F40914F02852F832B0C94A30BC5
:1019700081E00C949B0C60914E02262F30E02830C1
:10198000310514F0685001C060E030914C02331F03
:101990003327331F90914D02592F550F97FB9927ED
:1019A00090F9282F40914F02852F832B0C94A30B85
:1019B00081E00C94BB0C40914F02242F30E0283F73
:1019C000310514F4485F01C04FEF30914C02331FD2
:1019D0003327331F90914D02592F550F97FB9927AD
:1019E00090F9282F60914E02852F832B0C94A30B26
:1019F00081E00C94DB0C40914F02242F30E0283022
:101A0000310514F0485001C040E030914C02331FC2
:101A10003327331F90914D02592F550F97FB99276C
:101A200090F9282F60914E02852F832B0C94A30BE5
:101A300081E00C94FB0C20E00C94A30BCF939091CD
:101A40004C0290FF40C09178811102C0926007C0A3
:101A5000853210F0986403C08F73880F982B909391
:101A60004C02662351F060914C0270914D028091BE
:101A70004E0290914F020E94F40AC0914C026C2FCA
:101A800066956F7370E04BE050E083E091E00E9458
:101A9000FC2E892B19F01092720103C081E0809313
:101AA0007201CC1FCC27CC1F90914D02892F880F3B
:101AB00097FB992790F940914F0260914E028C2B31
:101AC000CF910C941B0DCF910895682F90914C02EB
:101AD00096959F7381E0890F853208F081E00C9420
:101AE0001E0D81E00C94650D682F90914C02969527
:101AF0009F738FEF890F09F484E20C941E0D81E02F
:101B00000C94740D61E00C941E0DECE4F2E0808105
:101B10008160808386958F730C94820D60E00C94B5
:101B20001E0D80917301811135C080911D0281606D
:101B300080931D020E949E1D811104C00E942B1ED5
:101B40000E94100B0E94F00A60934C0270934D02A9
:101B500080934E0290934F026E7761F40E94100BB7
:101B60000E94F00A60934C0270934D0280934E02E3
:101B700090934F020E94BA0A81E080937201809193
:101B80004C0280FF04C086958F730E948E0D81E009
:101B9000809373010895ECE4F2E080818E7F80836E
:101BA00060817181828193810E94F40A1092720196
:101BB0002FEF80E792E0215080409040E1F700C095
:101BC00000000C94570B80914C0280FD0C94CB0DBF
:101BD0000C94850DCF93E82FF0E0E05AFC4FC491B0
:101BE00080916F01909170010E94521FEC2FF0E0E4
:101BF0008E179F0708F443C00E94461F9093700100
:101C000080936F0160916E0170E080E090E00E942F
:101C1000832C20E030E04FE753E40E94A62B2BED0D
:101C20003FE049E450E40E94AC2D0E94192E0E942E
:101C3000202C2BE43AE34EE25FE30E94392B20EFA5
:101C40003BEF48ED52E40E94AC2D0E94522C462FEF
:101C500080914C02881F8827881F90914D02292F60
:101C6000220F97FB992790F960914E02822B0E94D8
:101C7000890B80916E0190E0019680936E01CF9167
:101C80000895CF93E82FF0E0E35AFC4FC491809180
:101C90006C0190916D010E94521FEC2FF0E08E17A5
:101CA0009F07E8F00E94461F90936D0180936C019E
:101CB00040914F0260914E0280916A0190916B01B8
:101CC0000E94890B80916A0190916B01019668E6F0
:101CD00071E00E94922E90936B0180936A01CF91E4
:101CE0000895CF92DF92FF920F931F93CF93DF93CC
:101CF000F82EE82FE695F0E0E65AFC4FC49180916B
:101D00006801909169010E94521FEC2FF0E08E173C
:101D10009F07E8F10E94461F909369018093680134
:101D200001E512E0C0E0D0E088E6C82EDD24D394BF
:101D300080916601909167018C0F9D1FB6010E94F2
:101D4000922E980140914F0260914E020E94460AE5
:101D5000A4960D5F1F4FC83681E0D80749F70E944F
:101D6000570B2091660130916701F0FE0AC0C9014E
:101D70000196BE010E94922E9093670180936601A6
:101D800006C0215031093093670120936601DF912D
:101D9000CF911F910F91FF90DF90CF900895AF9258
:101DA000BF92CF92DF92EF92FF920F931F93CF9348
:101DB000DF9380FF02C01FEF01C011E08695E82F7E
:101DC000F0E0E95AFC4FC491809164019091650163
:101DD0000E94521FEC2FF0E08E179F0708F466C098
:101DE0000E94461F909365018093640121E5C22EF5
:101DF00022E0D22E33E5E32E32E0F32EC0E0D0E035
:101E0000F70131971082F6011082F701108294E0F9
:101E1000A92EB12C00E080916301800F87FD865FC1
:101E2000082E000C990BC817D907E9F480914F02CE
:101E30008A9DA0018B9D500D112455954795559570
:101E4000479580914C02881F8827881F90914D02EA
:101E5000592F550F97FB992790F9960160914E02E3
:101E6000852B0E94460A010FF1E0AF1AB10899F6DE
:101E7000219683E0C80ED11CE3E0EE0EF11CCA30BF
:101E8000D10509F0BDCF0E94570B8091630111303D
:101E900031F4811102C089E007C0815005C090E093
:101EA0000196BE010E94A62E80936301DF91CF911F
:101EB0001F910F91FF90EF90DF90CF90BF90AF9068
:101EC00008950F931F93CF93DF93E82FF0E0EC5A20
:101ED000FC4FC49180916101909162010E94521F58
:101EE000EC2FF0E08E179F0708F466C00E94461F93
:101EF000909362018093610180E090E0FC01EF5AD1
:101F0000FD4F11821082128203968E319105B1F736
:101F1000C0E0D0E00AE010E0CE01B8010E94A62E99
:101F200040916001042E000C550BFC01EE0FFF1FC9
:101F3000C417D5070CF140910101042E000C550B7C
:101F40004C175D07CCF08E0F9F1F9C012F5A3D4F01
:101F500080914C02881F8827881F90914D02592F2D
:101F6000550F97FB992790F940914F0260914E02CF
:101F7000852B0E94460A07C0E80FF91FEF5AFD4F54
:101F80001182108212822196CA30D10529F60E9450
:101F9000570B8091000190916001980F9093600120
:101FA00020910101280F20930101121614F4993099
:101FB0001CF0819580930001DF91CF911F910F91CB
:101FC0000895EF92FF920F931F93CF93DF93809129
:101FD0005E0190915F010E94521F883E9340D0F1B4
:101FE0000E94461F90935F0180935E01C0915C0147
:101FF000D0915D012196C170DD27D0935D01C09322
:102000005C0181E5E82E82E0F82E10E008E7812FE0
:102010008695FE01E80FF11DCF0181709927970188
:1020200040914F0260914E02FC010E9FC0010F9F34
:10203000900D11240E94460A1F5FF3E0EF0EF11C81
:102040001A3029F7DF91CF911F910F91FF90EF90F8
:102050000C94570BDF91CF911F910F91FF90EF9050
:102060000895CF93DF9300D01F92CDB7DEB7809154
:102070005A0190915B010E94521FE2E5F3E0259125
:10208000349182179307C0F18091590181110CC0DE
:102090009E012F5F3F4F4FEF6FEF80E090E00E9477
:1020A000460A8A81809359010E94461F90935B01E2
:1020B00080935A0180915801813051F028F082308C
:1020C00061F4409159010AC08091590140E007C074
:1020D0006091590140E080E003C040E080E060E0B2
:1020E0000E94750B8091580190E0019663E070E0CA
:1020F0000E94A62E809358010F900F900F90DF91B1
:10210000CF9108950F931F93CF93DF938091560142
:10211000909157010E94521F843F914008F448C09B
:102120000E94461F9093570180935601C1E5D2E06B
:1021300000E010E0209154013091550180914C0253
:1021400090914D02053011051CF4232B79F002C04B
:10215000232B61F4881F8827881F592F550F97FB61
:10216000992790F99E0140914F020AC0881F882745
:10217000881F592F550F97FB992790F99E0140E032
:1021800060914E02852B0E94460A0F5F1F4F2396D7
:102190000A30110579F60E94570B809154019091F5
:1021A00055010196817099279093550180935401B0
:1021B000DF91CF911F910F91089580917201882333
:1021C000D9F190914C02892F86958F732EE3280FB9
:1021D0002F73243018F482500C94EA0D2AE3280F50
:1021E0002F73233018F486500C94410E27E3280FE8
:1021F0002F73263018F489500C94710E21E3280FA8
:102200002F73263018F48F500C94CF0E2BE2280F2A
:102210002F73233018F485510C94610F892F8E771A
:10222000803311F40C94E10F863411F40C943110C6
:10223000883411F40C948210089521B3342F309512
:10224000232331B3432B3FB7F894FC01680F791F68
:10225000E617F70789F0819198E041BB000000C0C4
:1022600087FF21BB880F000000C000C000C021BB59
:1022700000C09A9591F7ECCF3FBF089520B3242B6F
:1022800020BB9B01220F331F620F731F0E941D1181
:1022900087EC90E00197F1F700C00000089540E45A
:1022A0000C943E1190937901809378010895E09108
:1022B0007801F0917901309721F00190F081E02DC3
:1022C000099480E00895E0917801F09179013097C8
:1022D00099F020912001222359F02091750227FFC7
:1022E00007C0DC012C9111962C93119725E02C93BB
:1022F0000280F381E02D09940895E0917801F09136
:102300007901309739F022E0DC012C930480F581CB
:10231000E02D09940895209176013091770182177C
:10232000930771F09093770180937601E0917801A3
:10233000F0917901309721F00680F781E02D099422
:10234000089520917401309175018217930771F0FF
:102350009093750180937401E0917801F091790177
:10236000309721F00084F185E02D0994089585B718
:10237000806885BF85B7806885BF089508950895F2
:102380000C94BF1108950C94C2110E94B7110E94C1
:10239000BE110C94C01181E008950E943D1F0E945F
:1023A0001F090E9412200E944F230E94910D0C943D
:1023B000C3114F925F927F928F929F92AF92BF9282
:1023C000CF92DF92EF92FF920F931F93CF93DF9301
:1023D000CDB7DEB72A970FB6F894DEBF0FBECDBFDC
:1023E0000E9469090E94CB11811111C08FEF89836E
:1023F0008A831B820E94461F8160782F9D838C8375
:1024000049815A816B818D810E94971257C09BE749
:10241000C92E91E0D92E00E010E0AA24A394B12C9B
:10242000702E802F0E94010A4C01F60141905190BC
:102430006F01482659264114510431F40F5F1F4F94
:102440000530110569F7D2CF80911D0281FD0E94F0
:102450000A0A20E030E07501022E02C0EE0CFF1CDB
:102460000A94E2F7C70184219521892B09F12E8373
:102470007F828E209F2091E0892809F490E0988740
:102480000E94461F8160782F9A8789874E815F81DD
:1024900068858A850E949712000F111FF801E55880
:1024A000FE4F80819181E826F926F182E08206C004
:1024B0002F5F3F4F2F30310571F6C0CF0E94B522FC
:1024C00010917A010E9457111817D9F00E945711E4
:1024D00080937A012A960FB6F894DEBF0FBECDBF67
:1024E000DF91CF911F910F91FF90EF90DF90CF90F0
:1024F000BF90AF909F908F907F905F904F900C9483
:10250000F1032A960FB6F894DEBF0FBECDBFDF9160
:10251000CF911F910F91FF90EF90DF90CF90BF90E0
:10252000AF909F908F907F905F904F900895CF9342
:10253000DF93CDB7DEB72B970FB6F894DEBF0FBE93
:10254000CDBF4F83588769877A878B87DE011196C5
:1025500086E0FD0111928A95E9F785E0FE01379644
:1025600001900D928A95E1F749815A816B817C81B6
:102570008D819E810E94E3192B960FB6F894DEBFE1
:102580000FBECDBFDF91CF910895FC018081918175
:102590000E94AF1C0895882309F41AC18238C1F43F
:1025A0000E94571181FD14C169E380910E01909141
:1025B0000F010E94921E0E943A1D2FEF81EE94E0BF
:1025C000215080409040E1F700C0000069E319C04D
:1025D0008338F9F40E94571180FDFAC063E58091B9
:1025E0000E0190910F010E94921E0E943A1D2FEF42
:1025F00081EE94E0215080409040E1F700C000005F
:1026000063E580910E0190910F010E949D1E0C9434
:102610003A1D8438C1F40E94571182FDD9C067E485
:1026200080910E0190910F010E94921E0E943A1D0E
:102630002FEF81EE94E0215080409040E1F700C000
:10264000000067E4DECF9CEF980F913A40F4682FCA
:1026500080910E0190910F010E94921ED8CF90E2BE
:10266000980F983050F4877091E001C0990F8A95C7
:10267000EAF7892F0E94F11CCACF9BE5980F93308F
:1026800070F4853A29F0863A31F083E890E005C08D
:1026900081E890E002C082E890E00C948B1198E50C
:1026A000980F973108F08EC0883A09F445C0893AEE
:1026B00009F445C08A3A09F445C08B3A09F445C08B
:1026C0008C3A09F445C08B3B09F445C08C3B09F4B6
:1026D00045C08D3A09F445C0803B09F445C08E3AA7
:1026E00009F445C08F3A09F445C0813B09F445C05F
:1026F000823B09F445C0833B09F445C0843B09F49F
:1027000045C0853B09F445C0863B09F445C0873B7D
:1027100009F445C0883B09F445C0893B09F445C02C
:102720008D3B09F445C08E3B09F445C08A3B09F452
:1027300045C080E090E044C082EE90E041C089EE68
:1027400090E03EC08AEE90E03BC085EB90E038C060
:1027500086EB90E035C083EB90E032C084EB90E0F4
:102760002FC087EB90E02CC08CEC90E029C08DEC62
:1027700090E026C083E891E023C08AE891E020C081
:1027800082E991E01DC084E991E01AC081E292E003
:1027900017C083E292E014C084E292E011C085E2A7
:1027A00092E00EC086E292E00BC087E292E008C0A1
:1027B0008FE690E005C080E790E002C08AE292E0F8
:1027C0000C94A111803F20F00E94BD210C94AA22FC
:1027D0000895882309F464C0823879F40E9457115F
:1027E00081FF5EC069E380910E0190910F010E940C
:1027F000921E0E943A1D69E310C08338B1F40E9412
:10280000571180FF4DC063E580910E0190910F013B
:102810000E94921E0E943A1D63E580910E019091E4
:102820000F010E949D1E0C943A1D843879F40E9479
:10283000571182FF35C067E480910E0190910F011E
:102840000E94921E0E943A1D67E4E7CF9CEF980F0A
:10285000913A10F4682FE1CF90E2980F983050F43D
:10286000877091E001C0990F8A95EAF7892F0E943D
:10287000F71CD9CF9BE5980F933020F480E090E0CF
:102880000C948B1198E5980F973120F480E090E03C
:102890000C94A111803F20F00E9425220C94AA22C2
:1028A0000895882321F00E94F11C0C943A1D08958C
:1028B000882321F00E94F71C0C943A1D08954F9232
:1028C0005F926F927F92BF92CF92DF92EF92FF92D0
:1028D0000F931F93CF93DF937C01D62FC72FFC015B
:1028E000058102950F70128111110E940E1D0E9428
:1028F000E71C882379F0112369F080E28D0F88307E
:1029000048F082E00E94851D0E94E71C91E0B82EED
:10291000B92601C0B12CCC2EC2948FE0C822D12C94
:10292000F601E859FF4F0C94DC2E8C2F807FCF707E
:10293000882311F0C295C07F112399F0CC2309F4AC
:10294000D0C180E28D0F883010F0D11104C08C2FDF
:102950000E94F11C03C08C2F0E94011D0E943A1D91
:10296000C0C18D2F0E94E913CC2309F403C280E279
:102970008D0F883010F0D11104C08C2F0E94F71CED
:1029800003C08C2F0E94071D0E943A1DF3C18C2F9B
:10299000807FCF70803211F0C295C07FDD2319F0A7
:1029A000D130C9F022C0112371F0002341F0013071
:1029B00031F40E94211D8C2B0E94271DDBC10E9437
:1029C000211D8C2B46C1002319F0013009F4D2C11E
:1029D0000E94301D18C0112321F0063008F0CAC132
:1029E0000EC0053008F0C6C10EC0112351F00023FF
:1029F00031F0F701858180FF74C18F7085838C2F42
:102A000028C101117FC18C2F2AC18C2F86958695F4
:102A1000837090E0009719F0019761F0ABC111232A
:102A200021F08D2F9C2F937002C080E090E00E94D7
:102A30008B11B0C1112321F08D2F9C2F937002C0F8
:102A400080E090E00E94A111A5C11123F9F0D53FCB
:102A500051F0D63F71F0D43FA9F480916F0290916C
:102A6000700281600BC080916F0290917002826051
:102A700005C080916F029091700284609093700203
:102A800080936F028D2F0E94BD211EC0D53F51F053
:102A9000D63F71F0D43FA9F480916F0290917002FB
:102AA0008E7F0BC080916F02909170028D7F05C068
:102AB00080916F02909170028B7F9093700280934F
:102AC0006F028D2F0E9425220E94AA2263C18C2FA3
:102AD000837009F050C0111159C18D2F82958695D0
:102AE0008770880F880F9D2F9F70492E512C612C65
:102AF000712C082E04C0440C551C661C771C0A94CB
:102B0000D2F7D4FF14C00FE010E020E030E0B901AC
:102B1000A80104C0440F551F661F771F8A95D2F77E
:102B2000CB01BA01609570958095909503C060E0E7
:102B300070E0CB01C695C695C370D0E0C230D10518
:102B400061F0C330D10581F0642975298629972960
:102B5000219771F00E94281B19C1642975298629C3
:102B600097290E943A1B12C10E94281BC301B2017F
:102B70000E94161B0BC1112319F08C2F817001C00C
:102B80008695882309F402C18D2F829586958770DA
:102B9000880F880F9D2F9F70492E512C612C712C0E
:102BA000082E04C0440C551C661C771C0A94D2F7EE
:102BB000D4FF14C00FE010E020E030E0B901A8011C
:102BC00004C0440F551F661F771F8A95D2F7CB01AB
:102BD000BA01609570958095909503C060E070E0B3
:102BE000CB01C695C695C3704C2F50E042305105BD
:102BF00069F04330510589F06429752986299729A0
:102C00004130510571F00E94EE1BC0C06429752946
:102C1000862997290E94001CB9C00E94EE1BC3019F
:102C2000B2010E94DC1BB2C08D2F90E0FC01E05E7F
:102C3000F109E531F10508F050C0E858FF4F0C9458
:102C4000DC2EDF708C2F8F71112331F00E94751BE9
:102C50008D2F0E9451148EC00E94961B8D2F0E94B2
:102C6000581488C0112341F0053008F083C08C2F20
:102C70008F710E94BB1B7EC0063008F07BC0F7CF6F
:102C8000112339F08C2F8F710E94751B73C0112393
:102C9000C9F38C2F8F710E94961B6CC0112329F0F1
:102CA0008C2F8F710E94601B65C00E945B1B62C0ED
:102CB000112349F0CF718C2F0E94751B63E08C2F7C
:102CC0000E94701D57C081E00E94851D023008F4EB
:102CD00051C082E00E94851D4DC0112331F00023B8
:102CE00089F28D2F0E94CB1245C0002391F2D93377
:102CF00049F45FEF67EE73E0515060407040E1F7D8
:102D000000C000008D2F0E94E91334C04C2F4F707B
:102D10006D2FC7010E9468060E94871A3BC01111DF
:102D200039C0CF70D0E0C230D10599F03CF4209783
:102D300069F02197F9F40E9489232CC0C430D10591
:102D400071F054F02597B1F480E00AC00E946C2322
:102D500021C00E94C8231EC00E94CF231BC085E053
:102D60000E94F22317C04C2F4F706D2FC7010E9495
:102D70006B0610C088E0C816D10441F05CF0EAE0B0
:102D8000CE1AD108F2E0CF16D10420F40E945711D8
:102D90000E94F103BB20F1F00E94E31C80FD1AC0E9
:102DA000F70112820E94DD1C0E94751BC7010E9460
:102DB000F8160E94DD1CDF91CF911F910F91FF90BB
:102DC000EF90DF90CF90BF907F906F905F904F908B
:102DD0000C94961BDF91CF911F910F91FF90EF9074
:102DE000DF90CF90BF907F906F905F904F9008954D
:102DF0000F931F93CF93DF93EC01888199812B81EF
:102E00003C81232BB9F09F3F11F48F3F99F0CE0105
:102E10000E940304882371F0688179818A810E946D
:102E2000BA1C8C010E94121C0E94131BB801CE0117
:102E30000E945F14DF91CF911F910F9108950E941E
:102E40000E1D0E941E1D0E943A1D0E9443230E94D7
:102E5000AA2280E090E00E948B1180E090E00C9428
:102E6000A11180910E0190910F010E94A81E0C9457
:102E70001F170E94FE1C0C943117E92FE295EF708A
:102E8000F0E03297EE30F105B0F4E357FF4F0C94C9
:102E9000DC2E803F91F018F4803E68F40EC0843F31
:102EA00051F40BC0803E48F0813F29F406C093FBEB
:102EB000882780F9089580E0089581E008950E94B0
:102EC000AF1C0E943D170895CF93DF9300D000D030
:102ED0001F92CDB7DEB70F900F900F900F900F900D
:102EE000DF91CF910895CF93DF9300D000D000D031
:102EF000CDB7DEB726960FB6F894DEBF0FBECDBFB6
:102F0000DF91CF9108951F93CF93DF93C0918601F6
:102F100016E080918701C81799F0D0E01C9FF0015E
:102F20001D9FF00D1124E857FE4F408151816281B1
:102F30007381848195810E9473172196C770E9CFB0
:102F4000DF91CF911F9108954091B8015091B9013F
:102F50006091BA017091BB018091BC019091BD015B
:102F60000C9473178091BD0182958F7009F054C045
:102F70008091BA01882309F44FC080918601A09105
:102F800087016091B8017091B9014091BB015091E6
:102F9000BC01B6E08A1709F43FC090E04115510525
:102FA000C1F17F3F11F46F3FA1F1B89FF001B99FCC
:102FB000F00D1124E857FE4F218172132AC02081A1
:102FC000621327C02281211124C023813481241758
:102FD000350710F421503109241B350B283C3105ED
:102FE000C0F42091BD012F7020612093BD0126E027
:102FF000289FF001299FF00D1124E357FE4F808197
:103000008F708061808388EB91E00E94F8160C94A9
:10301000831701968770BECF0895CF92DF92EF920B
:10302000FF920F931F93CF93DF93CDB7DEB76297D5
:103030000FB6F894DEBF0FBECDBF8C0185E0F8015E
:10304000DE011D9601900D928A95E1F7D8014C9111
:1030500011965C91119712966C9112971396CD90E0
:10306000DC9014973091B8017091B9018091BB0147
:103070009091BC01009709F46BC17F3F19F43F3F69
:1030800009F466C1E090BA01EE2009F4C0C02091B5
:10309000BD01C816D90628F0F601E81BF90BCF01CF
:1030A00004C0809590958C0D9D1DFF24F394883C61
:1030B000910578F0F12C207F09F0C6C07C2DD98ACB
:1030C000C88A89890E94641788EB91E00E94F816EB
:1030D000B1C0822F807F09F046C0751314C034132D
:1030E00012C0611110C02F7020612093BD010E9499
:1030F000A41788EB91E00E94F8168091BD01D801D9
:1031000015968C932EC0CD2819F15F3F11F44F3FD7
:10311000F9F0F62E61111CC0809186012091870183
:1031200036E0821709F45AC090E0389FF001399FC9
:10313000F00D1124E857FE4F7181571306C07081BE
:10314000471303C07281711103C001968770E9CFE4
:10315000F62E662309F427C18091BD01816080931A
:10316000BD01F12C20C1751308C0341306C06111D4
:1031700004C08091BD01D801C3C04D875E878D8595
:103180009E856A8B0E945F176A898823E1F1662316
:10319000D1F12091BD01822F82958F7090E002972E
:1031A00074F08091B8019091B90198878F83198646
:1031B000DB86CA862C87CE0107960E94F81686E029
:1031C000F801A8EBB1E001900D928A95E1F70E9419
:1031D000B2170E94A417FF24F394E5C04D875E87C1
:1031E0008D859E850E94AF1C292F22952F7030E07F
:1031F000223031050CF0CBC09F7009F0C5C0805E55
:10320000883008F4D0C0C8010E94F816E4CFC81670
:10321000D90608F453C0F601E81BF90BCF01883C2E
:10322000910508F450C0F12C7C2DD98AC88A89896F
:103230000E946417E8EBF1E086E0DF011D928A95B9
:10324000E9F70E94A417AFC0751314C0341312C05D
:10325000611110C08091BD01F8018583C8010E94F1
:10326000F81686E0E8EBF1E0DF011D928A95E9F7B8
:10327000FE2C99C04D875E878D859E856A8B0E9446
:103280005F176A89882309F4BECF662309F4BBCF90
:103290002091BD01822F82958F7090E002970CF4EF
:1032A0008ECF8091B8019091B9019A8389831B8256
:1032B000DD82CC822E83CE0101967FCF80959095C2
:1032C0008C0D9D1DACCFF62E662309F49CCF751393
:1032D0002EC034132CC02091BD0120FD1FC0822FB1
:1032E00082958F70D9F0D80115962C9315978F3051
:1032F00049F08F5F982F9295907F822F8F70892B46
:1033000015968C93C8010E94F81686E0F801A8EB88
:10331000B1E001900D928A95E1F793CF86E0F80134
:10332000A8EBB1E001900D928A95E1F73CC04D8782
:103330005E878D859E850E945F17811140CF8091A9
:10334000BD0181608093BD01C8010E94F8162BC0A9
:10335000662309F458CF4D875E878D859E850E9430
:103360005F17F82E882309F44ECF86E0F801A8EB0A
:10337000B1E001900D928A95E1F788EB91E00E940F
:10338000C5120E94B2175DCF811139CF0CC0243015
:1033900031050CF038CF9F7009F431CFF8019581D9
:1033A000907F09F02CCF8F2D62960FB6F894DEBF78
:1033B0000FBECDBFDF91CF911F910F91FF90EF9086
:1033C000DF90CF9008951F93CF93DF93CDB7DEB7F3
:1033D0002C970FB6F894DEBF0FBECDBF4F83588732
:1033E00069877A878B879C87CE0107960E940D1884
:1033F000882369F08F8198852A853B85232BF1F1FD
:103400009F3F09F063C08F3F09F060C037C086E07E
:10341000FE013796DE01119601900D928A95E1F733
:103420006F817885EA85FB85309741F17F3F11F404
:103430006F3F21F12091870130E0C901019687702B
:1034400099274091860150E08417950709F447C0F9
:1034500069837A83FD83EC8396E0929FD001939FEA
:10346000B00D1124A857BE4FFE01319601900D9268
:103470009A95E1F7809387010E94831716E0809167
:103480008601909187018917C1F1189FC00111240D
:1034900088579E4F0E940D18882379F1E09186018C
:1034A0001E9FF0011124E857FE4F40815181628137
:1034B0007381848195810E9473178091860190E0C9
:1034C00001968770992780938601D9CF4F815885BF
:1034D00069857A858B859C850E947317CFCF0E9462
:1034E00039171092870110928601E8EBF1E086E02F
:1034F000DF011D928A95E9F7C1CF2C960FB6F8949B
:10350000DEBF0FBECDBFDF91CF911F910895EF9227
:10351000FF920F931F93CF93DF938C01892B09F4B4
:103520006CC0F12CEE24E394E8012196F80184911B
:10353000843740F4843008F051C0813081F082300B
:1035400019F15BC0853709F444C0A8F19CE7980FD6
:10355000903708F052C08F770E94E91341C00E5F88
:103560001F4FFE01C49180E28C0F883048F4C77071
:103570008E2D01C0880FCA95EAF70E94111D14C054
:103580008C2F0E94CB122DC00E5F1F4FFE01C491E5
:1035900080E28C0F883058F4C7708E2D01C0880FE0
:1035A000CA95EAF70E94171D0E943A1D1AC08C2F77
:1035B0000E94E91316C00E5F1F4FFE01C491CC2379
:1035C00081F08FE99FE00197F1F700C00000C15042
:1035D000F6CF0E5F1F4FFE01F49003C00E94CB1286
:1035E0008E018F2D882309F49FCFEFE9FFE03197FB
:1035F000F1F700C000008150F5CFDF91CF911F910E
:103600000F91FF90EF90089508950C94041B0E9471
:10361000051B6093F4017093F5018093F60190937C
:10362000F7010C941F1708950C94071B0F931F9319
:103630000091F4011091F5012091F6013091F7010C
:10364000602B712B822B932B1F910F910C94071BD6
:103650000F931F930091F4011091F5012091F60151
:103660003091F70160237123822393231F910F91DF
:103670000C94071B0F931F930091F4011091F50117
:103680002091F6013091F701602771278227932757
:103690001F910F910C94071B08950C944C1B0E94D2
:1036A0004D1B6093F0017093F1018093F2019093B0
:1036B000F3010C941F1760E070E0CB010C944F1BDA
:1036C0000F931F9341E050E060E070E08A019B019E
:1036D00004C0000F111F221F331F8A95D2F7C901A2
:1036E000B8011F910F910C944F1B0F931F9341E052
:1036F00050E060E070E004C0440F551F661F771F64
:103700008A95D2F78091F0019091F101A091F20198
:10371000B091F3018A019B01082B192B2A2B3B2B1B
:10372000C901B8011F910F910C944F1B0F931F9368
:1037300041E050E060E070E004C0440F551F661F98
:10374000771F8A95D2F74095509560957095809136
:10375000F0019091F101A091F201B091F3018A0181
:103760009B01082319232A233B23C901B8011F9178
:103770000F910C944F1B0F931F9341E050E060E0BA
:1037800070E004C0440F551F661F771F8A95D2F75B
:103790008091F0019091F101A091F201B091F301BB
:1037A0008A019B01082719272A273B27C901B8014D
:1037B0001F910F910C944F1B0F931F930091F001D9
:1037C0001091F1012091F2013091F301602B712BE6
:1037D000822B932B1F910F910C944F1B0F931F93D0
:1037E0000091F0011091F1012091F2013091F3016B
:1037F00060237123822393231F910F910C944F1BFD
:103800000F931F930091F0011091F1012091F201AB
:103810003091F30160277127822793271F910F9121
:103820000C944F1B08952FE0929F800D1124A82F18
:10383000A695A695A695877051E001C0550F8A956B
:10384000EAF785E0A89FD001112420E030E070E085
:10385000F901EA0FFB1FE254FE4F4081CB01022E1B
:1038600002C0969587950A94E2F781709927819511
:1038700084278523842780832F5F3F4F25303105A0
:1038800039F708952FE0929F800D1124682F6695D7
:1038900066956695982F977085E0689FB001112412
:1038A00040E050E080E0FA01E60FF71FE254FE4FDF
:1038B000208130E0092E02C0369527950A94E2F760
:1038C00021703327042E01C0220F0A94EAF7822BBD
:1038D0004F5F5F4F4530510531F70895BF92CF924A
:1038E000DF92EF92FF920F931F93CF93DF938C01A0
:1038F000C090F401D090F501E090F601F090F7014E
:103900008091F0019091F101A091F201B091F30149
:10391000C82AD92AEA2AFB2ACFE1D0E0D701C6017A
:103920000C2E04C0B695A795979587950A94D2F763
:1039300080FF07C0BC2EB8018C2F0E94860601971D
:1039400019F4219758F7B12C8B2DDF91CF911F914E
:103950000F91FF90EF90DF90CF90BF900895CF939D
:10396000DF93EC010E946E1CBE010E948606DF916F
:10397000CF9108951F93CF93DF93EB019091850131
:10398000992321F0CB010E94AF1C13C0882349F07A
:10399000CB010E946E1C182F682FCE010E94131CB1
:1039A00004C0CB010E94421C182FBE01812F0E942F
:1039B0008606DF91CF911F9108958091F80185953A
:1039C0008595859508958091F80187700895909167
:1039D000F801977081E009F480E0089580911C025D
:1039E000089590911C02892B80931C020895809564
:1039F00090911C02892380931C02089510921C024E
:103A0000089590911B02892B80931B020895809545
:103A100090911B02892380931B02089510921B0230
:103A2000089590911A02892B80931A020895809527
:103A300090911A02892380931A02089510921A0213
:103A400008958091F901089508950C94241D909192
:103A5000F901981721F08093F9010C94251D089520
:103A60008091F901882329F01092F90180E00C94EB
:103A7000251D0895E0910E01F0910F0180911C0227
:103A80008083E0910E01F0910F01908180911B02E3
:103A9000892B8083E0910E01F0910F01908180913C
:103AA0001A02892B80838091F901882381F0E091AB
:103AB0000E01F0910F019081892B808380910E017E
:103AC00090910F010E942D1E81110E94301D809146
:103AD0000E0190910F010C94631108950C946D1DCB
:103AE00098E0899F90011124262B2093F8010E94D1
:103AF000751B8091F8018595859585950C946E1DB3
:103B00001092F80180E00C946E1D2091F8018095D0
:103B100082238093F801982F977079F430E0482F32
:103B2000082E000C550B2417350739F0859585951F
:103B300085950E94961B0C94801D089580E090E06E
:103B40000E94172F21E08D3E9E4F09F020E0822F2A
:103B5000089582E090E00C94092F682F82E090E0B5
:103B60000C941D2F83E090E00C94092F682F83E0C4
:103B700090E00C941D2F84E090E00C94092F682FA6
:103B800084E090E00C941D2F86E090E00C94092FC7
:103B9000682F86E090E00C941D2FAB01BC018FE0F4
:103BA00090E00C942F2FAB01BC0183E190E00C94CA
:103BB0002F2F60E070E0CB010C94D31D60E070E02B
:103BC000CB010E94CD1D0C94D91D6DEE7EEF80E0DF
:103BD00090E00E943B2F60E082E090E00E941D2F69
:103BE00060E083E090E00E941D2F1092F40110929B
:103BF000F5011092F6011092F70160E084E090E088
:103C00000E941D2F60E085E090E00E941D2F60E083
:103C100086E090E00E941D2F6FEF87E090E00E9409
:103C20001D2F40E050E0BA0188E090E00E942F2F65
:103C300060E08DE090E00E941D2F40E050E0BA016E
:103C400088E190E00E942F2F60E087E190E00E94E1
:103C50001D2F0C94DE1D0C94E51DFC013296809105
:103C60002001882331F08091750287FF02C09EE118
:103C700001C096E080E0915028F021912223D9F3F1
:103C80008F5FF9CF08959C01FC0132969FEF80E091
:103C90004191461789F09F3F19F4411101C0982FB7
:103CA0008F5F8630A9F79F3F39F0F901E90FF11DC9
:103CB00097FDFA95628308950895FC01329608965F
:103CC0002081261301C010823196E817F907C1F749
:103CD0000895262F2695269526952E3168F4FC0109
:103CE000E20FF11D677021E030E001C0220F6A95FC
:103CF000EAF78281282B22830895262F2695269580
:103D000026952E3170F4FC01E20FF11D677021E061
:103D100030E001C0220F6A95EAF7209582812823BE
:103D20002283089520912001222329F020917502F9
:103D300027FD0C94691E0C94431E20912001222320
:103D400029F02091750227FD0C947D1E0C945D1EB8
:103D500020912001FC013296222331F080917502DE
:103D600087FF02C08EE101C086E0DF011D928A95C7
:103D7000E9F7089508950C94BA1E0E94BB1E809125
:103D80007C02843061F110921E0220E488E190E010
:103D90000FB6F894A895809360000FBE2093600042
:103DA00080E00E94780380E00E94F1030E94BB1E25
:103DB00083B7817F846083BF83B7816083BF78943A
:103DC000889583B78E7F83BF0FB6F894A8958091AE
:103DD0006000886180936000109260000FBE0895BB
:103DE00008950895CF930E94F01E0E9469090E94D1
:103DF000F11EC0E08C2F0E94010A892B29F4CF5FAD
:103E0000C530C1F780E001C081E0CF9108950895E9
:103E10000C94071F0E9439170E944F230E945711CC
:103E20000E94F1030C94081F1F920F920FB60F927D
:103E300011248F939F93AF93BF9380911E028111A2
:103E400013C08091710290917202A0917302B0919F
:103E500074024196A11DB11D80937102909372026C
:103E6000A0937302B0937402BF91AF919F918F9111
:103E70000F900FBE0F901F90189582E084BD93E0C5
:103E800095BD9AEF97BD80936E0008952FB7F89473
:103E90008091710290917202A0917302B0917402AC
:103EA0002FBF0895CF92DF92EF92FF920F931F934F
:103EB0002FB7F89440917102509172026091730291
:103EC000709174022FBF6A017B01EE24FF248C01E4
:103ED00020E030E0C016D106E206F30610F44150AF
:103EE00051099A01281B390BC9011F910F91FF90AD
:103EF000EF90DF90CF90089578941F920F920FB6B5
:103F00000F9211248F939F93AF93BF93809171026F
:103F100090917202A0917302B09174020196A11D5A
:103F2000B11D8093710290937202A0937302B093BB
:103F30007402BF91AF919F918F910F900FBE0F9020
:103F40001F90189581E08093E00080E28093D80074
:103F50001092C9008FE19EE40197F1F700C00000C4
:103F600087E090EBDC018093850290938602A0931A
:103F70008702B09388029CE088E10FB6F894A89578
:103F8000809360000FBE90936000FFCFAF92BF920E
:103F9000CF92DF92EF92FF920F931F93CF93C0E0E7
:103FA000CC24C394D12CE82EF12C8C2F0E94010A32
:103FB0005C0100E010E09601002E02C0220F331FCA
:103FC0000A94E2F72A213B21232B31F40F5F1F4F84
:103FD0000F30110581F70AC0602F7C2F80E00E940E
:103FE0006C06E816F90691F781E004C0CF5FC53092
:103FF000E1F680E0CF911F910F91FF90EF90DF905D
:10400000CF90BF90AF900895CF93C82F8CE20E94BD
:10401000C61F882321F08C2FCF910C94C61F80E0FF
:10402000CF910895CF930E949E1D811102C00E94DE
:104030002B1EC5E6C15049F00E9469098FE39CE937
:104040000197F1F700C00000F5CF89E20E9404203B
:1040500081110FC18AE20E94042081110E942B1E4F
:1040600085E00E94042081110E94A21F0E94A91DC8
:1040700080931D0287E00E9404208823A9F18BE130
:104080000E940420882351F080911D0281FB222789
:1040900020F991E0922790FB81F90EC08EE00E94FA
:1040A0000420882361F080911D0282FB222720F9E1
:1040B00091E0922790FB82F980931D0215C080E168
:1040C0000E94042090911D02882341F093FB222737
:1040D00020F981E0822780FB93F904C0892F809525
:1040E00080FB90F990931D0280911D020E94AD1DEE
:1040F0000E94BB1D90E0909376028093750280EE43
:104100000E940420882341F080917502982F909599
:1041100090FB80F98093750289E30E940420882334
:1041200059F08091750281FB222720F991E09227B6
:1041300090FB81F98093750282EE0E94042088230F
:1041400059F08091750282FB222720F991E0922795
:1041500090FB82F98093750286EE0E9404208823EA
:1041600059F08091750283FB222720F991E0922774
:1041700090FB83F98093750283EE0E9404208823CC
:1041800059F08091750284FB222720F991E0922753
:1041900090FB84F98093750285E30E9404208823B4
:1041A00059F08091750285FB222720F991E0922732
:1041B00090FB85F98093750281E30E940420882397
:1041C00059F08091750286FB222720F991E0922711
:1041D00090FB86F98093750281E10E940420882378
:1041E00059F08091750287FB222720F991E09227F0
:1041F00090FB87F980937502809175020E94BF1D24
:1042000087E20E940420C82F8EE10E9404208111C1
:10421000C2608FE10E9404208111C46080E20E948C
:1042200004208111C86081E20E9404208111C061D4
:1042300082E20E9404208111C06283E20E94042075
:104240008111C06484E20E940420882311F0C068B8
:1042500002C0CC2329F08C2F0E94B61D6C2F03C006
:104260000E94B21D682F70E080E090E0CF910C9426
:10427000141BCF9108958091220280FF0BC06091A2
:10428000130185E0689FB0011124759567957595B8
:1042900067952BC081FF09C06091130185E0689F7D
:1042A000B00111247595679520C082FF07C0609109
:1042B000130185E0689FB001112417C0909121027D
:1042C0009923D1F060911201961788F7209113017C
:1042D00085E0289F90011124929FA001939F500D8B
:1042E000112470E0CA010E94A62E6038710540F4C6
:1042F0006115710539F002C065E070E0862F089500
:104300008FE7089581E008958091220280FF08C020
:104310006091110170E0759567957595679521C05D
:1043200081FF06C06091110170E07595679519C015
:1043300082FF04C06091110170E010C090912102D1
:104340009923C1F0609110019617A0F78091110197
:10435000899FC001112470E00E94A62E603871056B
:1043600028F46115710521F0862F08958FE70895CF
:1043700081E0089561E070E0F4CF803F21F40E9475
:104380003B21819504C0813F29F40E943B21809309
:1043900026020895823F21F40E943B21819504C0AA
:1043A000833F29F40E943B21809325020895893F91
:1043B00019F40E94842105C08A3F31F40E948421AF
:1043C00081958093270208958B3F21F40E948421D8
:1043D000819504C08C3F29F40E9484218093280297
:1043E0000895843F21F480912402816017C0853FA5
:1043F00021F480912402826011C0863F21F48091D3
:10440000240284600BC0873F21F4809124028860DD
:1044100005C0883F31F4809124028061809324029A
:1044200008958D3F21F48091220281600BC08E3F60
:1044300021F480912202826005C08F3F29F480918F
:1044400022028460809322020895803F39F4809193
:10445000260287FF6CC01092260269C0813F29F4B2
:10446000809126021816BCF362C090912502823F0B
:1044700029F497FF5CC01092250259C0833F19F4BC
:104480001916CCF354C0893F41F4809127021816C5
:104490000CF04DC0109227024AC08A3F29F4809147
:1044A000270287FF44C0F6CF8B3F39F48091280262
:1044B00087FF3DC0109228023AC08C3F29F48091BA
:1044C00028021816BCF333C0843F21F480912402E3
:1044D0008E7F17C0853F21F4809124028D7F11C00B
:1044E000863F21F4809124028B7F0BC0873F21F40B
:1044F00080912402877F05C0883F31F48091240297
:104500008F7E8093240213C08D3F21F4809122027C
:104510008E7F0BC08E3F21F4809122028D7F05C0DB
:104520008F3F29F4809122028B7F80932202809119
:10453000250281110EC08091260281110AC080914E
:104540002702811106C080912802811102C01092B9
:104550002102089583E292E00E947D110E94461F8D
:104560009093200280931F0208951F93CF93DF93AF
:1045700080911F02909120020E94521FAC019091E5
:104580002102992321F02091140130E006C02091EE
:1045900015018AE0289F900111244217530708F45F
:1045A0006EC080912502C0912602D0912702109101
:1045B0002802811107C0C1115EC0D1115CC0111168
:1045C0005AC05DC09F3F19F09F5F9093210218165B
:1045D00024F40E943B21809325028091250287FFCD
:1045E00005C00E943B218195809325021C1624F46E
:1045F0000E943B21809326028091260287FF05C0FE
:104600000E943B21819580932602409125024423FC
:1046100079F030912602332359F025EB4203A001B3
:104620001124509325023203C001112490932602D5
:104630001D1624F40E948421809327028091270272
:1046400087FF05C00E94842181958093270211165F
:1046500024F40E948421809328028091280287FFFD
:1046600005C00E948421819580932802DF91CF911B
:104670001F910C94AA229F3F09F0A6CFAECFDF91E5
:10468000CF911F910895E3E2F2E086E0DF011D92F1
:104690008A95E9F7109221021092220208950E9451
:1046A0009E1D811102C00E942B1E0E94C41D80937A
:1046B0007702282F269530E02630310524F08170CE
:1046C0008A60809377028091770280FF02C086958E
:1046D00001C080E00C94780320917702822F8695A8
:1046E000482F50E04530510544F48F5F982F990FC3
:1046F000822F8170892B809377028091770281606D
:10470000809377020E94C81D8091770286950C9451
:10471000780380917702982F969591F09158990F90
:104720008170892B809377028E7F91E009F490E06D
:104730008091770290FB80F9809377020E94C81DD8
:104740008091770286950C9478038091770280FDA2
:1047500011C0816080937702813019F483E08093E7
:104760007702809177020E94C81D8091770286951A
:104770000C94780308958091770280FF08C08E7FA3
:10478000809377020E94C81D80E00C9478030895FE
:104790008091770280FD0C94BB230C94A52390910B
:1047A0007702892F86958F5F8F779170863028F4F6
:1047B000880F892B8093770202C0909377028091B3
:1047C00077028E7F91E009F490E08091770290FB70
:1047D00080F9809377020E94C81D809177028695A8
:1047E0000C947803863008F085E0880F909177026A
:1047F0009170892B809377028E7F91E009F490E08D
:104800008091770290FB80F9809377020E94C81D07
:104810008091770286950C947803809149020895DF
:104820000F931F93CF93DF9300D01F92CDB7DEB7C6
:104830008C010E948026823011F0843021F584E0C2
:1048400089831B830A8382E08093E9008FEF909134
:10485000E800815095FD06C095ED9A95F1F70000AE
:104860008111F5CF8091E80085FF0DC040E050E058
:1048700063E070E0CE0101960E949D268091E800E1
:104880008E778093E8000F900F900F90DF91CF917B
:104890001F910F910895CF93DF9300D01F92CDB752
:1048A000DEB720917C02243031F523E02983805843
:1048B00091099B838A8382E08093E9008FEF909136
:1048C000E800815095FD06C095ED9A95F1F700003E
:1048D0008111F5CF8091E80085FF0DC040E050E0E8
:1048E00063E070E0CE0101960E949D268091E80071
:1048F0008E778093E8000F900F900F90DF91CF910B
:104900000895CF93DF93EC010E948026823011F04E
:104910008430F9F482E08093E9009FEF8091E80011
:10492000915085FD06C085ED8A95F1F70000911143
:10493000F5CF8091E80085FF0CC040E050E066E0D4
:1049400070E0CE010E949D268091E8008E778093D2
:10495000E800DF91CF910895CF93DF93EC010E949F
:104960008026823011F08430D9F58091200188238F
:1049700039F08091750287FF03C060E282E002C0D7
:1049800068E081E08093E9008FEF9091E80081502A
:1049900095FD06C095ED9A95F1F700008111F5CFD0
:1049A0008091E80085FF1CC080912001811105C025
:1049B00040E050E068E070E003C070E040E050E0AC
:1049C000CE010E949D268091E8008E778093E800BA
:1049D00080E2FE01A9E2B2E001900D928A95E1F732
:1049E000DF91CF91089580917B02811109C00E94CF
:1049F00032280E948F288091E20084608093E20038
:104A0000089510927B020895089508950C940A1F4A
:104A100042E061EC81E00E94AC2742E261EC82E07E
:104A20000C94AC2780917E02833009F460C030F48E
:104A3000813071F0823009F499C008958A3009F408
:104A400085C08B3009F46BC0893009F0A7C020C045
:104A500080917D02813A09F0A1C08091E800877FB2
:104A60008093E8008091810290918202892B21F449
:104A700060E289E292E003C060E080E090E070E0F4
:104A80000E94E8268091E8008B778093E8000895E3
:104A900080917D02813209F081C0809181029091E4
:104AA0008202029708F07AC08091E800877F8093A5
:104AB000E8008091E80082FD05C080917C028111B0
:104AC000F8CF6CC02091F3008091F20090E0922B1F
:104AD000029729F48091F1008B7F813021F480913D
:104AE000F100809349028091E8008B7753C0809158
:104AF0007D02813A09F052C0809181029091820238
:104B0000892B09F04BC08091E800877F8093E800F3
:104B10008091E80080FFFCCF8091200136C0809119
:104B20007D028132D9F58091810290918202892B98
:104B3000A9F58091E800877F8093E8000E94E12733
:104B400080917F02809320010C94391780917D021F
:104B5000813221F58091E800877F8093E8000E94F0
:104B6000E1278091800280934A02089580917D021E
:104B7000813AA1F48091E800877F8093E8008091DA
:104B8000E80080FFFCCF80914A028093F100809181
:104B9000E8008E778093E8000C94E127089584B7AD
:104BA000877F84BF0FB6F894A895809160008861D4
:104BB00080936000109260000FBE80E880936100D7
:104BC000109261000E94C5110E9432280E948F2815
:104BD0008091E20084608093E20078940E941E2B12
:104BE0000E94CD1186E191E00E94521180917C02D9
:104BF000853069F40E94BD1E80917A028823B1F34A
:104C00000E94F21E882391F30E948726EFCF0E9414
:104C1000D9110E94DD10EACF0C940E26292F3327DC
:104C200023303105C9F064F42130310581F02230A0
:104C3000310509F04CC08BE390E020E934E04BC033
:104C40002132310521F12232310589F140C082E162
:104C500090E02BEC34E03FC099278130910571F052
:104C60002CF4892BA1F5ECE8F4E00DC0823091051D
:104C700041F0039761F5EEE6F4E005C0E0E8F4E00A
:104C800002C0E4E7F4E0849190E09F0124C0611544
:104C9000710541F061307105D1F489E090E02BEBB2
:104CA00034E019C089E090E022EA34E014C06115D4
:104CB000710541F06130710551F480EC90E02DED0B
:104CC00034E009C080E490E02DE935E004C080E0E4
:104CD00090E020E030E0FA013183208308950895C8
:104CE000CF93C82F0E946F26C0934B02CF91089597
:104CF00080917C02843011F081E0089582E0089573
:104D000080914B02811102C00C947826089580E1B5
:104D100089BD82E189BD09B400FEFDCF8091D80034
:104D20008F7D8093D8008091E00082608093E000C6
:104D30008091E00081FDFCCF0895CF92DF92EF9249
:104D4000FF920F931F93CF93DF93EC018B016A01C6
:104D50000E940028811133C0C114D10439F0F6013A
:104D600080819181081B190BC80FD91FE12CF12CF0
:104D70000115110519F18091E80085FD16C080919B
:104D8000E8008E778093E800C114D10449F0F60161
:104D900080819181E80EF91EF182E08285E00FC0EA
:104DA0000E940028882321F30AC089918093F10092
:104DB00001501109FFEFEF1AFF0ADACF80E0DF910F
:104DC000CF911F910F91FF90EF90DF90CF900895BA
:104DD00020918302309184022617370748F061152D
:104DE000710539F42091E8002E772093E80001C086
:104DF000B90140E061157105A9F120917C022223DF
:104E000009F443C0253009F442C02091E80023FD95
:104E100040C02091E80022FD32C02091E80020FF30
:104E2000E9CF4091F3002091F20030E0342BFC01F7
:104E3000CF016115710559F02830310540F4819199
:104E40008093F100615071092F5F3F4FF1CF41E036
:104E50002830310509F040E02091E8002E772093BA
:104E6000E800C8CF4111C9CF0AC080917C028823D5
:104E700061F0853061F08091E80083FD0AC0809187
:104E8000E80082FFF2CF80E0089582E0089583E099
:104E9000089581E0089520918302309184022617BD
:104EA000370748F06115710539F42091E8002E7735
:104EB0002093E80001C0B901FC0120E061157105F3
:104EC00091F180917C02882309F440C0853009F477
:104ED0003FC08091E80083FD3DC08091E80082FDE5
:104EE0002FC08091E80080FFE9CF2091F3008091EE
:104EF000F20090E0922B6115710559F08830910510
:104F000040F424912093F10031966150710901968B
:104F1000F2CF21E0089709F020E08091E8008E7739
:104F20008093E800CBCF2111CCCF0AC080917C02C6
:104F3000882361F0853061F08091E80083FD0AC02C
:104F40008091E80082FFF2CF80E0089582E008952A
:104F500083E0089581E00895982F973058F5909355
:104F6000E900981739F07091EC002091ED00509114
:104F7000F00003C0242F762F50E021FF19C030919C
:104F8000EB003E7F3093EB003091ED003D7F30939E
:104F9000ED003091EB0031603093EB007093EC004A
:104FA0002093ED005093F0002091EE0027FF07C002
:104FB0009F5FD3CF8F708093E90081E0089580E0F8
:104FC000089580917D0287FF11C08091E80082FDE5
:104FD00005C080917C028111F8CF11C08091E8005A
:104FE0008B770BC080917C02882349F08091E80088
:104FF00080FFF8CF8091E8008E778093E8000895D5
:105000002091E4003091E50095E64091EC00842F7A
:10501000817040FF22C08091E80080FD1CC080911B
:105020007C02882391F0853091F08091EB0085FD22
:1050300010C04091E4005091E5004217530729F356
:105040009A01915011F784E0089582E0089583E079
:10505000089581E0089580E008954091E80042FFBE
:10506000DECF08950E94A0280E94A828E0EEF0E07C
:10507000808181608083E8EDF0E080818F7780839C
:1050800019BCA7EDB0E08C918E7F8C9380818F7ED0
:10509000808310927B0208950F931F93CF93DF9329
:1050A0000E94A0280E94A828C8EDD0E088818F77B0
:1050B000888388818068888388818F7D888319BCF4
:1050C00010927C021092780210927A021092790269
:1050D00000EE10E0F80180818B7F80838881816001
:1050E000888342E060E080E00E94AC27E1EEF0E0DF
:1050F00080818E7F8083E2EEF0E08081816080831A
:10510000808188608083F80180818E7F80838881A0
:1051100080618883DF91CF911F910F910895E8ED11
:10512000F0E080818F7E8083E7EDF0E08081816018
:10513000808384E082BF81E080937B020C944C28C2
:10514000E8EDF0E080818E7F80831092E200089588
:105150001092DA001092E10008951F920F920FB69C
:105160000F9211242F933F934F935F936F937F93ED
:105170008F939F93AF93BF93EF93FF938091E10041
:1051800082FF0BC08091E20082FF07C08091E100A6
:105190008B7F8093E1000E941D2B8091DA0080FFBD
:1051A0001FC08091D80080FF1BC08091DA008E7FE5
:1051B0008093DA008091D90080FF0DC080E189BD25
:1051C00082E189BD09B400FEFDCF81E080937C02BD
:1051D0000E94F32405C019BC10927C020E94012594
:1051E0008091E10080FF19C08091E20080FF15C02E
:1051F0008091E2008E7F8093E2008091E2008061E6
:105200008093E2008091D80080628093D80019BC1E
:1052100085E080937C020E9405258091E10084FF57
:1052200030C08091E20084FF2CC080E189BD82E122
:1052300089BD09B400FEFDCF8091D8008F7D809399
:10524000D8008091E1008F7E8093E1008091E200A0
:105250008F7E8093E2008091E20081608093E20083
:1052600080917802882311F084E007C08091E300E8
:1052700087FD02C081E001C083E080937C020E9430
:1052800006258091E10083FF29C08091E20083FF21
:1052900025C08091E100877F8093E10082E08093C8
:1052A0007C02109278028091E1008E7F8093E10071
:1052B0008091E2008E7F8093E2008091E200806125
:1052C0008093E20042E060E080E00E94AC278091A1
:1052D000F00088608093F0000E940425FF91EF9118
:1052E000BF91AF919F918F917F916F915F914F91FE
:1052F0003F912F910F900FBE0F901F9018951F9206
:105300000F920FB60F9211242F933F934F935F93F9
:105310006F937F938F939F93AF93BF93CF93DF93BD
:10532000EF93FF93C091E900CF708091EC00D82FEC
:10533000D17080FDD0E81092E9008091F000877F65
:105340008093F00078940E94C3291092E900809124
:10535000F00088608093F000CD2BCF70C093E900FF
:10536000FF91EF91DF91CF91BF91AF919F918F917D
:105370007F916F915F914F913F912F910F900FBE51
:105380000F901F9018951F93CF93DF93CDB7DEB783
:10539000AA970FB6F894DEBF0FBECDBFEDE7F2E0DF
:1053A00088E08E0F9091F10091938E13FBCF0E94B5
:1053B00012258091E80083FF28C180917D029091A1
:1053C0007E02492F50E04A30510508F01EC1FA0113
:1053D000E556FF4F0C94DC2E803821F0823809F01E
:1053E00014C108C08091790290917A02992389F0C2
:1053F00082600FC0809181028F70873008F005C1F4
:105400008093E9008091EB0085FB882780F910925A
:10541000E9009091E800977F9093E8008093F10075
:105420001092F100D0C0282F2D7F09F0EEC0882304
:1054300019F0823061F0E9C080917F02813009F07B
:10544000E4C0933009F080E080937A022EC080910E
:105450007F0281112AC0809181028F702FEF280F67
:10546000263008F0D2C08093E9002091EB0020FFA5
:105470001CC0933021F48091EB00806214C09091A5
:10548000EB0090619093EB0021E030E0A90102C0B5
:10549000440F551F8A95E2F74093EA001092EA0004
:1054A0008091EB0088608093EB001092E90080917E
:1054B000E800877F8093E8000E94E127A6C0811161
:1054C000A4C010917F021F778091E3008078812B28
:1054D0008093E3008091E800877F8093E8000E943A
:1054E000E1278091E80080FFFCCF8091E300806895
:1054F0008093E300111102C082E001C083E0809339
:105500007C0283C08058823008F07FC080917F0287
:10551000909180028C3D53E0950779F583E08A8372
:105520008AE289834FB7F894DE01139620E03EE0CB
:1055300051E2E32FF0E050935700E49120FF03C0C5
:10554000E295EF703F5FEF708E2F90E0EA3010F041
:10555000C79601C0C0968D939D932F5F243149F764
:105560004FBF8091E800877F8093E8006AE270E097
:10557000CE0101960E94E82615C0609181027091CB
:105580008202AE014F5F5F4F0E940C26BC01892B47
:10559000E1F19091E800977F9093E80089819A81EA
:1055A0000E944B278091E8008B778093E8002DC004
:1055B000803859F58091E800877F8093E8008091DA
:1055C00078028093F1008091E8008E7773CF81118B
:1055D0001CC090917F029230C0F48091E800877FD8
:1055E0008093E800909378020E94E12780917802EE
:1055F000811106C08091E30087FD02C081E001C0F7
:1056000084E080937C020E9408258091E80083FF5B
:105610000AC08091E800877F8093E8008091EB00CA
:1056200080628093EB00AA960FB6F894DEBF0FBE9F
:10563000CDBFDF91CF911F9108950895CF938091B1
:105640007C028823A1F0C091E900CF709091EC001A
:10565000892F817090FD80E8C82B1092E90080911D
:10566000E80083FD0E94C329CF70C093E900CF9169
:1056700008955058BB27AA270E94512B0C94FC2C4C
:105680000E94EE2C38F00E94F52C20F039F49F3F58
:1056900019F426F40C94C42C0EF4E095E7FB0C945A
:1056A000BE2CE92F0E940D2D58F3BA17620773071D
:1056B0008407950720F079F4A6F50C942F2D0EF4AD
:1056C000E0950B2EBA2FA02D0B01B90190010C0112
:1056D000CA01A0011124FF27591B99F0593F50F42A
:1056E000503E68F11A16F040A22F232F342F442782
:1056F000585FF3CF469537952795A795F04053957A
:10570000C9F77EF41F16BA0B620B730B840BBAF049
:105710009150A1F0FF0FBB1F661F771F881FC2F7B4
:105720000EC0BA0F621F731F841F48F487957795C8
:105730006795B795F7959E3F08F0B0CF9395880F82
:1057400008F09927EE0F9795879508950E94BA2B38
:105750000C94FC2C0E94F52C58F00E94EE2C40F08A
:1057600029F45F3F29F00C94BE2C51110C94302D7C
:105770000C94C42C0E940D2D68F39923B1F355238A
:1057800091F3951B550BBB27AA2762177307840754
:1057900038F09F5F5F4F220F331F441FAA1FA9F3EA
:1057A00035D00E2E3AF0E0E832D091505040E695D8
:1057B000001CCAF72BD0FE2F29D0660F771F881F39
:1057C000BB1F261737074807AB07B0E809F0BB0B2C
:1057D000802DBF01FF2793585F4F3AF09E3F510540
:1057E00078F00C94BE2C0C94302D5F3FE4F3983E7F
:1057F000D4F3869577956795B795F7959F5FC9F729
:10580000880F911D9695879597F90895E1E0660FA9
:10581000771F881FBB1F621773078407BA0720F022
:10582000621B730B840BBA0BEE1F88F7E09508958B
:1058300029F416F00C94BE2C0C942F2D0C94C42C2F
:105840000E94152DA8F39638A0F707F80F92E89458
:105850002BE33AEA48EB5FE70E94C22D0F920F92CA
:105860000F924DB75EB70F920E94782DEAE4F1E0F7
:105870000E94C72C4F915F91EF91FF91E595EE1F2C
:10588000FF1F49F0FE57E0684427EE0F441FFA95CA
:10589000E1F74195550B0E94422D0F9007FE0C94A5
:1058A000362D08950E94152D88F09F5798F0B92F36
:1058B0009927B751B0F0E1F0660F771F881F991F45
:1058C0001AF0BA95C9F714C0B13091F00E942F2D8B
:1058D000B1E008950C942F2D672F782F8827B85F9B
:1058E00039F0B93FCCF3869577956795B395D9F79D
:1058F0003EF490958095709561957F4F8F4F9F4FA7
:105900000895E89409C097FB3EF4909580957095B2
:1059100061957F4F8F4F9F4F9923A9F0F92F96E9FB
:10592000BB279395F695879577956795B795F11170
:10593000F8CFFAF4BB0F11F460FF1BC06F5F7F4F0D
:105940008F4F9F4F16C0882311F096E911C077231F
:1059500021F09EE8872F762F05C0662371F096E828
:10596000862F70E060E02AF09A95660F771F881FF7
:10597000DAF7880F9695879597F9089597F99F67B5
:1059800080E870E060E008959FEF80EC0895DF9379
:10599000CF931F930F93FF92EF92DF927B018C01C5
:1059A000689406C0DA2EEF010E94BF2DFE01E89434
:1059B000A5912591359145915591A6F3EF010E944E
:1059C000512BFE019701A801DA9469F7DF90EF905F
:1059D000FF900F911F91CF91DF91089500240A94B9
:1059E0001616170618060906089500240A941216BA
:1059F0001306140605060895092E0394000C11F4ED
:105A0000882352F0BB0F40F4BF2B11F460FF04C099
:105A10006F5F7F4F8F4F9F4F089557FD9058440FF2
:105A2000551F59F05F3F71F04795880F97FB991FFD
:105A300061F09F3F79F087950895121613061406BA
:105A4000551FF2CF4695F1DF08C016161706180647
:105A5000991FF1CF86957105610508940895E89422
:105A6000BB2766277727CB0197F908959B01AC01E7
:105A700060E070E080E89FE30C94A62B0C94BE2CB1
:105A80000C94212E0E94152DD8F39923C9F3940F5D
:105A9000511DA3F39150504094F059F0882332F0F7
:105AA000660F771F881F91505040C1F79E3F5105E8
:105AB0002CF7880F911D9695879597F908955F3F6C
:105AC000ACF0983E9CF0BB27869577956795B79587
:105AD00008F4B1609395C1F7BB0F58F711F460FF5C
