:100000000C94EF020C9436030C9436030C943603D4
:100010000C9436030C9436030C9436030C9436037C
:100020000C9436030C9436030C9492280C94642997
:100030000C94F91E0C9436030C9436030C9436037E
:100040000C9436030C9436030C9436030C9436034C
:100050000C9436030C94611F0C9436030C943603F5
:100060000C9436030C9436030C9436030C9436032C
:100070000C9436030C9436030C9436030C9436031C
:100080000C9436030C9436030C9436030C9436030C
:100090000C9436030C9436030C9436030C943603FC
:1000A0000C9436030C9436030C943603AD05AF055F
:1000B000BA05B105B305B505B705B905BC05BE055B
:1000C000C005CB05C205C405C605C805CA05CD05D2
:1000D0007A147A14AC14AC14EA140A159F169F16FD
:1000E0004C159F16F915F9156B1674169F16981670
:1000F0000616061606160616061606160616061620
:10010000061606160616061606160616061606160F
:10011000171625162C1633163D162E172E174017B8
:10012000401737174017401740172E172E173C1748
:10013000401740173C17D129F829EA2AF829EA2A5A
:10014000442A672AEA2ABD2ACC2A07634236B79B8B
:10015000D8A71A39685618AEBAAB558C1D3CB7CC27
:100160005763BD6DEDFD753EF6177231BF0000009F
:10017000803F05A84CCDB2D44EB93836A9020C50F8
:10018000B9918688083CA6AAAA2ABE000000803F32
:1001900029001E001F00200021002200230024004F
:1001A0002500260027002D002E0000002A002B002D
:1001B00014001A000800150017001C0018000C009D
:1001C000120013002F00300031000000015804001D
:1001D0001600070009000A000B000D000E000F00BA
:1001E00033003400000028000000E10000001D0082
:1001F0001B00060019000500110010003600370032
:1002000038000000E5000000E000E200E30000002C
:10021000000000002C00000000000000E700015179
:1002200002516B00000035003A003B003C003D00ED
:100230003E003F00400041004200430044004500B2
:10024000000001000100AC00AE00AB0001000100A5
:1002500001004B0052004E000100010001000100AE
:1002600000000100A800AA00A900010001004A0046
:10027000500051004F00010001000000010000008B
:1002800001000000010001000100010001004D001B
:100290000100010001000100000001000000010058
:1002A000010001000000000000000100000000004B
:1002B0000000010001000100010000000000BF5C1F
:1002C000C05CBB5CBC5CBE5CBD5CC15C0000000093
:1002D000000000000000000000000000C25CC35CE1
:1002E000C55CC75CC95CCB5C00000000000000007E
:1002F000000000000000000000000100C45CC65CBB
:10030000C85CCA5CCC5C000000000000000000007B
:1003100000000000000000000000CD5CCE5CCF5C5F
:10032000D05CD15CD25CD35CD45C000000000000E7
:1003300000000000000000000000000000000000BD
:1003400000000000000000000000000001000000AC
:10035000000000047F3F1F643214643214783C1E96
:100360001E140A056801F000B40078005A0000006D
:10037000000000010101010101010101020202026C
:10038000020202020203030303030303030404043F
:100390000404040505050505060606060607070705
:1003A00007080808080909090A0A0A0A0B0B0B0CB6
:1003B0000C0C0D0D0D0E0E0F0F0F10101111111250
:1003C0001213131414151516161717181819191ACD
:1003D0001A1B1C1C1D1D1E1F1F202021222223242E
:1003E000252526272728292A2B2B2C2D2E2F2F3069
:1003F000313233343536363738393A3B3C3D3E3F7F
:100400004041424344464748494A4B4C4D4F505166
:100410005253555657585A5B5C5E5F606263646620
:1004200067696A6C6D6E707173747678797B7C7EA7
:100430008081838486888A8B8D8F91929496989AF6
:100440009B9D9FA1A3A5A7A9ABADAFB1B3B5B7B90C
:10045000BBBDBFC1C4C6C8CACCCFD1D3D6D8DADCE5
:10046000DFE1E4E6E8EBEDF0F2F5F7FAFCFF040378
:10047000300000000A034F004B003600300000003F
:100480000A034F004B00360030000000040309044B
:1004900009023B00020100A0FA0904000001030167
:1004A0000100092111010001224000070581030814
:1004B000000A0904010001030000000921110100E4
:1004C0000122C0000705820320000A12011001006A
:1004D000000008EDFE606001000102030105010952
:1004E00002A10185020901A10005091901290515CB
:1004F00000250195057501810295017503810105AE
:1005000001093009311581257F9502750881060999
:10051000381581257F950175088106050C0A38027A
:100520001581257F950175088106C0C005010980E8
:10053000A10185031601002603001A81002A830009
:10054000751095018100C0050C0901A101850416F3
:100550000100269C021A01002A9C02751095018157
:1005600000C005010906A1018505050719E029E775
:100570001500250195087501810205081901290555
:100580009505750191029501750391010507190003
:1005900029EF1500250195F075018102C0050109BB
:1005A00006A101050719E029E71500250195087541
:1005B0000181029501750881010508190129059538
:1005C000057501910295017503910105071900292F
:1005D000FF150026FF00950675088100C000112454
:1005E0001FBECFEFDAE0DEBFCDBF04B603FE27C0EB
:1005F0008091960290919702A0919802B0919902F1
:100600008730904BA740B04BD1F4109296021092D5
:100610009702109298021092990214BE84B7877FB5
:1006200084BF0FB6F894A89580916000886180938C
:100630006000109260000FBEE0E0F8E3099511E061
:10064000A0E0B1E0E0E7FEE502C005900D92AA351A
:10065000B107D9F722E0AAE5B1E001C01D92A639A1
:10066000B207E1F70E94B4250C94362F0C940000D9
:1006700081E0089581E008950C943A031F93CF938D
:10068000DF9300D000D01F92CDB7DEB749835A83E5
:100690002091960189819A81211112C0662349F027
:1006A0000E94531C182F682F89819A810E94F81B81
:1006B00003C00E94271C182F69817A81812F04C0F2
:1006C0000E94531C69817A810F900F900F900F90B8
:1006D0000F90DF91CF911F910C947F06FC01408118
:1006E00051816281738184810C943E030C943009A2
:1006F000E82FE295EF70F0E032A1282F2F7081E013
:1007000090E001C0880F2A95EAF78095832382A3A1
:100710000895CF92DF92EF92FF92863030F48111EC
:1007200005C090918000977F04C085E09091800083
:10073000986090938000282F30E0AFEFBFEF0E94C9
:10074000C72E25E030E040E050E00E949F2E2C377D
:1007500084E138074105510530F4C90169E070E0D2
:100760000E94772E29C0DA01C9018A50974DAF4FF8
:10077000BF4F6627782F892F9A2F25EF38E241E067
:1007800050E00E949F2E69017A01CA01B9010E94BE
:10079000672E9B01AC01C701B6010E94672EBB27E3
:1007A000A92F982F872F009721E0A207B10511F0FC
:1007B000BC0102C06FEF7FEF70938D0060938C00DF
:1007C000FF90EF90DF90CF900895279A87E30E94E3
:1007D00078038AE08093800089E1809381008FEF25
:1007E0009FEF90938700809386000C9434230E949F
:1007F000831D811102C00E94101E0E94E5030C940B
:100800002D0908950C9401040C94020408950E948B
:100810001E170E9406042FEF84E39CE021508040C5
:100820009040E1F700C000000C94871F0F931F93C6
:10083000CF93DF938C010E946E03EC01B8010E94FC
:100840003C03882309F451C2CC3C8CE5D80709F459
:10085000E1C0E8F5C43CECE5DE0709F4A5C0F8F416
:10086000C5318CE5D80778F4C2309CE5D90708F08B
:1008700052C1C115ECE5DE0709F467C0C130DC45A3
:1008800009F46BC026C2C23C8CE5D80709F478C0D5
:1008900008F07EC0C631DC4509F4F4C11AC2F80183
:1008A0008281C83CFCE5DF0709F49CC040F4C63CEB
:1008B000ECE5DE0709F48AC008F482C08DC0CA3CAA
:1008C0009CE5D90709F49AC008F492C09DC0C43DC4
:1008D000FCE5DF0709F4F8C0C0F4F8018281C03DEF
:1008E000FCE5DF0709F4BFC040F4CE3CECE5DE07D1
:1008F00009F49DC008F496C0A8C0C23D9CE5D90784
:1009000009F4CFC008F4BFC0DAC0C93DFCE5DF0779
:1009100009F49DC160F4C73D9CE5D90709F44DC1B8
:1009200008F06EC1C53DDC4509F4DEC0D2C1CD3D45
:100930008CE5D80709F4E6C0CE3D9CE5D907C1F0A7
:10094000CC3DDC4509F0C5C1D6C0F80182818823C1
:1009500009F4CBC10E940704C8C1F8018281882331
:1009600009F4C3C180912E02816080932E02BDC123
:10097000F8018281882309F4B8C10E94101EB5C114
:10098000F8018281882309F4B0C10E942410ADC10E
:10099000F8018281882309F4A8C10E94D31C8272C5
:1009A00061F00E941510A1C1F8018281882309F429
:1009B0009CC10E94D31C8272A1F30E94071095C1B2
:1009C000882309F492C10E94250D8FC1882309F460
:1009D0008CC10E94490D89C1882309F486C10E94F7
:1009E000690D83C1882309F480C10E94890D7DC1EE
:1009F000882309F47AC10E94A90D77C1882309F4DC
:100A000074C10E94C90D71C1882309F46EC10E948E
:100A10003D0B6BC1F8018281882309F466C10E94F5
:100A2000520B63C1882309F460C181E029C0882387
:100A300009F45BC10E94340B823028F00E94340B11
:100A4000853008F4BACF82E01BC0882309F44DC179
:100A50000E94340B863028F00E94340B883008F452
:100A6000ACCF86E00DC0882309F43FC10E94340B4F
:100A7000893028F00E94340B8E3008F49ECF89E034
:100A80000E94181032C1882309F42FC10E94340B30
:100A90008F3028F00E94340B843108F48ECF8FE021
:100AA000EFCF882309F421C10E94340B853128F04F
:100AB0000E94340B873108F480CF85E1E1CF882391
:100AC00009F413C188E1DCCFF8018281882309F49D
:100AD0000CC10E94340B893128F00E94340B823201
:100AE00008F46BCF89E1CCCFF8018281882309F427
:100AF000FCC083E2C5CFF8018281882309F4F5C0E8
:100B000080E006C0F8018281882309F4EEC082E00B
:100B10000E945526EAC0F8018281882309F4DEC0CC
:100B20000E94831D811102C00E94101E0E94A01D00
:100B300090E09093870280938602FE01E350FC458B
:100B4000E231F10530F4EA5AFF4F809186020C94AD
:100B5000C12E80918602816027C0826025C084609A
:100B600023C0806121C080621FC080641DC0806876
:100B70001BC08460886018C08E7F16C08D7F14C033
:100B80008B7F12C08F7E10C08F7D0EC08F7B0CC0FC
:100B90008F770AC08B7F877F07C087FB222720F9CA
:100BA00091E0922790FB87F98093860280918602DC
:100BB0000E94A41D0E941E1798C0F80182818823FC
:100BC00051F010925F010E942B1F90935C01809363
:100BD0005B0182E022C080915F0181110FC0809192
:100BE0005B0190915C010E94371F883C910530F4B5
:100BF00086E20E94B01286E20E94CE1382E024C0F8
:100C0000F8018281882361F0109260010E942B1FFD
:100C100090935E0180935D0180E20E94361465C06E
:100C20008091600181110FC080915D0190915E0102
:100C30000E94371F883C910530F487E20E94B01271
:100C400087E20E94CE1380E20E943D144EC0F8015C
:100C500082818111D9CF809160018111F4CF80917F
:100C60005D0190915E010E94371F883C910558F705
:100C700080E20E943D1488E20E94B01288E20E9445
:100C8000CE1333C00E94D31C282FF80182814091DB
:100C90000E0150910F01882379F02A7A91E009F42E
:100CA00090E090935A01911102C069E201C065E39E
:100CB000CA010E94771E0AC080915A01811102C0A8
:100CC00069E201C065E3CA010E94821E0E941F1DE5
:100CD0000CC081E080935F0180936001C801DF91C7
:100CE000CF911F910F910C94380380E0DF91CF9149
:100CF0001F910F91089580E090E0089508959FE07E
:100D0000799FF00111249BE4899FE00DF11D1124CE
:100D1000E60FF11DEE0FFF1FE057FE4F85919491F6
:100D20000895880F991FFC01EE5AFC4F859194910C
:100D30000895CF93DF930E947F060E948C08EC01F8
:100D4000811521E5920708F042C0811560E59607FC
:100D500008F031C1883E910500F5803E910508F00C
:100D6000D7C1883A910570F4853A910508F0A6C07C
:100D70008130910509F4CCC108F47DC1049708F0D5
:100D8000C7C179C18F3B910508F4A3C0803C910590
:100D900008F471C1805C9109FDC0C11580E3D807DA
:100DA00080F4C11590E2D90708F0F2C0C03FD10528
:100DB00008F461C1CF3FD10511F008F0A9C1D06599
:100DC000A7C1C11520E4D20708F0F2C0E7C0811521
:100DD00069E5960760F5C11588E5D80708F037C1C1
:100DE000C11594E5D90778F4C11523E5D20708F0B9
:100DF00013C1C11562E5D60708F0F8C0DC2FCC2777
:100E0000C16FD06A85C1C11585E5D80708F41AC13C
:100E1000C11596E5D90708F02EC18C2F0E9409094B
:100E20008F71C82FD0E0DC2FCC27D06271C18D3BF1
:100E30002CE5920709F416C1F0F4CB3B8CE5D807FA
:100E400009F40AC108F00BC1C1152AE5D20708F060
:100E500012C18C2F8F700E94090994E0D695C79516
:100E60009A95E1F7CF70D0E0DC2FCC27D06A8F7055
:100E7000806EC82B4DC1803C9C4509F4F9C0C13C33
:100E80008CE5D80760F4CE3B9CE5D90709F4EDC0AA
:100E9000CF3BDC4509F0EFC0C0E0D2ED39C1CE0157
:100EA00090568115904208F0E6C08D2F8F710E94F8
:100EB0000909DD27D0628F71D82B2AC1853A9105A7
:100EC00009F4DCC0863A910509F0DBC0C2E8D0E441
:100ED0001FC1883A910509F4D7C0893A910509F4F0
:100EE000D6C08A3A910509F4D5C08B3A910509F428
:100EF000D4C08C3A910509F4D3C08B3B910509F419
:100F0000D2C08C3B910509F4D1C08D3A910509F40A
:100F1000D0C0803B910509F4CFC08E3A910509F409
:100F2000CEC08F3A910509F4CDC0813B910509F4FB
:100F3000CCC0823B910509F4CBC0833B910509F4F9
:100F4000CAC0843B910509F4C9C0853B910509F4E9
:100F5000C8C0863B910509F4C7C0873B910509F4D9
:100F6000C6C0883B910509F4C5C0893B910509F4C9
:100F7000C4C08D3B910509F4C3C08E3B910509F4B3
:100F8000C2C08A3B910509F4C1C0C0E0D4E4C0C02E
:100F9000CE019F700E949106EC01BAC0CE01992744
:100FA000D3FF03C0EC01D86CB3C0EC01D06CB0C06F
:100FB000DF70D06AADC0837021E030E002C0220F44
:100FC000331F8A95E2F73C68CE0174E096958795C9
:100FD0007A95E1F78370382BCF70C695C69580E27D
:100FE000C89FE0011124C22BD32B92C04C2F4695F1
:100FF000469590E2499FA0011124C370DD2721E0AE
:1010000030E0C90102C0880F991FCA95E2F7EC01D0
:10101000C42BD52BDC687CC04C2F4695469580E2CE
:10102000489FA0011124C370DD2721E030E0C901F1
:1010300002C0880F991FCA95E2F7EC01C42BD52B8B
:10104000DA6866C0DC2FCC27C46FD06A61C0DC2FA1
:10105000CC27C06FD06A5CC0C0E0D4ED59C0C0E0FE
:10106000D5ED56C0C0E0D1ED53C0C0E0D0ED50C0CA
:10107000C0E0D3ED4DC0C0E0D0E04AC0C1E8D0E44C
:1010800047C0C3E8D0E444C0C2EED4E441C0C9EED6
:10109000D4E43EC0CAEED4E43BC0C5EBD4E438C0CF
:1010A000C6EBD4E435C0C3EBD4E432C0C4EBD4E423
:1010B0002FC0C7EBD4E42CC0CCECD4E429C0CDECD9
:1010C000D4E426C0C3E8D5E423C0CAE8D5E420C0F0
:1010D000C2E9D5E41DC0C4E9D5E41AC0C1E2D6E432
:1010E00017C0C3E2D6E414C0C4E2D6E411C0C5E21E
:1010F000D6E40EC0C6E2D6E40BC0C7E2D6E408C010
:10110000CFE6D4E405C0C0E7D4E402C0CAE2D6E426
:10111000CE01DF91CF9108958238910549F1B0F465
:101120008133910509F458C048F48932910509F4D6
:101130004EC08A32910509F454C008958533910553
:1011400009F440C08933910599F00895833E9105D3
:1011500029F138F4803E910591F0823E9105A1F08D
:101160000895863E9105F9F0873E910531F1089585
:101170002091860220FD3AC021FD38C0089580915B
:10118000860280FD35C032C08091860282FF32C067
:101190008091860284FD30C083EE39C08091860242
:1011A00082FD28C0F5CF8091860283FF27C0809101
:1011B000860284FD21C087EE2AC08091860283FDCD
:1011C0001DC0F5CF8091860285FD1AC01BC080919D
:1011D000860285FD17C014C08091860286FD14C06A
:1011E00015C08091860286FD11C00EC080EE0FC032
:1011F00089E30DC082EE0BC080E009C086EE07C017
:1012000089E205C085E303C08AE201C081E390E082
:1012100008959091860292FF0DC0282F28712830E2
:1012200019F4877F846006C0282F2471243011F4BC
:101230008B7F886093FF0DC0282F2871283119F407
:10124000877E846106C0282F2471243111F48B7E9F
:10125000886194FD877E089508950C942C09089563
:101260000C942F09E82FF0E0EE0FFF1FEF59FE4F0F
:101270008081918108950895E0E3F1E041E050E03C
:1012800025E02E0F9191A92FA295AF70B0E0919615
:101290003C9191979F70BA0102C0660F771F9A9593
:1012A000E2F7CB018095832391968C932E13EACF9E
:1012B000A1E2B1E041E050E02FE02A0F8D91E82F4C
:1012C000E295EF70F0E031A18F70BA0102C0660FB5
:1012D000771F8A95E2F7CB01962F9095932391A3E0
:1012E00092A1892B82A32A13E9CFEBE6F1E0A1E6D4
:1012F000B1E0119211921D921D9271E0E537F7074E
:10130000C1F785E00E941E0A0C94F7034F925F928A
:101310007F928F929F92AF92BF92CF92DF92EF9285
:10132000FF920F931F93CF93DF9320E3422E21E090
:10133000522EABE6B1E020E001E010E05D018D90BF
:101340009C90119711961C921E92E20189912E0198
:10135000E82FE295EF70F0E031A18F70A80102C094
:10136000440F551F8A95E2F7CA01342B31A342A1DD
:10137000382F3095432342A350EA5A95F1F791E272
:10138000C92E91E0D92E40E050E0E60179906E013F
:10139000672D62956F7070E0EB01E8A06D917C9114
:1013A0001197F12CD72DDF7002C0F594E794DA95F0
:1013B000E2F7E0FC08C07801042E02C0EE0CFF1C2E
:1013C0000A94E2F702C0E12CF12C6E297F291196D4
:1013D0007C936E934F5F5F4F4F305105B1F691A1F3
:1013E000392331A392A1892B82A3129681E0F501C2
:1013F000408151818416950609F480E0282BF1E0A4
:10140000A537BF0709F09ACF45E061E671E08BE6AA
:1014100091E00E941F0A0E94760381E0DF91CF9144
:101420001F910F91FF90EF90DF90CF90BF90AF9002
:101430009F908F907F905F904F9008950895FF92B6
:101440000F931F93CF93DF93F82E092F162FD72FCB
:10145000C42F222349F081E0809377010E942B1F43
:101460009093760180937501809177018823D9F05C
:1014700080917501909176010E94371F069798F030
:10148000EF2DF02FA12FBD2F80E090E04C2F50E0EA
:101490008417950734F4219131912D933D93019652
:1014A000F7CF10927701DF91CF911F910F91FF90AD
:1014B00008950895EF92FF920F931F93CF93DF93B8
:1014C000E901662309F44BC0242F30E0EFEFF0E090
:1014D000E61BF109B901E69F9001E79F300DF69FE9
:1014E000300D1124232F8B01031B11095CE3E52E22
:1014F000F12CB7010E94772EFB01BC01069FC001B1
:10150000079F900D169F900D1124B7010E94772E12
:10151000E230F105B1F040F4309779F0319711F5F0
:10152000832F242F461B21C0E430F105A1F068F081
:101530003597C1F4842F861B18C0832F262F230FC5
:1015400014C0862F830FE42F03C0E42FE61B842FE3
:10155000432F2E2F0AC0842F462F430F06C0842FFF
:10156000242F03C080E020E040E0E42FF0E0E259C7
:10157000FC4F4491E22FF0E0E259FC4F9491E82FA8
:10158000F0E0E259FC4FE49149839883EA83DF91CC
:10159000CF911F910F91FF90EF90089580915D0280
:1015A000282F26952F7330E02115310519F4817805
:1015B000826005C02532310524F0817888648093EB
:1015C0005D0230915D02432F441F4427441F209148
:1015D0005E02522F550F852F842B27FB992790F9F8
:1015E000893641E094077CF068E671E00E948B2E1A
:1015F00080FB37F930935D0286952078822B90FB33
:1016000087F980935E02089588E090E00C94F62EAE
:10161000CF93DF9300D000D0CDB7DEB7AB01BC01D4
:1016200049835A836B837C830E94CE0A49815A8105
:101630006B817C8188E090E00F900F900F900F906D
:10164000DF91CF910C94142FEDE5F2E083E08083DD
:1016500010925E028FEF8283838314826081718196
:10166000828193810C94080B80915D0280FF03C0FE
:1016700086958F73089580E008958091610290E0CF
:1016800001968430910514F083E090E0809361022C
:1016900060915D0270915E0280915F0290916002A4
:1016A0000C94080B8091610290E0019797FF02C0B3
:1016B00080E090E08430910514F083E090E0809326
:1016C000610260915D0270915E0280915F02909173
:1016D00060020C94080B80917B0123E0829FC00183
:1016E00011248E599D4F6091020170E020915D029E
:1016F00020FD0DC020E030E0F901EE59FD4F1182D0
:10170000108212822D5F3F4F2E313105A9F70C94C4
:10171000341190915D0290FF0FC020E030E0F9019C
:10172000EE59FD4F8183608342832D5F3F4F2E3101
:101730003105A9F70C946B0B0895CF93DF9300D07C
:101740001F92CDB7DEB720915D0220FF0AC09E0137
:101750002F5F3F4F0E945A0A4B8169818A810E9404
:10176000890B0F900F900F90DF91CF910895CF9339
:10177000DF93EC016C8170E080E090E00E94682CC7
:1017800020E030E04FE753E40E948B2B2BED3FE04D
:1017900049E450E40E94912D0E94FE2D0E94052CE8
:1017A0002BE43AE34EE25FE30E941E2B20EF3BEF77
:1017B00048ED52E40E94912D0E94372C462FEDE512
:1017C000F2E08081881F8827881F90915E02292F70
:1017D000220F97FB992790F96281822B0E949D0B23
:1017E0002C8130E02F5F3F4F2C83DF91CF91089504
:1017F000CF93DF93EC01EDE5F2E0438162818C81D0
:101800009D810E949D0B8C819D81019668E671E00F
:101810000E948B2E9D838C83DF91CF9108950F932F
:101820001F93CF93DF9300D01F92CDB7DEB78C010B
:101830008091780181110CC09E012F5F3F4F4FEFC7
:101840006FEF80E090E00E945A0A8A8180937801CD
:10185000F8018481813051F028F0823061F44091A8
:1018600078010AC08091780140E007C0609178015A
:1018700040E080E003C040E080E060E00E94890B2F
:10188000F801248130E0C901019663E070E00E9414
:101890008B2E84830F900F900F90DF91CF911F912B
:1018A0000F9108955F926F927F928F929F92AF9265
:1018B000BF92CF92DF92EF92FF920F931F93CF933D
:1018C000DF9300D01F92CDB7DEB78C01E62EF42E49
:1018D000522E80915D0280FF8BC0E82FE695EF735A
:1018E000AE2FB0E0AB5CBE4F9C9190938301282F4C
:1018F0002E77223061F49E012F5F3F4FC8010E9476
:101900005A0A4B8169818A810E94890B51C09230A9
:1019100019F4F09060024CC0963069F4881F882753
:10192000881F90915E02292F220F022F082B97FB10
:10193000112710F93DC0993089F39931C9F5E95162
:10194000E0FD02C021E001C02FEFE695F0E0EE0FD0
:10195000FF1FEC59FC4F859194916AE070E00E9462
:10196000772E26034001279F900C1124580188E907
:10197000A81A8EEFB80A92E6C92E92E0D92E28E670
:10198000622E77247394C501B3010E94772E9601CD
:101990004F2D6E2D0E945A0AA80CB91C83E0C80E68
:1019A000D11C80E8C81682E0D80669F70E946B0B4C
:1019B00080915D0200FB87F980935D02902F9695E0
:1019C00080915E028078892B10FB87F980935E02FC
:1019D000E0925F02F0926002552051F060915D024A
:1019E00070915E0280915F02909160020E94080BEC
:1019F0000F900F900F90DF91CF911F910F91FF905B
:101A0000EF90DF90CF90BF90AF909F908F907F909E
:101A10006F905F900895282FEDE5F2E09081991F77
:101A20009927991F30915E02832F880F482F492BE9
:101A300037FB552750F9CA01089668E671E00E9405
:101A40008B2E438162810C94520C81E00C940B0D1F
:101A5000282F90915D02991F9927991F30915E025E
:101A6000832F880F482F492B37FB552750F9CA0180
:101A7000483051051CF4805A9E4F01C0089768E613
:101A800071E00E948B2E4091600260915F020C9485
:101A9000520C81E00C94280D60915F02262F30E0FB
:101AA000283F310514F4685F01C06FEF30915D028B
:101AB000331F3327331F90915E02592F550F97FB29
:101AC000992790F9282F40916002852F832B0C9441
:101AD000520C81E00C944C0D60915F02262F30E097
:101AE0002830310514F0685001C060E030915D028B
:101AF000331F3327331F90915E02592F550F97FBE9
:101B0000992790F9282F40916002852F832B0C9400
:101B1000520C81E00C946C0D40916002242F30E057
:101B2000283F310514F4485F01C04FEF30915D024A
:101B3000331F3327331F90915E02592F550F97FBA8
:101B4000992790F9282F60915F02852F832B0C94A1
:101B5000520C81E00C948C0D40916002242F30E0F7
:101B60002830310514F0485001C040E030915D024A
:101B7000331F3327331F90915E02592F550F97FB68
:101B8000992790F9282F60915F02852F832B0C9461
:101B9000520C81E00C94AC0D20E00C94520CCF92CE
:101BA000DF92EF92FF920F931F93CF93DF93EC019D
:101BB00082E6E82E82E0F82E00E010E098E6C92EDA
:101BC000DD24D3948C819D81800F911FB6010E94EA
:101BD0008B2E97014091600260915F020E945A0A29
:101BE0000C5D1F4F83E0E80EF11C083681E01807FA
:101BF00049F70E946B0B8A812C813D8180FF06C0D2
:101C0000C9010196B8010E948B2E05C01216130659
:101C10002CF087E691E09D838C8304C0215031092C
:101C20003D832C83DF91CF911F910F91FF90EF9017
:101C3000DF90CF900895AF92BF92CF92DF92EF9254
:101C4000FF920F931F93CF93DF93FC01828180FF5C
:101C500003C0BB24BA9402C0BB24B39422E6E22E94
:101C600022E0F22E04E612E0C0E0D0E0F801319765
:101C70001082F7011082F801108294E0C92ED12C55
:101C8000A12C80917A018A0D87FD865F082E000CB9
:101C9000990BC817D907E9F4809160028C9DA001C7
:101CA0008D9D500D112455954795559547958091DB
:101CB0005D02881F8827881F90915E02592F550F5B
:101CC00097FB992790F9970160915F02852B0E94FD
:101CD0005A0AAB0CF1E0CF1AD10899F6219683E0AD
:101CE000E80EF11C0D5F1F4FCA30D10509F0BECFC1
:101CF0000E946B0B80917A0191E0B91206C08111AC
:101D000002C089E007C0815005C090E00196BE0185
:101D10000E948B2E80937A01DF91CF911F910F91BA
:101D2000FF90EF90DF90CF90BF90AF9008950F930A
:101D30001F93CF93DF9380E090E0FC01EE59FD4FBD
:101D400011821082128203968E319105B1F7C0E0A4
:101D5000D0E00AE010E0CE01B8010E948B2E409145
:101D60007901042E000C550BFC01EE0FFF1FC41768
:101D7000D5070CF140910101042E000C550B4C17B6
:101D80005D07CCF08E0F9F1F9C012E593D4F809117
:101D90005D02881F8827881F90915E02592F550F7A
:101DA00097FB992790F94091600260915F02852B23
:101DB0000E945A0A07C0E80FF91FEE59FD4F118221
:101DC000108212822196CA30D10529F60E946B0B2F
:101DD0008091000190917901980F90937901209161
:101DE0000101280F20930101121614F499301CF000
:101DF000819580930001DF91CF911F910F910895FC
:101E0000EF92FF920F931F93CF93DF93EC012C81FE
:101E10003D812F5F3F4F217033273D832C8382E626
:101E2000E82E82E0F82E10E008E7812F8695EC81FD
:101E3000FD81E80FF11DCF01817099279701409135
:101E4000600260915F02FC010E9FC0010F9F900D28
:101E500011240E945A0A1F5FF3E0EF0EF11C1A30A2
:101E600021F7DF91CF911F910F91FF90EF900C948C
:101E70006B0BEF92FF920F931F93CF93DF937C0135
:101E8000C2E6D2E000E010E0F701848130915D020B
:101E900090915E02053011051CF4882381F002C088
:101EA00081110DC0832F881F8827881F592F550F38
:101EB00097FB992790F99E01409160020BC0832FF8
:101EC000881F8827881F592F550F97FB992790F94E
:101ED0009E0140E060915F02852B0E945A0A0F5FCD
:101EE0001F4F23960A30110579F60E946B0BF701FC
:101EF000848190E00196817099278483DF91CF914E
:101F00001F910F91FF90EF900895EDE5F2E0808131
:101F10008E7F808360817181828193810E94080B12
:101F2000109284012FEF80E792E021508040904092
:101F3000E1F700C000000C946B0B60915D026695A8
:101F40006F7370E04BE050E083E091E00E94E12E7F
:101F5000892B19F481E0809384010E942B1F9093B8
:101F60007D0180937C01089590915D0290FF42C0B5
:101F70009178811102C0926007C0853210F0986498
:101F800003C08F73880F982B90935D02662351F0E6
:101F900060915D0270915E0280915F02909160029B
:101FA0000E94080B60915D0266956F7370E04BE0D4
:101FB00050E083E091E00E94E12E892B19F010920D
:101FC000840102C00E949D0F81E080937F01809177
:101FD0005D02881F8827881F90915E02292F220F9B
:101FE00097FB992790F94091600260915F02822BE4
:101FF0000C94CC0D0895682F90915D0296959F7377
:1020000081E0890F853208F081E00C94B40F81E003
:102010000C94FB0F682F90915D0296959F738FEF44
:10202000890F09F484E20C94B40F81E00C940A1037
:1020300061E00C94B40FEDE5F2E080818160808373
:1020400086958F730C94181080915D0280FD0C941E
:10205000850F0C941B1060E00C94B40F80918201EA
:10206000811134C080912E02816080932E020E94E3
:10207000831D811104C00E94101E0E94240B0E9427
:10208000040B60935D0270935E0280935F029093F5
:1020900060026E7761F40E94240B0E94040B60932F
:1020A0005D0270935E0280935F02909360020E94D3
:1020B000CE0A1092840180915D0280FF04C0869553
:1020C0008F730E942B1081E08093820108950F93FB
:1020D0001F93CF93DF9380918401882309F48DC0EF
:1020E00080918301E0915D02E695EF73E81BE09338
:1020F0007E01823049F4F0E0E05AFC4FE491CE2FAB
:10210000D0E007EB1BE049C0863049F4F0E0E35A29
:10211000FC4FE491CE2FD0E008EF1BE03EC08930A9
:1021200051F4E695F0E0E65AFC4FE491CE2FD0E072
:102130000FEC1DE032C08F3051F4E695F0E0E95A23
:10214000FC4FE491CE2FD0E00BE11EE026C085319C
:1021500049F4F0E0EC5AFC4FE491CE2FD0E007E9CF
:102160001EE01BC0883181F0833239F4E2E5F3E0F0
:10217000C591D4910FE01CE010C0843251F4C4EF3B
:10218000D1E009E31FE009C0C8EED3E000E01FE0A2
:1021900004C0C0EDD7E009E51AE080917F018823F3
:1021A00089F010927F010E942B1F9E01209530958F
:1021B000820F931F90937D0180937C011092810187
:1021C0001092800180917C0190917D010E94371FC7
:1021D0008C179D0790F0E0917C01F0917D01CE0F6E
:1021E000DF1FD0937D01C0937C018CE791E0F80163
:1021F000DF91CF911F910F910994DF91CF911F91A2
:102200000F91089521B3342F3095232331B3432BFD
:102210003FB7F894FC01680F791FE617F70789F0BC
:10222000819198E041BB000000C087FF21BB880F6F
:10223000000000C000C000C021BB00C09A9591F70B
:10224000ECCF3FBF089520B3242B20BB9B01220F6E
:10225000331F620F731F0E94021187EC90E00197F9
:10226000F1F700C00000089540E40C94231190930E
:102270008A01809389010895E0918901F0918A0192
:10228000309721F00190F081E02D099480E00895CD
:10229000E0918901F0918A01309799F02091200115
:1022A000222359F02091860227FF07C0DC012C91E0
:1022B00011962C93119725E02C930280F381E02D49
:1022C00009940895E0918901F0918A01309739F0DD
:1022D00022E0DC012C930480F581E02D099408951F
:1022E00020918701309188018217930771F09093B4
:1022F000880180938701E0918901F0918A013097EC
:1023000021F00680F781E02D099408952091850140
:10231000309186018217930771F090938601809324
:102320008501E0918901F0918A01309721F00084C4
:10233000F185E02D0994089585B7806885BF85B73C
:10234000806885BF0895089508950C94A411089598
:102350000C94A7110E949C110E94A3110C94A5112A
:1023600081E008950E94221F0E943C090E94F71FED
:102370000E9434230E942E100C94A8114F925F9259
:102380007F928F929F92AF92BF92CF92DF92EF9205
:10239000FF920F931F93CF93DF93CDB7DEB72A97AA
:1023A0000FB6F894DEBF0FBECDBF0E9486090E9413
:1023B000B011811111C08FEF89838A831B820E9423
:1023C0002B1F8160782F9D838C8349815A816B817B
:1023D0008D810E947C1257C09CE8C92E91E0D92EB5
:1023E00000E010E0AA24A394B12C702E802F0E944C
:1023F00032094C01F601419051906F01482659264F
:102400004114510431F40F5F1F4F0530110569F776
:10241000D2CF80912E0281FD0E943B0920E030E066
:102420007501022E02C0EE0CFF1C0A94E2F7C701F0
:1024300084219521892B09F12E837F828E209F2074
:1024400091E0892809F490E098870E942B1F816011
:10245000782F9A8789874E815F8168858A850E9457
:102460007C12000F111FF801E457FE4F808191810B
:10247000E826F926F182E08206C02F5F3F4F2F3019
:10248000310571F6C0CF0E949A2210918B010E94F3
:102490003C111817D9F00E943C1180938B012A96A9
:1024A0000FB6F894DEBF0FBECDBFDF91CF911F9165
:1024B0000F91FF90EF90DF90CF90BF90AF909F90E3
:1024C0008F907F905F904F900C9404042A960FB6E3
:1024D000F894DEBF0FBECDBFDF91CF911F910F915A
:1024E000FF90EF90DF90CF90BF90AF909F908F9034
:1024F0007F905F904F900895CF93DF93CDB7DEB775
:102500002B970FB6F894DEBF0FBECDBF4F83588711
:1025100069877A878B87DE01119686E0FD0111922B
:102520008A95E9F785E0FE01379601900D928A952C
:10253000E1F749815A816B817C818D819E810E9466
:10254000C8192B960FB6F894DEBF0FBECDBFDF9132
:10255000CF910895FC01808191810E94941C08957F
:10256000882309F41AC18238C1F40E943C1181FD0C
:1025700014C169E380910E0190910F010E94771EB2
:102580000E941F1D2FEF81EE94E02150804090406B
:10259000E1F700C0000069E319C08338F9F40E9434
:1025A0003C1180FDFAC063E580910E0190910F010E
:1025B0000E94771E0E941F1D2FEF81EE94E0215094
:1025C00080409040E1F700C0000063E580910E017B
:1025D00090910F010E94821E0C941F1D8438C1F43B
:1025E0000E943C1182FDD9C067E480910E01909158
:1025F0000F010E94771E0E941F1D2FEF81EE94E0B5
:10260000215080409040E1F700C0000067E4DECF39
:102610009CEF980F913A40F4682F80910E019091B1
:102620000F010E94771ED8CF90E2980F983050F497
:10263000877091E001C0990F8A95EAF7892F0E946F
:10264000D61CCACF9BE5980F933070F4853A29F0D9
:10265000863A31F083E890E005C081E890E002C05E
:1026600082E890E00C94701198E5980F973108F08B
:102670008EC0883A09F445C0893A09F445C08A3ABF
:1026800009F445C08B3A09F445C08C3A09F445C0B9
:102690008B3B09F445C08C3B09F445C08D3A09F4E5
:1026A00045C0803B09F445C08E3A09F445C08F3AD5
:1026B00009F445C0813B09F445C0823B09F445C09B
:1026C000833B09F445C0843B09F445C0853B09F4CC
:1026D00045C0863B09F445C0873B09F445C0883BAB
:1026E00009F445C0893B09F445C08D3B09F445C058
:1026F0008E3B09F445C08A3B09F445C080E090E078
:1027000044C082EE90E041C089EE90E03EC08AEE87
:1027100090E03BC085EB90E038C086EB90E035C0A0
:1027200083EB90E032C084EB90E02FC087EB90E029
:102730002CC08CEC90E029C08DEC90E026C083E8A2
:1027400091E023C08AE891E020C082E991E01DC0B9
:1027500084E991E01AC081E292E017C083E292E03E
:1027600014C084E292E011C085E292E00EC086E2DD
:1027700092E00BC087E292E008C08FE690E005C0CF
:1027800080E790E002C08AE292E00C948611803FDC
:1027900020F00E94A2210C948F220895882309F42E
:1027A00064C0823879F40E943C1181FF5EC069E305
:1027B00080910E0190910F010E94771E0E941F1DB3
:1027C00069E310C08338B1F40E943C1180FF4DC012
:1027D00063E580910E0190910F010E94771E0E9487
:1027E0001F1D63E580910E0190910F010E94821ED2
:1027F0000C941F1D843879F40E943C1182FF35C06F
:1028000067E480910E0190910F010E94771E0E9453
:102810001F1D67E4E7CF9CEF980F913A10F4682FE3
:10282000E1CF90E2980F983050F4877091E001C0AA
:10283000990F8A95EAF7892F0E94DC1CD9CF9BE576
:10284000980F933020F480E090E00C94701198E59C
:10285000980F973120F480E090E00C948611803F2F
:1028600020F00E940A220C948F220895882321F0E0
:102870000E94D61C0C941F1D0895882321F00E94ED
:10288000DC1C0C941F1D08954F925F926F927F92F3
:10289000BF92CF92DF92EF92FF920F931F93CF934D
:1028A000DF937C01D62FC72FFC01058102950F70A5
:1028B000128111110E94F31C0E94CC1C882379F014
:1028C000112369F080E28D0F883048F082E00E9489
:1028D0006A1D0E94CC1C91E0B82EB92601C0B12C13
:1028E000CC2EC2948FE0C822D12CF601E859FF4FBC
:1028F0000C94C12E8C2F807FCF70882311F0C2954D
:10290000C07F112399F0CC2309F4D0C180E28D0F50
:10291000883010F0D11104C08C2F0E94D61C03C047
:102920008C2F0E94E61C0E941F1DC0C18D2F0E948B
:10293000CE13CC2309F403C280E28D0F883010F04F
:10294000D11104C08C2F0E94DC1C03C08C2F0E946C
:10295000EC1C0E941F1DF3C18C2F807FCF70803232
:1029600011F0C295C07FDD2319F0D130C9F022C02B
:10297000112371F0002341F0013031F40E94061D53
:102980008C2B0E940C1DDBC10E94061D8C2B46C1A6
:10299000002319F0013009F4D2C10E94151D18C09E
:1029A000112321F0063008F0CAC10EC0053008F02E
:1029B000C6C10EC0112351F0002331F0F70185810B
:1029C00080FF74C18F7085838C2F28C101117FC156
:1029D0008C2F2AC18C2F86958695837090E0009766
:1029E00019F0019761F0ABC1112321F08D2F9C2FBD
:1029F000937002C080E090E00E947011B0C111237A
:102A000021F08D2F9C2F937002C080E090E00E94F7
:102A10008611A5C11123F9F0D53F51F0D63F71F0D1
:102A2000D43FA9F4809180029091810281600BC013
:102A30008091800290918102826005C08091800225
:102A400090918102846090938102809380028D2F07
:102A50000E94A2211EC0D53F51F0D63F71F0D43F55
:102A6000A9F480918002909181028E7F0BC08091A9
:102A70008002909181028D7F05C0809180029091AB
:102A800081028B7F90938102809380028D2F0E9420
:102A90000A220E948F2263C18C2F837009F050C0DC
:102AA000111159C18D2F829586958770880F880FD7
:102AB0009D2F9F70492E512C612C712C082E04C023
:102AC000440C551C661C771C0A94D2F7D4FF14C022
:102AD0000FE010E020E030E0B901A80104C0440F8D
:102AE000551F661F771F8A95D2F7CB01BA016095F3
:102AF00070958095909503C060E070E0CB01C6951D
:102B0000C695C370D0E0C230D10561F0C330D105A5
:102B100081F06429752986299729219771F00E94EF
:102B20000D1B19C164297529862997290E941F1B2D
:102B300012C10E940D1BC301B2010E94FB1A0BC1FE
:102B4000112319F08C2F817001C08695882309F418
:102B500002C18D2F829586958770880F880F9D2FD3
:102B60009F70492E512C612C712C082E04C0440CEE
:102B7000551C661C771C0A94D2F7D4FF14C00FE0D2
:102B800010E020E030E0B901A80104C0440F551F57
:102B9000661F771F8A95D2F7CB01BA0160957095B1
:102BA0008095909503C060E070E0CB01C695C69516
:102BB000C3704C2F50E04230510569F0433051054D
:102BC00089F064297529862997294130510571F0CA
:102BD0000E94D31BC0C064297529862997290E94A9
:102BE000E51BB9C00E94D31BC301B2010E94C11BE7
:102BF000B2C08D2F90E0FC01E05EF109E531F105F6
:102C000008F050C0E858FF4F0C94C12EDF708C2F95
:102C10008F71112331F00E945A1B8D2F0E943614A0
:102C20008EC00E947B1B8D2F0E943D1488C01123F3
:102C300041F0053008F083C08C2F8F710E94A01BDB
:102C40007EC0063008F07BC0F7CF112339F08C2FFF
:102C50008F710E945A1B73C01123C9F38C2F8F717F
:102C60000E947B1B6CC0112329F08C2F8F710E9456
:102C7000451B65C00E94401B62C0112349F0CF7103
:102C80008C2F0E945A1B63E08C2F0E94551D57C049
:102C900081E00E946A1D023008F451C082E00E9467
:102CA0006A1D4DC0112331F0002389F28D2F0E943F
:102CB000B01245C0002391F2D93349F45FEF67EEBB
:102CC00073E0515060407040E1F700C000008D2F6C
:102CD0000E94CE1334C04C2F4F706D2FC7010E943D
:102CE0007B060E946C1A3BC0111139C0CF70D0E036
:102CF000C230D10599F03CF4209769F02197F9F49E
:102D00000E946E232CC0C430D10571F054F0259779
:102D1000B1F480E00AC00E94512321C00E94AD237B
:102D20001EC00E94B4231BC085E00E94D72317C099
:102D30004C2F4F706D2FC7010E947E0610C088E097
:102D4000C816D10441F05CF0EAE0CE1AD108F2E0F6
:102D5000CF16D10420F40E943C110E940404BB2031
:102D6000F1F00E94C81C80FD1AC0F70112820E9477
:102D7000C21C0E945A1BC7010E94DD160E94C21C81
:102D8000DF91CF911F910F91FF90EF90DF90CF9047
:102D9000BF907F906F905F904F900C947B1BDF9162
:102DA000CF911F910F91FF90EF90DF90CF90BF9048
:102DB0007F906F905F904F9008950F931F93CF93E4
:102DC000DF93EC01888199812B813C81232BB9F021
:102DD0009F3F11F48F3F99F0CE010E941604882383
:102DE00071F0688179818A810E949F1C8C010E9408
:102DF000F71B0E94F81AB801CE010E944414DF911B
:102E0000CF911F910F9108950E94F31C0E94031D02
:102E10000E941F1D0E9428230E948F2280E090E0C4
:102E20000E94701180E090E00C94861180910E0158
:102E300090910F010E948D1E0C9404170E94E31CB8
:102E40000C941617E92FE295EF70F0E03297EE3010
:102E5000F105B0F4E357FF4F0C94C12E803F91F081
:102E600018F4803E68F40EC0843F51F40BC0803EDD
:102E700048F0813F29F406C093FB882780F9089524
:102E800080E0089581E008950E94941C0E9422171A
:102E90000895CF93DF9300D000D01F92CDB7DEB757
:102EA0000F900F900F900F900F90DF91CF9108959A
:102EB000CF93DF9300D000D000D0CDB7DEB72696F9
:102EC0000FB6F894DEBF0FBECDBFDF91CF9108954E
:102ED0001F93CF93DF93C091970116E080919801E3
:102EE000C81799F0D0E01C9FF0011D9FF00D112430
:102EF000E756FE4F408151816281738184819581C3
:102F00000E9458172196C770E9CFDF91CF911F918A
:102F100008954091C9015091CA016091CB0170910F
:102F2000CC018091CD019091CE010C9458178091E5
:102F3000CE0182958F7009F054C08091CB01882317
:102F400009F44FC080919701A09198016091C90147
:102F50007091CA014091CC015091CD01B6E08A1721
:102F600009F43FC090E041155105C1F17F3F11F4D4
:102F70006F3FA1F1B89FF001B99FF00D1124E75602
:102F8000FE4F218172132AC02081621327C0228143
:102F9000211124C0238134812417350710F42150D6
:102FA0003109241B350B283C3105C0F42091CE019A
:102FB0002F7020612093CE0126E0289FF001299FE9
:102FC000F00D1124E256FE4F80818F708061808366
:102FD00089EC91E00E94DD160C94681701968770C9
:102FE000BECF0895CF92DF92EF92FF920F931F937F
:102FF000CF93DF93CDB7DEB762970FB6F894DEBFFD
:103000000FBECDBF8C0185E0F801DE011D96019059
:103010000D928A95E1F7D8014C9111965C91119728
:1030200012966C9112971396CD90DC901497309174
:10303000C9017091CA018091CC019091CD01009796
:1030400009F46BC17F3F19F43F3F09F466C1E0907A
:10305000CB01EE2009F4C0C02091CE01C816D906DC
:1030600028F0F601E81BF90BCF0104C0809590957C
:103070008C0D9D1DFF24F394883C910578F0F12C74
:10308000207F09F0C6C07C2DD98AC88A89890E9410
:10309000491789EC91E00E94DD16B1C0822F807F34
:1030A00009F046C0751314C0341312C0611110C06A
:1030B0002F7020612093CE010E94891789EC91E046
:1030C0000E94DD168091CE01D80115968C932EC0FA
:1030D000CD2819F15F3F11F44F3FF9F0F62E611141
:1030E0001CC0809197012091980136E0821709F465
:1030F0005AC090E0389FF001399FF00D1124E75637
:10310000FE4F7181571306C07081471303C072814F
:10311000711103C001968770E9CFF62E662309F47A
:1031200027C18091CE0181608093CE01F12C20C116
:10313000751308C0341306C0611104C08091CE011C
:10314000D801C3C04D875E878D859E856A8B0E949E
:1031500044176A898823E1F16623D1F12091CE01D9
:10316000822F82958F7090E0029774F08091C90150
:103170009091CA0198878F831986DB86CA862C872F
:10318000CE0107960E94DD1686E0F801A9ECB1E0B9
:1031900001900D928A95E1F70E9497170E94891776
:1031A000FF24F394E5C04D875E878D859E850E9440
:1031B000941C292F22952F7030E0223031050CF01D
:1031C000CBC09F7009F0C5C0805E883008F4D0C0C5
:1031D000C8010E94DD16E4CFC816D90608F453C012
:1031E000F601E81BF90BCF01883C910508F450C0AB
:1031F000F12C7C2DD98AC88A89890E944917E9EC6B
:10320000F1E086E0DF011D928A95E9F70E948917B7
:10321000AFC0751314C0341312C0611110C0809177
:10322000CE01F8018583C8010E94DD1686E0E9EC35
:10323000F1E0DF011D928A95E9F7FE2C99C04D87D8
:103240005E878D859E856A8B0E9444176A898823D4
:1032500009F4BECF662309F4BBCF2091CE01822FA3
:1032600082958F7090E002970CF48ECF8091C90107
:103270009091CA019A8389831B82DD82CC822E833E
:10328000CE0101967FCF809590958C0D9D1DACCF82
:10329000F62E662309F49CCF75132EC034132CC070
:1032A0002091CE0120FD1FC0822F82958F70D9F012
:1032B000D80115962C9315978F3049F08F5F982F72
:1032C0009295907F822F8F70892B15968C93C801D1
:1032D0000E94DD1686E0F801A9ECB1E001900D92A4
:1032E0008A95E1F793CF86E0F801A9ECB1E001906F
:1032F0000D928A95E1F73CC04D875E878D859E854E
:103300000E944417811140CF8091CE01816080934B
:10331000CE01C8010E94DD162BC0662309F458CFE8
:103320004D875E878D859E850E944417F82E8823E1
:1033300009F44ECF86E0F801A9ECB1E001900D92BE
:103340008A95E1F789EC91E00E94AA120E949717F2
:103350005DCF811139CF0CC0243031050CF038CF4E
:103360009F7009F431CFF8019581907F09F02CCF3F
:103370008F2D62960FB6F894DEBF0FBECDBFDF91E2
:10338000CF911F910F91FF90EF90DF90CF90089514
:103390001F93CF93DF93CDB7DEB72C970FB6F8947A
:1033A000DEBF0FBECDBF4F83588769877A878B8773
:1033B0009C87CE0107960E94F217882369F08F81BF
:1033C00098852A853B85232BF1F19F3F09F063C047
:1033D0008F3F09F060C037C086E0FE013796DE01FE
:1033E000119601900D928A95E1F76F817885EA85B3
:1033F000FB85309741F17F3F11F46F3F21F1209120
:10340000980130E0C9010196877099274091970192
:1034100050E08417950709F447C069837A83FD83D8
:10342000EC8396E0929FD001939FB00D1124A75694
:10343000BE4FFE01319601900D929A95E1F780936F
:1034400098010E94681716E0809197019091980169
:103450008917C1F1189FC001112487569E4F0E9401
:10346000F217882379F1E09197011E9FF001112452
:10347000E756FE4F4081518162817381848195813D
:103480000E9458178091970190E0019687709927C4
:1034900080939701D9CF4F81588569857A858B852F
:1034A0009C850E945817CFCF0E941E17109298013A
:1034B00010929701E9ECF1E086E0DF011D928A9518
:1034C000E9F7C1CF2C960FB6F894DEBF0FBECDBF83
:1034D000DF91CF911F910895EF92FF920F931F9369
:1034E000CF93DF938C01892B09F46CC0F12CEE246F
:1034F000E394E8012196F8018491843740F4843004
:1035000008F051C0813081F0823019F15BC08537FD
:1035100009F444C0A8F19CE7980F903708F052C016
:103520008F770E94CE1341C00E5F1F4FFE01C491E2
:1035300080E28C0F883048F4C7708E2D01C0880F50
:10354000CA95EAF70E94F61C14C08C2F0E94B01294
:103550002DC00E5F1F4FFE01C49180E28C0F88309A
:1035600058F4C7708E2D01C0880FCA95EAF70E94E3
:10357000FC1C0E941F1D1AC08C2F0E94CE1316C067
:103580000E5F1F4FFE01C491CC2381F08FE99FE0B5
:103590000197F1F700C00000C150F6CF0E5F1F4F3A
:1035A000FE01F49003C00E94B0128E018F2D88237B
:1035B00009F49FCFEFE9FFE03197F1F700C0000079
:1035C0008150F5CFDF91CF911F910F91FF90EF9038
:1035D000089508950C94E91A0E94EA1A609305026E
:1035E0007093060280930702909308020C940417CC
:1035F00008950C94EC1A0F931F93009105021091FB
:1036000006022091070230910802602B712B822B59
:10361000932B1F910F910C94EC1A0F931F93009111
:1036200005021091060220910702309108026023E2
:103630007123822393231F910F910C94EC1A0F9303
:103640001F9300910502109106022091070230910C
:10365000080260277127822793271F910F910C94EE
:10366000EC1A08950C94311B0E94321B60930102E6
:103670007093020280930302909304020C94041747
:1036800060E070E0CB010C94341B0F931F9341E07A
:1036900050E060E070E08A019B0104C0000F111F40
:1036A000221F331F8A95D2F7C901B8011F910F91CC
:1036B0000C94341B0F931F9341E050E060E070E0E6
:1036C00004C0440F551F661F771F8A95D2F780915B
:1036D000010290910202A0910302B09104028A01BA
:1036E0009B01082B192B2A2B3B2BC901B8011F91D9
:1036F0000F910C94341B0F931F9341E050E060E056
:1037000070E004C0440F551F661F771F8A95D2F7DB
:1037100040955095609570958091010290910202BC
:10372000A0910302B09104028A019B01082319238E
:103730002A233B23C901B8011F910F910C94341B1C
:103740000F931F9341E050E060E070E004C0440F2D
:10375000551F661F771F8A95D2F7809101029091BD
:103760000202A0910302B09104028A019B01082782
:1037700019272A273B27C901B8011F910F910C94E3
:10378000341B0F931F9300910102109102022091AC
:10379000030230910402602B712B822B932B1F911B
:1037A0000F910C94341B0F931F9300910102109101
:1037B00002022091030230910402602371238223CC
:1037C00093231F910F910C94341B0F931F9300911F
:1037D000010210910202209103023091040260273D
:1037E0007127822793271F910F910C94341B089502
:1037F0002FE0929F800D1124A82FA695A695A6953F
:10380000877051E001C0550F8A95EAF785E0A89FBF
:10381000D001112420E030E070E0F901EA0FFB1F35
:10382000E153FE4F4081CB01022E02C09695879551
:103830000A94E2F78170992781958427852384274C
:1038400080832F5F3F4F2530310539F708952FE0F2
:10385000929F800D1124682F669566956695982F26
:10386000977085E0689FB001112440E050E080E04F
:10387000FA01E60FF71FE153FE4F208130E0092ED9
:1038800002C0369527950A94E2F721703327042E5B
:1038900001C0220F0A94EAF7822B4F5F5F4F453039
:1038A000510531F70895BF92CF92DF92EF92FF92C8
:1038B0000F931F93CF93DF938C01C0900502D0909C
:1038C0000602E0900702F0900802809101029091B8
:1038D0000202A0910302B0910402C82AD92AEA2A5E
:1038E000FB2ACFE1D0E0D701C6010C2E04C0B6956B
:1038F000A795979587950A94D2F780FF07C0BC2EAD
:10390000B8018C2F0E949906019719F4219758F756
:10391000B12C8B2DDF91CF911F910F91FF90EF90E4
:10392000DF90CF90BF900895CF93DF93EC010E947A
:10393000531CBE010E949906DF91CF9108951F93F9
:10394000CF93DF93EB0190919601992321F0CB0166
:103950000E94941C13C0882349F0CB010E94531C81
:10396000182F682FCE010E94F81B04C0CB010E94C3
:10397000271C182FBE01812F0E949906DF91CF913D
:103980001F910895809109028595859585950895E3
:10399000809109028770089590910902977081E0E3
:1039A00009F480E0089580912D02089590912D02F0
:1039B000892B80932D020895809590912D02892363
:1039C00080932D02089510922D02089590912C025B
:1039D000892B80932C020895809590912C02892345
:1039E00080932C02089510922C02089590912B023E
:1039F000892B80932B020895809590912B02892327
:103A000080932B02089510922B02089580910A0250
:103A1000089508950C94091D90910A02981721F0B9
:103A200080930A020C940A1D089580910A0288234B
:103A300029F010920A0280E00C940A1D0895E0918A
:103A40000E01F0910F0180912D028083E0910E0113
:103A5000F0910F01908180912C02892B8083E0915D
:103A60000E01F0910F01908180912B02892B8083B0
:103A700080910A02882381F0E0910E01F0910F01FC
:103A80009081892B808380910E0190910F010E947B
:103A9000121E81110E94151D80910E0190910F013F
:103AA0000C94481108950C94521D98E0899F900140
:103AB0001124262B209309020E945A1B809109028F
:103AC0008595859585950C94531D1092090280E08B
:103AD0000C94531D20910902809582238093090242
:103AE000982F977079F430E0482F082E000C550B72
:103AF0002417350739F08595859585950E947B1BA0
:103B00000C94651D089580E090E00E94FC2E21E059
:103B10008D3E9E4F09F020E0822F089582E090E0D4
:103B20000C94EE2E682F82E090E00C94022F83E03C
:103B300090E00C94EE2E682F83E090E00C94022F1E
:103B400084E090E00C94EE2E682F84E090E00C94DA
:103B5000022F86E090E00C94EE2E682F86E090E035
:103B60000C94022FAB01BC018FE090E00C94142F59
:103B7000AB01BC0183E190E00C94142F60E070E095
:103B8000CB010C94B81D60E070E0CB010E94B21D27
:103B90000C94BE1D6DEE7EEF80E090E00E94202F21
:103BA00060E082E090E00E94022F60E083E090E01D
:103BB0000E94022F10920502109206021092070234
:103BC0001092080260E084E090E00E94022F60E022
:103BD00085E090E00E94022F60E086E090E00E9485
:103BE000022F6FEF87E090E00E94022F40E050E04C
:103BF000BA0188E090E00E94142F60E08DE090E030
:103C00000E94022F40E050E0BA0188E190E00E945B
:103C1000142F60E087E190E00E94022F0C94C31DF6
:103C20000C94CA1DFC01329680912001882331F04A
:103C30008091860287FF02C09EE101C096E080E08D
:103C4000915028F021912223D9F38F5FF9CF089565
:103C50009C01FC0132969FEF80E04191461789F06C
:103C60009F3F19F4411101C0982F8F5F8630A9F74B
:103C70009F3F39F0F901E90FF11D97FDFA95628335
:103C800008950895FC01329608962081261301C0FC
:103C900010823196E817F907C1F70895262F269567
:103CA000269526952E3168F4FC01E20FF11D677010
:103CB00021E030E001C0220F6A95EAF78281282BCB
:103CC00022830895262F2695269526952E3170F469
:103CD000FC01E20FF11D677021E030E001C0220F0E
:103CE0006A95EAF7209582812823228308952091FE
:103CF0002001222329F02091860227FD0C944E1EDC
:103D00000C94281E20912001222329F02091860264
:103D100027FD0C94621E0C94421E20912001FC0190
:103D20003296222331F08091860287FF02C08EE115
:103D300001C086E0DF011D928A95E9F70895089594
:103D40000C949F1E0E94A01E80918D02843061F110
:103D500010922F0220E488E190E00FB6F894A89525
:103D6000809360000FBE2093600080E00E94890372
:103D700080E00E9404040E94A01E83B7817F8460BB
:103D800083BF83B7816083BF7894889583B78E7F24
:103D900083BF0FB6F894A8958091600088618093E6
:103DA0006000109260000FBE089508950895CF93AB
:103DB0000E94D51E0E9486090E94D61EC0E08C2F4C
:103DC0000E943209892B29F4CF5FC530C1F780E00A
:103DD00001C081E0CF91089508950C94EC1E0E94DB
:103DE0001E170E9434230E943C110E9404040C946C
:103DF000ED1E1F920F920FB60F9211248F939F9377
:103E0000AF93BF9380912F02811113C080918202E2
:103E100090918302A0918402B09185024196A11DE8
:103E2000B11D8093820290938302A0938402B09389
:103E30008502BF91AF919F918F910F900FBE0F9010
:103E40001F90189582E084BD93E095BD9AEF97BDD1
:103E500080936E0008952FB7F8948091820290911C
:103E60008302A0918402B09185022FBF0895CF9262
:103E7000DF92EF92FF920F931F932FB7F894409128
:103E800082025091830260918402709185022FBF5B
:103E90006A017B01EE24FF248C0120E030E0C01693
:103EA000D106E206F30610F4415051099A01281B8D
:103EB000390BC9011F910F91FF90EF90DF90CF90C8
:103EC000089578941F920F920FB60F9211248F933A
:103ED0009F93AF93BF938091820290918302A091B0
:103EE0008402B09185020196A11DB11D80938202CA
:103EF00090938302A0938402B0938502BF91AF9107
:103F00009F918F910F900FBE0F901F90189581E099
:103F10008093E00080E28093D8001092C9008FE186
:103F20009EE40197F1F700C0000087E090EBDC0110
:103F30008093960290939702A0939802B09399026F
:103F40009CE088E10FB6F894A895809360000FBEBE
:103F500090936000FFCFAF92BF92CF92DF92EF922B
:103F6000FF920F931F93CF93C0E0CC24C394D12C26
:103F7000E82EF12C8C2F0E9432095C0100E010E049
:103F80009601002E02C0220F331F0A94E2F72A2165
:103F90003B21232B31F40F5F1F4F0F30110581F7A9
:103FA0000AC0602F7C2F80E00E947F06E816F90689
:103FB00091F781E004C0CF5FC530E1F680E0CF919A
:103FC0001F910F91FF90EF90DF90CF90BF90AF9037
:103FD0000895CF93C82F8CE20E94AB1F882321F055
:103FE0008C2FCF910C94AB1F80E0CF910895CF938D
:103FF0000E94831D811102C00E94101EC5E6C1509F
:1040000049F00E9486098FE39CE90197F1F700C00F
:104010000000F5CF89E20E94E91F81110FC18AE2F9
:104020000E94E91F81110E94101E85E00E94E91F75
:1040300081110E94871F0E948E1D80932E0287E0AF
:104040000E94E91F8823A9F18BE10E94E91F8823C0
:1040500051F080912E0281FB222720F991E09227D6
:1040600090FB81F90EC08EE00E94E91F882361F069
:1040700080912E0282FB222720F991E0922790FB6B
:1040800082F980932E0215C080E10E94E91F909171
:104090002E02882341F093FB222720F981E082271A
:1040A00080FB93F904C0892F809580FB90F9909351
:1040B0002E0280912E020E94921D0E94A01D90E06F
:1040C000909387028093860280EE0E94E91F8823E6
:1040D00041F080918602982F909590FB80F9809313
:1040E000860289E30E94E91F882359F080918602A5
:1040F00081FB222720F991E0922790FB81F98093A0
:10410000860282EE0E94E91F882359F08091860280
:1041100082FB222720F991E0922790FB82F980937D
:10412000860286EE0E94E91F882359F0809186025C
:1041300083FB222720F991E0922790FB83F980935B
:10414000860283EE0E94E91F882359F0809186023F
:1041500084FB222720F991E0922790FB84F9809339
:10416000860285E30E94E91F882359F08091860228
:1041700085FB222720F991E0922790FB85F9809317
:10418000860281E30E94E91F882359F0809186020C
:1041900086FB222720F991E0922790FB86F98093F5
:1041A000860281E10E94E91F882359F080918602EE
:1041B00087FB222720F991E0922790FB87F98093D3
:1041C0008602809186020E94A41D87E20E94E91F58
:1041D000C82F8EE10E94E91F8111C2608FE10E9409
:1041E000E91F8111C46080E20E94E91F8111C8604B
:1041F00081E20E94E91F8111C06182E20E94E91FF1
:104200008111C06283E20E94E91F8111C06484E2CF
:104210000E94E91F882311F0C06802C0CC2329F056
:104220008C2F0E949B1D6C2F03C00E94971D682F2E
:1042300070E080E090E0CF910C94F91ACF9108954E
:104240008091330280FF0BC06091130185E0689F6D
:10425000B001112475956795759567952BC081FF01
:1042600009C06091130185E0689FB0011124759524
:10427000679520C082FF07C06091130185E0689FA9
:10428000B001112417C0909132029923D1F06091AE
:104290001201961788F72091130185E0289F90015D
:1042A0001124929FA001939F500D112470E0CA0128
:1042B0000E948B2E6038710540F46115710539F04C
:1042C00002C065E070E0862F08958FE7089581E0D1
:1042D00008958091330280FF08C06091110170E061
:1042E000759567957595679521C081FF06C06091AA
:1042F000110170E07595679519C082FF04C0609147
:10430000110170E010C0909132029923C1F06091C8
:1043100010019617A0F780911101899FC001112407
:1043200070E00E948B2E6038710528F461157105CC
:1043300021F0862F08958FE7089581E0089561E0C8
:1043400070E0F4CF803F21F40E942021819504C0C9
:10435000813F29F40E942021809337020895823FF3
:1043600021F40E942021819504C0833F29F40E94FA
:104370002021809336020895893F19F40E94692113
:1043800005C08A3F31F40E946921819580933802EB
:1043900008958B3F21F40E946921819504C08C3FD0
:1043A00029F40E946921809339020895843F21F401
:1043B00080913502816017C0853F21F480913502DC
:1043C000826011C0863F21F48091350284600BC069
:1043D000873F21F480913502886005C0883F31F421
:1043E0008091350280618093350208958D3F21F4DC
:1043F0008091330281600BC08E3F21F480913302A3
:10440000826005C08F3F29F48091330284608093DD
:1044100033020895803F39F48091370287FF6CC0E2
:104420001092370269C0813F29F480913702181633
:10443000BCF362C090913602823F29F497FF5CC0C2
:104440001092360259C0833F19F41916CCF354C0A8
:10445000893F41F48091380218160CF04DC010923B
:1044600038024AC08A3F29F48091380287FF44C04D
:10447000F6CF8B3F39F48091390287FF3DC010920F
:1044800039023AC08C3F29F4809139021816BCF3E6
:1044900033C0843F21F4809135028E7F17C0853F61
:1044A00021F4809135028D7F11C0863F21F48091E7
:1044B00035028B7F0BC0873F21F480913502877FC7
:1044C00005C0883F31F4809135028F7E809335029C
:1044D00013C08D3F21F4809133028E7F0BC08E3F3D
:1044E00021F4809133028D7F05C08F3F29F48091A4
:1044F00033028B7F809333028091360281110EC08C
:104500008091370281110AC080913802811106C062
:1045100080913902811102C010923202089584E321
:1045200092E00E9462110E942B1F909331028093AF
:10453000300208951F93CF93DF93809130029091C2
:1045400031020E94371FAC0190913202992321F071
:104550002091140130E006C0209115018AE0289FC7
:10456000900111244217530708F46EC0809136025F
:10457000C0913702D091380210913902811107C0E1
:10458000C1115EC0D1115CC011115AC05DC09F3F06
:1045900019F09F5F90933202181624F40E94202194
:1045A000809336028091360287FF05C00E94202149
:1045B0008195809336021C1624F40E94202180935A
:1045C00037028091370287FF05C00E942021819524
:1045D0008093370240913602442379F030913702BC
:1045E000332359F025EB4203A001112450933602E6
:1045F0003203C0011124909337021D1624F40E9447
:104600006921809338028091380287FF05C00E949B
:104610006921819580933802111624F40E94692142
:10462000809339028091390287FF05C00E94692179
:10463000819580933902DF91CF911F910C948F2245
:104640009F3F09F0A6CFAECFDF91CF911F91089584
:10465000E4E3F2E086E0DF011D928A95E9F710922B
:1046600032021092330208950E94831D811102C00C
:104670000E94101E0E94A91D80938802282F269553
:1046800030E02630310524F081708A608093880202
:104690008091880280FF02C0869501C080E00C9462
:1046A000890320918802822F8695482F50E045305B
:1046B000510544F48F5F982F990F822F8170892BB9
:1046C00080938802809188028160809388020E9492
:1046D000AD1D8091880286950C9489038091880293
:1046E000982F969591F09158990F8170892B80930E
:1046F00088028E7F91E009F490E08091880290FB1F
:1047000080F9809388020E94AD1D80918802869571
:104710000C9489038091880280FD11C08160809390
:104720008802813019F483E08093880280918802A6
:104730000E94AD1D8091880286950C94890308958E
:104740008091880280FF08C08E7F809388020E943B
:10475000AD1D80E00C94890308958091880280FD4E
:104760000C94A0230C948A2390918802892F86951B
:104770008F5F8F779170863028F4880F892B809314
:10478000880202C090938802809188028E7F91E017
:1047900009F490E08091880290FB80F98093880270
:1047A0000E94AD1D8091880286950C948903863005
:1047B00008F085E0880F909188029170892B809392
:1047C00088028E7F91E009F490E08091880290FB4E
:1047D00080F9809388020E94AD1D809188028695A1
:1047E0000C94890380915A0208950F931F93CF93DD
:1047F000DF9300D01F92CDB7DEB78C010E946526F3
:10480000823011F0843021F584E089831B830A8390
:1048100082E08093E9008FEF9091E800815095FD50
:1048200006C095ED9A95F1F700008111F5CF8091C2
:10483000E80085FF0DC040E050E063E070E0CE018D
:1048400001960E9482268091E8008E778093E8008E
:104850000F900F900F90DF91CF911F910F910895BE
:10486000CF93DF9300D01F92CDB7DEB720918D029A
:10487000243031F523E02983805891099B838A8372
:1048800082E08093E9008FEF9091E800815095FDE0
:1048900006C095ED9A95F1F700008111F5CF809152
:1048A000E80085FF0DC040E050E063E070E0CE011D
:1048B00001960E9482268091E8008E778093E8001E
:1048C0000F900F900F90DF91CF910895CF93DF93CA
:1048D000EC010E946526823011F08430F9F482E008
:1048E0008093E9009FEF8091E800915085FD06C01C
:1048F00085ED8A95F1F700009111F5CF8091E800E0
:1049000085FF0CC040E050E066E070E0CE010E9400
:1049100082268091E8008E778093E800DF91CF9126
:104920000895CF93DF93EC010E946526823011F049
:104930008430D9F580912001882339F08091860256
:1049400087FF03C060E282E002C068E081E08093FC
:10495000E9008FEF9091E800815095FD06C095ED3C
:104960009A95F1F700008111F5CF8091E80085FF5D
:104970001CC080912001811105C040E050E068E03A
:1049800070E003C070E040E050E0CE010E9482265B
:104990008091E8008E778093E80080E2FE01AAE330
:1049A000B2E001900D928A95E1F7DF91CF910895E1
:1049B00080918C02811109C00E9417280E947428DE
:1049C0008091E20084608093E200089510928C024E
:1049D0000895089508950C94EF1E42E061EC81E083
:1049E0000E94912742E261EC82E00C949127809131
:1049F0008F02833009F460C030F4813071F082306E
:104A000009F499C008958A3009F485C08B3009F4FF
:104A10006BC0893009F0A7C020C080918E02813A16
:104A200009F0A1C08091E800877F8093E800809121
:104A3000920290919302892B21F460E28AE392E042
:104A400003C060E080E090E070E00E94CD2680919D
:104A5000E8008B778093E800089580918E02813280
:104A600009F081C08091920290919302029708F020
:104A70007AC08091E800877F8093E8008091E80009
:104A800082FD05C080918D028111F8CF6CC020910C
:104A9000F3008091F20090E0922B029729F480912C
:104AA000F1008B7F813021F48091F10080935A02D4
:104AB0008091E8008B7753C080918E02813A09F093
:104AC00052C08091920290919302892B09F04BC0C1
:104AD0008091E800877F8093E8008091E80080FF64
:104AE000FCCF8091200136C080918E028132D9F5B1
:104AF0008091920290919302892BA9F58091E80010
:104B0000877F8093E8000E94C6278091900280935F
:104B100020010C941E1780918E02813221F5809124
:104B2000E800877F8093E8000E94C6278091910269
:104B300080935B02089580918E02813AA1F4809166
:104B4000E800877F8093E8008091E80080FFFCCF39
:104B500080915B028093F1008091E8008E778093D2
:104B6000E8000C94C627089584B7877F84BF0FB6EA
:104B7000F894A895809160008861809360001092FD
:104B800060000FBE80E880936100109261000E9477
:104B9000AA110E9417280E9474288091E200846064
:104BA0008093E20078940E94032B0E94B21186E168
:104BB00091E00E94371180918D02853069F40E9446
:104BC000A21E80918B028823B1F30E94D71E8823F6
:104BD00091F30E946C26EFCF0E94BE110E946710D5
:104BE000EACF0C94F325292F332723303105C9F060
:104BF00064F42130310581F02230310509F04CC0D8
:104C00008BE390E020E934E04BC02132310521F103
:104C10002232310589F140C082E190E02BEC34E092
:104C20003FC099278130910571F02CF4892BA1F5B3
:104C3000ECE8F4E00DC08230910541F0039761F596
:104C4000EEE6F4E005C0E0E8F4E002C0E4E7F4E0FA
:104C5000849190E09F0124C06115710541F061309D
:104C60007105D1F489E090E02BEB34E019C089E0C4
:104C700090E022EA34E014C06115710541F0613022
:104C8000710551F480EC90E02DED34E009C080E432
:104C900090E02DE935E004C080E090E020E030E0D5
:104CA000FA013183208308950895CF93C82F0E947D
:104CB0005426C0935C02CF91089580918D02843078
:104CC00011F081E0089582E0089580915C028111E5
:104CD00002C00C945D26089580E189BD82E189BD02
:104CE00009B400FEFDCF8091D8008F7D8093D8005D
:104CF0008091E00082608093E0008091E00081FD7F
:104D0000FCCF0895CF92DF92EF92FF920F931F9303
:104D1000CF93DF93EC018B016A010E94E52781119B
:104D200033C0C114D10439F0F60180819181081B90
:104D3000190BC80FD91FE12CF12C0115110519F120
:104D40008091E80085FD16C08091E8008E77809301
:104D5000E800C114D10449F0F60180819181E80E88
:104D6000F91EF182E08285E00FC00E94E5278823CA
:104D700021F30AC089918093F10001501109FFEFDE
:104D8000EF1AFF0ADACF80E0DF91CF911F910F91E8
:104D9000FF90EF90DF90CF90089520919402309192
:104DA00095022617370748F06115710539F42091EF
:104DB000E8002E772093E80001C0B90140E06115BA
:104DC0007105A9F120918D02222309F443C02530F9
:104DD00009F442C02091E80023FD40C02091E80082
:104DE00022FD32C02091E80020FFE9CF4091F3007E
:104DF0002091F20030E0342BFC01CF0161157105E8
:104E000059F02830310540F481918093F1006150D0
:104E100071092F5F3F4FF1CF41E02830310509F094
:104E200040E02091E8002E772093E800C8CF4111A0
:104E3000C9CF0AC080918D02882361F0853061F06E
:104E40008091E80083FD0AC08091E80082FFF2CFE4
:104E500080E0089582E0089583E0089581E0089558
:104E600020919402309195022617370748F061157A
:104E7000710539F42091E8002E772093E80001C0F5
:104E8000B901FC0120E06115710591F180918D025D
:104E9000882309F440C0853009F43FC08091E800C0
:104EA00083FD3DC08091E80082FD2FC08091E80025
:104EB00080FFE9CF2091F3008091F20090E0922BE7
:104EC0006115710559F08830910540F424912093C3
:104ED000F1003196615071090196F2CF21E00897F7
:104EE00009F020E08091E8008E778093E800CBCF36
:104EF0002111CCCF0AC080918D02882361F08530CA
:104F000061F08091E80083FD0AC08091E80082FF93
:104F1000F2CF80E0089582E0089583E0089581E073
:104F20000895982F973058F59093E900981739F025
:104F30007091EC002091ED005091F00003C0242FFF
:104F4000762F50E021FF19C03091EB003E7F309367
:104F5000EB003091ED003D7F3093ED003091EB00A0
:104F600031603093EB007093EC002093ED00509390
:104F7000F0002091EE0027FF07C09F5FD3CF8F7016
:104F80008093E90081E0089580E0089580918E0289
:104F900087FF11C08091E80082FD05C080918D02DD
:104FA0008111F8CF11C08091E8008B770BC0809100
:104FB0008D02882349F08091E80080FFF8CF80912E
:104FC000E8008E778093E80008952091E400309106
:104FD000E50095E64091EC00842F817040FF22C0EF
:104FE0008091E80080FD1CC080918D02882391F0A3
:104FF000853091F08091EB0085FD10C04091E40078
:105000005091E5004217530729F39A01915011F787
:1050100084E0089582E0089583E0089581E0089592
:1050200080E008954091E80042FFDECF08950E949D
:1050300085280E948D28E0EEF0E0808181608083E9
:10504000E8EDF0E080818F77808319BCA7EDB0E0B8
:105050008C918E7F8C9380818F7E808310928C02C6
:1050600008950F931F93CF93DF930E9485280E948A
:105070008D28C8EDD0E088818F778883888180680B
:10508000888388818F7D888319BC10928D0210924D
:10509000890210928B0210928A0200EE10E0F80151
:1050A00080818B7F808388818160888342E060E09B
:1050B00080E00E949127E1EEF0E080818E7F808386
:1050C000E2EEF0E08081816080838081886080836F
:1050D000F80180818E7F8083888180618883DF9161
:1050E000CF911F910F910895E8EDF0E080818F7EC0
:1050F0008083E7EDF0E080818160808384E082BF7F
:1051000081E080938C020C943128E8EDF0E08081FE
:105110008E7F80831092E20008951092DA00109240
:10512000E10008951F920F920FB60F9211242F9352
:105130003F934F935F936F937F938F939F93AF931F
:10514000BF93EF93FF938091E10082FF0BC08091AA
:10515000E20082FF07C08091E1008B7F8093E10035
:105160000E94022B8091DA0080FF1FC08091D8003E
:1051700080FF1BC08091DA008E7F8093DA008091DF
:10518000D90080FF0DC080E189BD82E189BD09B4ED
:1051900000FEFDCF81E080938D020E94D82405C0DF
:1051A00019BC10928D020E94E6248091E10080FFDC
:1051B00019C08091E20080FF15C08091E2008E7FCF
:1051C0008093E2008091E20080618093E200809110
:1051D000D80080628093D80019BC85E080938D024E
:1051E0000E94EA248091E10084FF30C08091E200B7
:1051F00084FF2CC080E189BD82E189BD09B400FE35
:10520000FDCF8091D8008F7D8093D8008091E10000
:105210008F7E8093E1008091E2008F7E8093E20098
:105220008091E20081608093E2008091890288236E
:1052300011F084E007C08091E30087FD02C081E0A7
:1052400001C083E080938D020E94EB248091E100F5
:1052500083FF29C08091E20083FF25C08091E10097
:10526000877F8093E10082E080938D021092890213
:105270008091E1008E7F8093E1008091E2008E7F3B
:105280008093E2008091E20080618093E20042E03E
:1052900060E080E00E9491278091F0008860809318
:1052A000F0000E94E924FF91EF91BF91AF919F918F
:1052B0008F917F916F915F914F913F912F910F90BF
:1052C0000FBE0F901F9018951F920F920FB60F925E
:1052D00011242F933F934F935F936F937F938F93FB
:1052E0009F93AF93BF93CF93DF93EF93FF93C091BF
:1052F000E900CF708091EC00D82FD17080FDD0E80C
:105300001092E9008091F000877F8093F0007894FC
:105310000E94A8291092E9008091F0008860809393
:10532000F000CD2BCF70C093E900FF91EF91DF919A
:10533000CF91BF91AF919F918F917F916F915F912D
:105340004F913F912F910F900FBE0F901F90189586
:105350001F93CF93DF93CDB7DEB7AA970FB6F8941C
:10536000DEBF0FBECDBFEEE8F2E088E08E0F909179
:10537000F10091938E13FBCF0E94F7248091E800F7
:1053800083FF28C180918E0290918F02492F50E0B7
:105390004A30510508F01EC1FA01E556FF4F0C9442
:1053A000C12E803821F0823809F014C108C08091E4
:1053B0008A0290918B02992389F082600FC08091BC
:1053C00092028F70873008F005C18093E9008091C8
:1053D000EB0085FB882780F91092E9009091E800A6
:1053E000977F9093E8008093F1001092F100D0C075
:1053F000282F2D7F09F0EEC0882319F0823061F04C
:10540000E9C080919002813009F0E4C0933009F046
:1054100080E080938B022EC08091900281112AC07F
:10542000809192028F702FEF280F263008F0D2C0A3
:105430008093E9002091EB0020FF1CC0933021F401
:105440008091EB00806214C09091EB00906190938A
:10545000EB0021E030E0A90102C0440F551F8A95FE
:10546000E2F74093EA001092EA008091EB00886036
:105470008093EB001092E9008091E800877F809391
:10548000E8000E94C627A6C08111A4C01091900216
:105490001F778091E3008078812B8093E3008091D7
:1054A000E800877F8093E8000E94C6278091E8008B
:1054B00080FFFCCF8091E30080688093E3001111AE
:1054C00002C082E001C083E080938D0283C08058D7
:1054D000823008F07FC080919002909191028C3DC3
:1054E00053E0950779F583E08A838AE289834FB791
:1054F000F894DE01139620E03EE051E2E32FF0E065
:1055000050935700E49120FF03C0E295EF703F5F96
:10551000EF708E2F90E0EA3010F0C79601C0C09671
:105520008D939D932F5F243149F74FBF8091E80001
:10553000877F8093E8006AE270E0CE0101960E94C6
:10554000CD2615C06091920270919302AE014F5F1B
:105550005F4F0E94F125BC01892BE1F19091E80099
:10556000977F9093E80089819A810E9430278091EB
:10557000E8008B778093E8002DC0803859F5809142
:10558000E800877F8093E800809189028093F10092
:105590008091E8008E7773CF81111CC090919002AA
:1055A0009230C0F48091E800877F8093E800909368
:1055B00089020E94C62780918902811106C08091CC
:1055C000E30087FD02C081E001C084E080938D028A
:1055D0000E94ED248091E80083FF0AC08091E800DA
:1055E000877F8093E8008091EB0080628093EB00DE
:1055F000AA960FB6F894DEBF0FBECDBFDF91CF9154
:105600001F9108950895CF9380918D028823A1F072
:10561000C091E900CF709091EC00892F817090FDCE
:1056200080E8C82B1092E9008091E80083FD0E9479
:10563000A829CF70C093E900CF9108955058BB2797
:10564000AA270E94362B0C94E12C0E94D32C38F010
:105650000E94DA2C20F039F49F3F19F426F40C94C0
:10566000A92C0EF4E095E7FB0C94A32CE92F0E94E3
:10567000F22C58F3BA17620773078407950720F0D6
:1056800079F4A6F50C94142D0EF4E0950B2EBA2F98
:10569000A02D0B01B90190010C01CA01A001112438
:1056A000FF27591B99F0593F50F4503E68F11A16E4
:1056B000F040A22F232F342F4427585FF3CF469575
:1056C00037952795A795F0405395C9F77EF41F1697
:1056D000BA0B620B730B840BBAF09150A1F0FF0F61
:1056E000BB1F661F771F881FC2F70EC0BA0F621F4D
:1056F000731F841F48F4879577956795B795F7953D
:105700009E3F08F0B0CF9395880F08F09927EE0FD1
:105710009795879508950E949F2B0C94E12C0E94E9
:10572000DA2C58F00E94D32C40F029F45F3F29F086
:105730000C94A32C51110C94152D0C94A92C0E949F
:10574000F22C68F39923B1F3552391F3951B550B74
:10575000BB27AA2762177307840738F09F5F5F4F44
:10576000220F331F441FAA1FA9F335D00E2E3AF083
:10577000E0E832D091505040E695001CCAF72BD09B
:10578000FE2F29D0660F771F881FBB1F26173707EC
:105790004807AB07B0E809F0BB0B802DBF01FF271E
:1057A00093585F4F3AF09E3F510578F00C94A32C2C
:1057B0000C94152D5F3FE4F3983ED4F386957795CE
:1057C0006795B795F7959F5FC9F7880F911D9695D7
:1057D000879597F90895E1E0660F771F881FBB1F33
:1057E000621773078407BA0720F0621B730B840BE0
:1057F000BA0BEE1F88F7E095089529F416F00C9483
:10580000A32C0C94142D0C94A92C0E94FA2CA8F310
:105810009638A0F707F80F92E8942BE33AEA48EBA2
:105820005FE70E94A72D0F920F920F924DB75EB7C0
:105830000F920E945D2DEAE4F1E00E94AC2C4F91A2
:105840005F91EF91FF91E595EE1FFF1F49F0FE5725
:10585000E0684427EE0F441FFA95E1F74195550B98
:105860000E94272D0F9007FE0C941B2D08950E9477
:10587000FA2C88F09F5798F0B92F9927B751B0F0BC
:10588000E1F0660F771F881F991F1AF0BA95C9F7C4
:1058900014C0B13091F00E94142DB1E008950C9421
:1058A000142D672F782F8827B85F39F0B93FCCF3D4
:1058B000869577956795B395D9F73EF49095809541
:1058C000709561957F4F8F4F9F4F0895E89409C061
:1058D00097FB3EF490958095709561957F4F8F4F23
:1058E0009F4F9923A9F0F92F96E9BB279395F69539
:1058F000879577956795B795F111F8CFFAF4BB0FB7
:1059000011F460FF1BC06F5F7F4F8F4F9F4F16C01A
:10591000882311F096E911C0772321F09EE8872FA4
:10592000762F05C0662371F096E8862F70E060E060
:105930002AF09A95660F771F881FDAF7880F9695D9
:10594000879597F9089597F99F6780E870E060E080
:1059500008959FEF80EC0895DF93CF931F930F93EB
:10596000FF92EF92DF927B018C01689406C0DA2EE1
:10597000EF010E94A42DFE01E894A5912591359197
:1059800045915591A6F3EF010E94362BFE01970138
:10599000A801DA9469F7DF90EF90FF900F911F91C3
:1059A000CF91DF91089500240A9416161706180661
:1059B0000906089500240A94121613061406050613
:1059C0000895092E0394000C11F4882352F0BB0FA4
:1059D00040F4BF2B11F460FF04C06F5F7F4F8F4F07
:1059E0009F4F089557FD9058440F551F59F05F3F42
:1059F00071F04795880F97FB991F61F09F3F79F0F1
:105A000087950895121613061406551FF2CF469572
:105A1000F1DF08C0161617061806991FF1CF8695F4
:105A20007105610508940895E894BB2766277727D8
:105A3000CB0197F908959B01AC0160E070E080E82C
:105A40009FE30C948B2B0C94A32C0C94062E0E9499
:105A5000FA2CD8F39923C9F3940F511DA3F3915055
:105A6000504094F059F0882332F0660F771F881F5A
:105A700091505040C1F79E3F51052CF7880F911D62
:105A80009695879597F908955F3FACF0983E9CF006
:105A9000BB27869577956795B79508F4B160939580
:105AA000C1F7BB0F58F711F460FFE8CF6F5F7F4F6E
:105AB0008F4F9F4FE3CF0C94152DFA01DC01AA0FF5
:105AC000BB1F9B01AC01BF5728F422273327442773
:105AD000507820C0B75190F4AB2F002446953795ED
