:100000000C94E4020C942B030C942B030C942B0300
:100010000C942B030C942B030C942B030C942B03A8
:100020000C942B030C942B030C942F290C94012A71
:100030000C94611E0C942B030C942B030C942B0337
:100040000C942B030C942B030C942B030C942B0378
:100050000C942B030C94C91E0C942B030C942B03AF
:100060000C942B030C942B030C942B030C942B0358
:100070000C942B030C942B030C942B030C942B0348
:100080000C942B030C942B030C942B030C942B0338
:100090000C942B030C942B030C942B030C942B0328
:1000A0000C942B030C942B030C942B034105430558
:1000B0004E054505470549054B054D0550055205BB
:1000C00054055F05560558055A055C055E05610532
:1000D00015141514471447148514A5141516151670
:1000E000E7141516941594150516151615160E1603
:1000F000A115A115A115A115A115A115A115A11550
:10010000A115A115A115A115A115A115A115A1153F
:10011000B215C015C715CE15D815A416A416B61657
:10012000B616AD16B616B616B616A416A416B216A0
:10013000B616B616B2167D2373238B23E423EB2366
:10014000EB23E423EB23EB23AC23EB23B623C023E5
:10015000EB23EB23EB23EB23E423EB23EB23E4233D
:10016000EB239923EB23EB23D023D023D023D023DD
:10017000D023D023D023D023D023E623EB237D2309
:100180007023EB23EB23EB23EB23EB23EB23EB237A
:10019000EB23EB23EB23E623EB23EB23E423EB23FB
:1001A000CE23CE23CE23CE23CE23CE23CE23CE23C7
:1001B000CE23E6236E2A952A872B952A872BE12AC0
:1001C000042B872B5A2B692B07634236B79BD8A782
:1001D0001A39685618AEBAAB558C1D3CB7CC57636C
:1001E000BD6DEDFD753EF6177231BF000000803F1A
:1001F00005A84CCDB2D44EB93836A9020C50B991ED
:100200008688083CA6AAAA2ABE000000803F165C89
:100210001E001F0020002100220035002D002E00AE
:10022000230024002500260027002A002B001400AC
:100230001A000800150017002F00310030001C00C4
:1002400018000C00120013003400015104001600C5
:10025000070009000A002A004B004C000B000D00AB
:100260000E000F0033002800D75C1D001B000600A5
:10027000190005004A004E004D0011001000360024
:1002800037003800D85CE00001516B00E200E30069
:100290002C002900280029002C00E700E6003E0081
:1002A0000151E40035003A003B003C003D003E00B7
:1002B0000100010001003F004000410042004300F6
:1002C00001000100AC00AE00AB00C25CCF5CD05CB2
:1002D000CD5C010001004B0052004E000100010006
:1002E0000100A800AA00A900CD5CD45CD35CD25C5C
:1002F00001004A00500051004F00010001000100C0
:10030000010001000100C75CC55CCB5CC95CC35C3B
:100310004D00010001000100010001000100010089
:1003200001000100C85CC65CCC5CCA5CC45C010016
:100330000100010001000100010000047F3F1F6473
:100340003214643214783C1E1E140A056801F00051
:10035000B40078005A000000000000010101010112
:10036000010101010202020202020202020303036E
:10037000030303030304040404040405050505053D
:1003800006060606060707070708080808090909F8
:100390000A0A0A0A0B0B0B0C0C0C0D0D0D0E0E0F9E
:1003A0000F0F10101111111212131314141515162A
:1003B000161717181819191A1A1B1C1C1D1D1E1F99
:1003C0001F20202122222324252526272728292AE9
:1003D0002B2B2C2D2E2F2F30313233343536363710
:1003E00038393A3B3C3D3E3F404142434446474812
:1003F000494A4B4C4D4F50515253555657585A5BE2
:100400005C5E5F606263646667696A6C6D6E707182
:1004100073747678797B7C7E8081838486888A8BEE
:100420008D8F91929496989A9B9D9FA1A3A5A7A921
:10043000ABADAFB1B3B5B7B9BBBDBFC1C4C6C8CA18
:10044000CCCFD1D3D6D8DADCDFE1E4E6E8EBEDF0CF
:10045000F2F5F7FAFCFF0403300000000A0358002D
:1004600044003700350000000C0378006900750077
:100470006400690000000403090409023B00020152
:1004800000A0FA0904000001030101000921110183
:1004900000012240000705810308000A0904010049
:1004A000010300000009211101000122C00007051D
:1004B000820320000A1201100100000008CDCD7552
:1004C0007501000102030105010902A1018502096C
:1004D00001A10005091901290515002501950575DA
:1004E000018102950175038101050109300931156A
:1004F00081257F95027508810609381581257F952C
:100500000175088106050C0A38021581257F9501C1
:1005100075088106C0C005010980A1018503160187
:10052000002603001A81002A8300751095018100BE
:10053000C0050C0901A1018504160100269C021AC0
:1005400001002A9C02751095018100C00501090671
:10055000A1018505050719E029E715002501950882
:10056000750181020508190129059505750191029A
:100570009501750391010507190029EF1500250163
:1005800095F075018102C005010906A10105071951
:10059000E029E7150025019508750181029501758F
:1005A0000881010508190129059505750191029534
:1005B00001750391010507190029FF150026FF00A9
:1005C000950675088100C00011241FBECFEFDAE048
:1005D000DEBFCDBF04B603FE27C080918402909198
:1005E0008502A0918602B09187028730904BA74088
:1005F000B04BD1F4109284021092850210928602C0
:100600001092870214BE84B7877F84BF0FB6F89418
:10061000A8958091600088618093600010926000CE
:100620000FBEE0E0F8E3099511E0A0E0B1E0E2E1FF
:10063000FFE502C005900D92A034B107D9F722E082
:10064000A0E4B1E001C01D92A438B207E1F70E9416
:1006500051260C94872F0C9400000C9485080C9460
:1006600053030C9497032A9A0895229A0C94330307
:100670008F9A0895879A0C9438038C980895849AD9
:100680000C943D038D9A0895859A0C9442030E9420
:1006900035030E943A030E943F030E9444030C94D6
:1006A000840881E0089581E008951F93CF93DF933C
:1006B00000D000D01F92CDB7DEB749835A83209176
:1006C0008F0189819A81211112C0662349F00E940D
:1006D000C91B182F682F89819A810E946E1B03C045
:1006E0000E949D1B182F69817A81812F04C00E946E
:1006F000C91B69817A810F900F900F900F900F9016
:10070000DF91CF911F910C941306FC014081518120
:100710006281738184810C9455030E94F91C8111BC
:1007200002C00E947D1D0C9447030C942D03089574
:100730000C94310308950E9494160E949A032FEF9F
:1007400084E39CE0215080409040E1F700C000002D
:100750000C94EF1E0F931F93CF93DF938C010E9495
:100760008503EC01B8010E942F03882309F451C2CC
:10077000CC3C8CE5D80709F4E1C0E8F5C43CECE5D5
:10078000DE0709F4A5C0F8F4C5318CE5D80778F484
:10079000C2309CE5D90708F052C1C115ECE5DE076F
:1007A00009F467C0C130DC4509F46BC026C2C23C05
:1007B0008CE5D80709F478C008F07EC0C631DC4566
:1007C00009F4F4C11AC2F8018281C83CFCE5DF07D4
:1007D00009F49CC040F4C63CECE5DE0709F48AC08D
:1007E00008F482C08DC0CA3C9CE5D90709F49AC0C0
:1007F00008F492C09DC0C43DFCE5DF0709F4F8C0D1
:10080000C0F4F8018281C03DFCE5DF0709F4BFC0F8
:1008100040F4CE3CECE5DE0709F49DC008F496C038
:10082000A8C0C23D9CE5D90709F4CFC008F4BFC0F9
:10083000DAC0C93DFCE5DF0709F49DC160F4C73D9E
:100840009CE5D90709F44DC108F06EC1C53DDC45F2
:1008500009F4DEC0D2C1CD3D8CE5D80709F4E6C06D
:10086000CE3D9CE5D907C1F0CC3DDC4509F0C5C1C2
:10087000D6C0F8018281882309F4CBC10E949B0372
:10088000C8C1F8018281882309F4C3C1809127027D
:10089000816080932702BDC1F8018281882309F419
:1008A000B8C10E947D1DB5C1F8018281882309F479
:1008B000B0C10E944A0DADC1F8018281882309F4BC
:1008C000A8C10E94491C827261F00E94E60CA1C17D
:1008D000F8018281882309F49CC10E94491C82721C
:1008E000A1F30E94D80C95C1882309F492C10E94FB
:1008F000DB0B8FC1882309F48CC10E94FF0B89C1D7
:10090000882309F486C10E941F0C83C1882309F43F
:1009100080C10E943F0C7DC1882309F47AC10E94E6
:100920005F0C77C1882309F474C10E947F0C71C1E8
:10093000882309F46EC10E94900A6BC1F80182817C
:10094000882309F466C10E94A50A63C1882309F4BB
:1009500060C181E029C0882309F45BC10E94870A35
:10096000823028F00E94870A853008F4BACF82E0EE
:100970001BC0882309F44DC10E94870A863028F0E5
:100980000E94870A883008F4ACCF86E00DC0882327
:1009900009F43FC10E94870A893028F00E94870A23
:1009A0008E3008F49ECF89E00E94E90C32C1882382
:1009B00009F42FC10E94870A8F3028F00E94870A0D
:1009C000843108F48ECF8FE0EFCF882309F421C162
:1009D0000E94870A853128F00E94870A873108F42F
:1009E00080CF85E1E1CF882309F413C188E1DCCF12
:1009F000F8018281882309F40CC10E94870A893199
:100A000028F00E94870A823208F46BCF89E1CCCFAC
:100A1000F8018281882309F4FCC083E2C5CFF80184
:100A20008281882309F4F5C080E006C0F801828144
:100A3000882309F4EEC082E00E94F226EAC0F801A1
:100A40008281882309F4DEC00E94F91C811102C052
:100A50000E947D1D0E94161D90E090937602809367
:100A60007502FE01E350FC45E231F10530F4EA5A2B
:100A7000FF4F809175020C942C2F8091750281603C
:100A800027C0826025C0846023C0806121C080624D
:100A90001FC080641DC080681BC08460886018C04F
:100AA0008E7F16C08D7F14C08B7F12C08F7E10C0CA
:100AB0008F7D0EC08F7B0CC08F770AC08B7F877FA6
:100AC00007C087FB222720F991E0922790FB87F946
:100AD00080937502809175020E941A1D0E949416DF
:100AE00098C0F8018281882351F0109245010E943C
:100AF000931E909342018093410182E022C0809135
:100B0000450181110FC080914101909142010E94E5
:100B10009F1E883C910530F486E20E94301286E2E6
:100B20000E94691382E024C0F8018281882361F069
:100B3000109246010E94931E9093440180934301BA
:100B400080E20E94D11365C08091460181110FC0DF
:100B500080914301909144010E949F1E883C910521
:100B600030F487E20E94301287E20E94691380E22B
:100B70000E94D8134EC0F80182818111D9CF809193
:100B800046018111F4CF80914301909144010E946C
:100B90009F1E883C910558F780E20E94D81388E296
:100BA0000E94301288E20E94691333C00E94491CDF
:100BB000282FF801828140910E0150910F01882366
:100BC00079F02A7A91E009F490E090934001911134
:100BD00002C069E201C065E3CA010E94E41D0AC0C7
:100BE00080914001811102C069E201C065E3CA0140
:100BF0000E94EF1D0E94951C0CC081E0809345016E
:100C000080934601C801DF91CF911F910F910C9401
:100C1000510380E0DF91CF911F910F91089580E003
:100C200090E0089508959FE0799FF00111249BE4DE
:100C3000899FE00DF11D1124E60FF11DEE0FFF1F3E
:100C4000E25FFD4F859194910895880F991FFC01F3
:100C5000E65CFC4F859194910895CF93DF930E94B9
:100C600013060E94E407EC01811520E59207F0F5D8
:100C7000811530E4930708F024C1883E910500F502
:100C8000803E910508F09CC1883A910570F4853A40
:100C9000910508F09FC08130910509F491C108F4D5
:100CA00042C1049708F08CC13EC18F3B910508F406
:100CB0009CC0803C910508F436C1805C9109F4C069
:100CC000811540E2940758F4C11581E0D80708F077
:100CD00077C1C03FD10508F426C1D06571C1811527
:100CE00020E3920708F0E4C09F70DEC0811535E56F
:100CF000930708F044C0811544E5940708F0F8C054
:100D0000C11582E5D80708F5C11521E5D20708F01D
:100D1000DBC08C2F837021E030E002C0220F331F34
:100D20008A95E2F73C68CE0174E0969587957A95AE
:100D3000E1F78370382BCF70C695C69580E2C89FC7
:100D4000E0011124C22BD32B3BC12C2F26952695D5
:100D5000CE0183709927C115D34508F0BAC040E28F
:100D6000249F90011124C1E0D0E002C0CC0FDD1F10
:100D70008A95E2F72C2B3D2BE901DC6821C1811516
:100D800049E59407A0F4C11588E5D80708F0B5C077
:100D9000C11526E5D20708F0C6C08C2F0E94610855
:100DA0008F71C82FD0E0DC2FCC27D06209C181150C
:100DB0003AE5930708F4A6C090568115904208F0D2
:100DC000B2C08D2F8F710E946108DD27D0628F71B4
:100DD000D82BF6C0853A910509F4A8C0863A91054A
:100DE00009F0A7C0C2E8D0E4EBC0883A910509F445
:100DF000A3C0893A910509F4A2C08A3A910509F481
:100E0000A1C08B3A910509F4A0C08C3A910509F470
:100E10009FC08B3B910509F49EC08C3B910509F462
:100E20009DC08D3A910509F49CC0803B910509F461
:100E30009BC08E3A910509F49AC08F3A910509F446
:100E400099C0813B910509F498C0823B910509F452
:100E500097C0833B910509F496C0843B910509F442
:100E600095C0853B910509F494C0863B910509F432
:100E700093C0873B910509F492C0883B910509F422
:100E800091C0893B910509F490C08D3B910509F40F
:100E90008FC08E3B910509F48EC08A3B910509F401
:100EA0008DC0C0E0D4E48CC00E942506EC0188C04F
:100EB0009927D3FF03C0EC01D86C82C0EC01D06C41
:100EC0007FC0DF70D06A7CC0DC2FCC27C16FD06AB6
:100ED00077C040E2249F90011124C1E0D0E002C01D
:100EE000CC0FDD1F8A95E2F7C22BD32BDA6868C0DE
:100EF000D82FCC27C46FD06A63C0DC2FCC27C06F3B
:100F0000D06A5EC08F700E94610894E0D695C79544
:100F10009A95E1F7CF70D0E0DC2FCC27D06A8F70A4
:100F2000806EC82B4DC0C0E0D0E04AC0C1E8D0E41C
:100F300047C0C3E8D0E444C0C2EED4E441C0C9EE27
:100F4000D4E43EC0CAEED4E43BC0C5EBD4E438C020
:100F5000C6EBD4E435C0C3EBD4E432C0C4EBD4E474
:100F60002FC0C7EBD4E42CC0CCECD4E429C0CDEC2A
:100F7000D4E426C0C3E8D5E423C0CAE8D5E420C041
:100F8000C2E9D5E41DC0C4E9D5E41AC0C1E2D6E483
:100F900017C0C3E2D6E414C0C4E2D6E411C0C5E26F
:100FA000D6E40EC0C6E2D6E40BC0C7E2D6E408C061
:100FB000CFE6D4E405C0C0E7D4E402C0CAE2D6E478
:100FC000CE01DF91CF9108958238910549F1B0F4B7
:100FD0008133910509F458C048F48932910509F428
:100FE0004EC08A32910509F454C0089585339105A5
:100FF00009F440C08933910599F00895833E910525
:1010000029F138F4803E910591F0823E9105A1F0DE
:101010000895863E9105F9F0873E910531F10895D6
:101020002091750220FD3AC021FD38C008958091BD
:10103000750280FD35C032C08091750282FF32C0DA
:101040008091750284FD30C083EE39C080917502B5
:1010500082FD28C0F5CF8091750283FF27C0809163
:10106000750284FD21C087EE2AC08091750283FD40
:101070001DC0F5CF8091750285FD1AC01BC08091FF
:10108000750285FD17C014C08091750286FD14C0DD
:1010900015C08091750286FD11C00EC080EE0FC094
:1010A00089E30DC082EE0BC080E009C086EE07C068
:1010B00089E205C085E303C08AE201C081E390E0D4
:1010C00008959091750292FF0DC0282F2871283045
:1010D00019F4877F846006C0282F2471243011F40E
:1010E0008B7F886093FF0DC0282F2871283119F459
:1010F000877E846106C0282F2471243111F48B7EF1
:10110000886194FD877E089508950895E82FF0E0A2
:10111000EE0FFF1FE95BFE4F8081918108950895D6
:10112000E0E3F1E041E050E025E02E0F9191A92F9E
:10113000A295AF70B0E091963C9191979F70BA01E3
:1011400002C0660F771F9A95E2F7CB018095832343
:1011500091968C932E13EACFA1E2B1E041E050E0EA
:101160002FE02A0F8D91E82FE295EF70F0E031A18A
:101170008F70BA0102C0660F771F8A95E2F7CB0124
:10118000962F9095932391A392A1892B82A32A1342
:10119000E9CFE1E5F1E0A7E4B1E0119211921D92EF
:1011A0001D9271E0EB35F707C1F785E00E947209E7
:1011B0000C948D034F925F927F928F929F92AF9289
:1011C000BF92CF92DF92EF92FF920F931F93CF9334
:1011D000DF9320E3422E21E0522EA1E5B1E020E092
:1011E00001E010E05D018D909C90119711961C928A
:1011F0001E92E20189912E01E82FE295EF70F0E056
:1012000031A18F70A80102C0440F551F8A95E2F7E3
:10121000CA01342B31A342A1382F3095432342A376
:1012200050EA5A95F1F791E2C92E91E0D92E40E0AB
:1012300050E0E60179906E01672D62956F7070E065
:10124000EB01E8A06D917C911197F12CD72DDF7007
:1012500002C0F594E794DA95E2F7E0FC08C0780163
:10126000042E02C0EE0CFF1C0A94E2F702C0E12C2F
:10127000F12C6E297F2911967C936E934F5F5F4FFF
:101280004F305105B1F691A1392331A392A1892B99
:1012900082A3129681E0F501408151818416950662
:1012A00009F480E0282BF1E0AB35BF0709F09ACFB5
:1012B00045E067E471E081E591E00E9473090E94D6
:1012C000950381E0DF91CF911F910F91FF90EF90F7
:1012D000DF90CF90BF90AF909F908F907F905F9066
:1012E0004F9008950895FF920F931F93CF93DF932C
:1012F000F82E092F162FD72FC42F222349F081E073
:1013000080935D010E94931E90935C0180935B012A
:1013100080915D018823D9F080915B0190915C01FF
:101320000E949F1E069798F0EF2DF02FA12FBD2F42
:1013300080E090E04C2F50E08417950734F4219121
:1013400031912D933D930196F7CF10925D01DF917E
:10135000CF911F910F91FF900895EF92FF920F93FD
:101360001F93CF93DF93E901662309F44BC0242F29
:1013700030E0EFEFF0E0E61BF109B901E69F9001E4
:10138000E79F300DF69F300D1124232F8B01031B97
:1013900011095CE3E52EF12CB7010E94042FFB013B
:1013A000BC01069FC001079F900D169F900D112450
:1013B000B7010E94042FE230F105B1F040F43097FC
:1013C00079F0319711F5832F242F461B21C0E4308B
:1013D000F105A1F068F03597C1F4842F861B18C081
:1013E000832F262F230F14C0862F830FE42F03C0D3
:1013F000E42FE61B842F432F2E2F0AC0842F462F65
:10140000430F06C0842F242F03C080E020E040E07B
:10141000E42FF0E0EA5AFC4F4491E22FF0E0EA5A60
:10142000FC4F9491E82FF0E0EA5AFC4FE491498395
:101430009883EA83DF91CF911F910F91FF90EF90F6
:10144000089580915802282F26952F7330E021159A
:10145000310519F48178826005C02532310524F008
:10146000817888648093580230915802432F441F3A
:101470004427441F20915902522F550F852F842B4A
:1014800027FB992790F9893641E094077CF068E6BC
:1014900071E00E94182F80FB37F93093580286952F
:1014A0002078822B90FB87F980935902089588E079
:1014B00090E00C94472FCF93DF9300D000D0CDB7AE
:1014C000DEB7AB01BC0149835A836B837C830E94E6
:1014D000210A49815A816B817C8188E090E00F90DC
:1014E0000F900F900F90DF91CF910C94652FE8E54E
:1014F000F2E083E08083109259028FEF828383832E
:10150000148260817181828193810C945B0A809145
:10151000580280FF03C086958F73089580E0089578
:1015200080915C0290E001968430910514F083E094
:1015300090E080935C026091580270915902809112
:101540005A0290915B020C945B0A80915C0290E0DD
:10155000019797FF02C080E090E08430910514F07D
:1015600083E090E080935C02609158027091590290
:1015700080915A0290915B020C945B0A80917B01EE
:1015800023E0829FC0011124835A9D4F6091020184
:1015900070E02091580220FD0DC020E030E0F901FC
:1015A000E35AFD4F1182108212822D5F3F4F22318C
:1015B0003105A9F70C94B6109091580290FF0FC016
:1015C00020E030E0F901E35AFD4F818360834283DC
:1015D0002D5F3F4F22313105A9F70C94BE0A0895C3
:1015E000CF93DF9300D01F92CDB7DEB72091580282
:1015F00020FF0AC09E012F5F3F4F0E94AD094B8123
:1016000069818A810E94DC0A0F900F900F90DF9110
:10161000CF9108955F926F927F928F929F92AF9237
:10162000BF92CF92DF92EF92FF920F931F93CF93CF
:10163000DF9300D01F92CDB7DEB78C01E62EF42EDB
:10164000522E8091580280FF89C0982F9E77923049
:1016500061F49E012F5F3F4FC8010E94AD094B818D
:1016600069818A810E94DC0A59C0E82FE695EF73F0
:101670009EE39E0F9F73943018F4F0905B024EC06F
:101680009AE39E0F9F73993068F4881F8827881FFC
:1016900090915902292F220F022F082B97FB112717
:1016A00010F93CC087E28E0F8F738A30B8F5F0E0F6
:1016B0007997E0FD02C021E001C02FEFEE7FE45BEF
:1016C000FC4F8591949166E070E00E94042F260300
:1016D0004001279F900C1124580188E9A81A8EEF29
:1016E000B80A8DE5C82E82E0D82E98E6692E7724B8
:1016F0007394C501B3010E94042F96014F2D6E2DE6
:101700000E94AD09A80CB91C83E0C80ED11C8FE65D
:10171000C81682E0D80669F70E94BE0A8091580276
:1017200000FB87F980935802902F9695809159027B
:101730008078892B10FB87F980935902E0925A0236
:10174000F0925B02552051F060915802709159025D
:1017500080915A0290915B020E945B0A0F900F9059
:101760000F90DF91CF911F910F91FF90EF90DF903D
:10177000CF90BF90AF909F908F907F906F905F9031
:101780000895282FE8E5F2E09081991F9927991F85
:1017900030915902832F880F482F492B37FB55274B
:1017A00050F9CA010C9668E671E00E94182F438137
:1017B00062810C940A0B81E00C94C10B282F90914C
:1017C0005802991F9927991F30915902832F880F2A
:1017D000482F492B37FB552750F9CA014C3051058A
:1017E0001CF4845A9E4F01C00C9768E671E00E9479
:1017F000182F40915B0260915A020C940A0B81E011
:101800000C94DE0B60915A02262F30E0273E310502
:1018100014F4675E01C06FEF30915802331F332715
:10182000331F90915902592F550F97FB992790F923
:10183000282F40915B02852F832B0C940A0B81E0AB
:101840000C94020C60915A02262F30E029313105A8
:1018500014F0695101C060E030915802331F332702
:10186000331F90915902592F550F97FB992790F9E3
:10187000282F40915B02852F832B0C940A0B81E06B
:101880000C94220C40915B02242F30E0243F310560
:1018900014F4445F01C04FEF30915802331F3327D7
:1018A000331F90915902592F550F97FB992790F9A3
:1018B000282F60915A02852F832B0C940A0B81E00C
:1018C0000C94420C40915B02242F30E02C30310507
:1018D00014F04C5001C040E030915802331F3327C0
:1018E000331F90915902592F550F97FB992790F963
:1018F000282F60915A02852F832B0C940A0B81E0CC
:101900000C94620C20E00C940A0BCF939091580237
:1019100090FF40C09178811102C0926007C085326B
:1019200010F0986403C08F73880F982B909358021F
:10193000662351F0609158027091590280915A02C9
:1019400090915B020E945B0AC09158026C2F6695D1
:101950006F7370E04BE050E083E091E00E94322F23
:10196000892B19F010927C0103C081E080937C01E7
:10197000CC1FCC27CC1F90915902892F880F97FB41
:10198000992790F940915B0260915A028C2BCF917C
:101990000C94820CCF910895682F909158029695DF
:1019A0009F7381E0890F853208F081E00C94850CEB
:1019B00081E00C94CC0C682F9091580296959F73FF
:1019C0008FEF890F09F484E20C94850C81E00C946C
:1019D000DB0C61E00C94850CE8E5F2E0808181602D
:1019E000808386958F730C94E90C60E00C94850CD1
:1019F00080917D01811135C08091270281608093A3
:101A000027020E94F91C811104C00E947D1D0E94C2
:101A1000770A0E94570A6093580270935902809384
:101A20005A0290935B026E7761F40E94770A0E94DB
:101A3000570A609358027093590280935A02909308
:101A40005B020E94210A81E080937C018091580210
:101A500080FF04C086958F730E94F50C81E080930F
:101A60007D010895E8E5F2E080818E7F80836081CA
:101A70007181828193810E945B0A10927C012FEF19
:101A800080E792E0215080409040E1F700C00000E4
:101A90000C94BE0A8091580280FD0C94320D0C9477
:101AA000EC0CCF93E82FF0E0E85BFC4FC491809101
:101AB000790190917A010E949F1EEC2FF0E08E1721
:101AC0009F0708F443C00E94931E90937A0180936D
:101AD00079016091780170E080E090E00E94052D2E
:101AE00020E030E04FE753E40E94282C2BED3FE04C
:101AF00049E450E40E942E2E0E949B2E0E94A22CAC
:101B00002BE43AE34EE25FE30E94BB2B20EF3BEF76
:101B100048ED52E40E942E2E0E94D42C462F809134
:101B20005802881F8827881F90915902292F220F59
:101B300097FB992790F960915A02822B0E94F00A34
:101B40008091780190E0019680937801CF9108957B
:101B5000CF93E82FF0E0EB5BFC4FC49180917601CE
:101B6000909177010E949F1EEC2FF0E08E179F0747
:101B7000E8F00E94931E9093770180937601409144
:101B80005B0260915A0280917401909175010E94EC
:101B9000F00A8091740190917501019668E671E0F8
:101BA0000E94042F9093750180937401CF91089542
:101BB000CF92DF92FF920F931F93CF93DF93F82E74
:101BC000E82FE695F0E0EE5BFC4FC4918091720146
:101BD000909173010E949F1EEC2FF0E08E179F07DB
:101BE000E8F10E94931E90937301809372010DE5BA
:101BF00012E0C0E0D0E088E6C82EDD24D3948091C6
:101C00007001909171018C0F9D1FB6010E94042FED
:101C1000980140915B0260915A020E94AD09EC96D6
:101C20000D5F1F4FC83681E0D80749F70E94BE0AF2
:101C30002091700130917101F0FE0AC0C901019636
:101C4000BE010E94042F909371018093700106C021
:101C5000215031093093710120937001DF91CF91B0
:101C60001F910F91FF90DF90CF900895AF92BF9298
:101C7000CF92DF92EF92FF920F931F93CF93DF9358
:101C800080FF02C01FEF01C011E08695E82FF0E051
:101C9000E15CFC4FC49180916E0190916F010E94B4
:101CA0009F1EEC2FF0E08E179F0708F466C00E947D
:101CB000931E90936F0180936E012DE5C22E22E05A
:101CC000D22E3FE5E32E32E0F32EC0E0D0E0F70164
:101CD00031971082F6011082F701108294E0A92E4C
:101CE000B12C00E080916D01800F87FD8A5F082E86
:101CF000000C990BC817D907E9F480915B028A9D03
:101D0000A0018B9D500D11245595479555954795EC
:101D100080915802881F8827881F90915902592F57
:101D2000550F97FB992790F9960160915A02852BE0
:101D30000E94AD09010FF1E0AF1AB10899F62196A2
:101D400083E0C80ED11CE3E0EE0EF11CC630D105D5
:101D500009F0BDCF0E94BE0A80916D01113031F4AF
:101D6000811102C085E007C0815005C090E0019656
:101D7000BE010E94182F80936D01DF91CF911F91BA
:101D80000F91FF90EF90DF90CF90BF90AF900895AC
:101D90000F931F93CF93DF93E82FF0E0E45CFC4FA9
:101DA000C49180916B0190916C010E949F1EEC2F59
:101DB000F0E08E179F0708F466C00E94931E909370
:101DC0006C0180936B0180E090E0FC01E35AFD4FD1
:101DD000118210821282039682319105B1F7C0E020
:101DE000D0E006E010E0CE01B8010E94182F40912B
:101DF0006A01042E000C550BFC01EE0FFF1FC417E7
:101E0000D5070CF140910101042E000C550B4C1725
:101E10005D07CCF08E0F9F1F9C01235A3D4F809190
:101E20005802881F8827881F90915902592F550FF3
:101E300097FB992790F940915B0260915A02852B9C
:101E40000E94AD0907C0E80FF91FE35AFD4F118248
:101E5000108212822196C630D10529F60E94BE0A50
:101E60008091000190916A01980F90936A012091EE
:101E70000101280F20930101121614F495301CF073
:101E8000819580930001DF91CF911F910F9108956B
:101E9000EF92FF920F931F93CF93DF93809168018E
:101EA000909169010E949F1E883E9340D0F10E944C
:101EB000931E9093690180936801C0916601D0914F
:101EC00067012196C170DD27D0936701C093660139
:101ED0008DE5E82E82E0F82E10E008E7812F869548
:101EE000FE01E80FF11DCF01817099279701409104
:101EF0005B0260915A02FC010E9FC0010F9F900D82
:101F000011240E94AD091F5FF3E0EF0EF11C1630A3
:101F100029F7DF91CF911F910F91FF90EF900C94D3
:101F2000BE0ADF91CF911F910F91FF90EF9008951E
:101F3000CF93DF9300D01F92CDB7DEB780916401BD
:101F4000909165010E949F1EEAE3F3E02591349190
:101F500082179307C0F18091630181110CC09E012B
:101F60002F5F3F4F4FEF6FEF80E090E00E94AD0991
:101F70008A81809363010E94931E909365018093F0
:101F8000640180916201813051F028F0823061F467
:101F9000409163010AC08091630140E007C06091F5
:101FA000630140E080E003C040E080E060E00E9428
:101FB000DC0A8091620190E0019663E070E00E948B
:101FC000182F809362010F900F900F90DF91CF91A7
:101FD00008950F931F93CF93DF93809160019091A9
:101FE00061010E949F1E843F914008F448C00E94F6
:101FF000931E9093610180936001CDE5D2E000E0F3
:1020000010E020915E0130915F0180915802909123
:102010005902033011051CF4232B79F002C0232B45
:1020200061F4881F8827881F592F550F97FB992720
:1020300090F99E0140915B020AC0881F8827881F83
:10204000592F550F97FB992790F99E0140E0609119
:102050005A02852B0E94AD090F5F1F4F2396063051
:10206000110579F60E94BE0A80915E0190915F0190
:1020700001968170992790935F0180935E01DF91B3
:10208000CF911F910F91089580917C018823D9F100
:1020900090915802892F86958F732EE3280F2F7306
:1020A000243018F482500C94510D2AE3280F2F731A
:1020B000233018F486500C94A80D27E3280F2F73B3
:1020C000263018F489500C94D80D21E3280F2F7373
:1020D000263018F48F500C94360E2BE2280F2F73F5
:1020E000233018F485510C94C80E892F8E778033D5
:1020F00011F40C94480F863411F40C94980F883422
:1021000011F40C94E90F089521B3342F3095232353
:1021100031B3432B3FB7F894FC01680F791FE617E2
:10212000F70789F0819198E041BB000000C087FF6C
:1021300021BB880F000000C000C000C021BB00C050
:102140009A9591F7ECCF3FBF089520B3242B20BB85
:102150009B01220F331F620F731F0E94841087ECB4
:1021600090E00197F1F700C00000089540E40C945E
:10217000A51090938301809382010895E0918201DC
:10218000F0918301309721F00190F081E02D0994C6
:1021900080E00895E0918201F0918301309799F0F9
:1021A00020912001222359F02091750227FF07C0BA
:1021B000DC012C9111962C93119725E02C93028031
:1021C000F381E02D09940895E0918201F09183015B
:1021D000309739F022E0DC012C930480F581E02D6A
:1021E000099408952091800130918101821793070D
:1021F00071F09093810180938001E0918201F091D0
:102200008301309721F00680F781E02D099408952D
:1022100020917E0130917F018217930771F0909396
:102220007F0180937E01E0918201F09183013097DC
:1022300021F00084F185E02D0994089585B7806828
:1022400085BF85B7806885BF0895089508950C946B
:10225000261108950C9429110E941E110E94251127
:102260000C94271181E008950E948A1E0E94900814
:102270000E945F1F0E94F80C0C942A114F925F92EB
:102280007F928F929F92AF92BF92CF92DF92EF9206
:10229000FF920F931F93CF93DF93CDB7DEB72A97AB
:1022A0000FB6F894DEBF0FBECDBF0E94DA080E94C1
:1022B0003211811111C08FEF89838A831B820E94A2
:1022C000931E8160782F9D838C8349815A816B8115
:1022D0008D810E94FC1157C095E8C92E91E0D92E3E
:1022E00000E010E0AA24A394B12C702E802F0E944D
:1022F00086084C01F601419051906F0148265926FD
:102300004114510431F40F5F1F4F0530110569F777
:10231000D2CF8091270281FD0E948F0820E030E01B
:102320007501022E02C0EE0CFF1C0A94E2F7C701F1
:1023300084219521892B09F12E837F828E209F2075
:1023400091E0892809F490E098870E94931E8160AB
:10235000782F9A8789874E815F8168858A850E9458
:10236000FC11000F111FF801EB57FE4F8081918186
:10237000E826F926F182E08206C02F5F3F4F2F301A
:10238000310571F6C0CF0E940222109184010E9493
:10239000BE101817D9F00E94BE10809384012A96AF
:1023A0000FB6F894DEBF0FBECDBFDF91CF911F9166
:1023B0000F91FF90EF90DF90CF90BF90AF909F90E4
:1023C0008F907F905F904F900C9498032A960FB651
:1023D000F894DEBF0FBECDBFDF91CF911F910F915B
:1023E000FF90EF90DF90CF90BF90AF909F908F9035
:1023F0007F905F904F900895CF93DF93CDB7DEB776
:102400002B970FB6F894DEBF0FBECDBF4F83588712
:1024100069877A878B87DE01119686E0FD0111922C
:102420008A95E9F785E0FE01379601900D928A952D
:10243000E1F749815A816B817C818D819E810E9467
:102440003E192B960FB6F894DEBF0FBECDBFDF91BD
:10245000CF910895FC01808191810E940A1C08950A
:10246000CF93DF931F92CDB7DEB7882309F42DC138
:10247000682F8238C1F40E94BE1081FD26C169E335
:1024800080910E0190910F010E94E41D0E94951C05
:102490002FEF81EE94E0215080409040E1F700C0A2
:1024A000000069E319C0833811F50E94BE1080FD59
:1024B0000CC163E580910E0190910F010E94E41D13
:1024C0000E94951C2FEF81EE94E0215080409040B7
:1024D000E1F700C0000063E580910E0190910F01CB
:1024E0000E94EF1D0F90DF91CF910C94951C8438C2
:1024F000C1F40E94BE1082FDE8C067E480910E0125
:1025000090910F010E94E41D0E94951C2FEF81EE17
:1025100094E0215080409040E1F700C0000067E463
:10252000DBCF8CEF860F813A70F4862F69830E948F
:10253000FE2369818111C9C080910E0190910F0124
:102540000E94E41DCFCF80E2860F883048F4677088
:1025500081E001C0880F6A95EAF70E944C1CC2CF47
:102560008BE5860F833088F4653A29F0663A31F0BE
:1025700083E890E005C081E890E002C082E890E046
:102580000F90DF91CF910C94F21088E5860F873180
:1025900008F091C0683A09F445C0693A09F445C0A9
:1025A0006A3A09F445C06B3A09F445C06C3A09F43B
:1025B00045C06B3B09F445C06C3B09F445C06D3A1E
:1025C00009F445C0603B09F445C06E3A09F445C0C2
:1025D0006F3A09F445C0613B09F445C0623B09F418
:1025E00045C0633B09F445C0643B09F445C0653B05
:1025F00009F445C0663B09F445C0673B09F445C092
:10260000683B09F445C0693B09F445C06D3B09F4DA
:1026100045C06E3B09F445C06A3B09F445C080E003
:1026200090E044C082EE90E041C089EE90E03EC070
:102630008AEE90E03BC085EB90E038C086EB90E0FE
:1026400035C083EB90E032C084EB90E02FC087EB85
:1026500090E02CC08CEC90E029C08DEC90E026C07E
:1026600083E891E023C08AE891E020C082E991E00C
:102670001DC084E991E01AC081E292E017C083E2B4
:1026800092E014C084E292E011C085E292E00EC0B4
:1026900086E292E00BC087E292E008C08FE690E00D
:1026A00005C080E790E002C08AE292E00F90DF91DF
:1026B000CF910C940811603F40F0862F0E940A21B0
:1026C0000F90DF91CF910C94F7210F90DF91CF9174
:1026D0000895882309F464C0823879F40E94BE10FA
:1026E00081FF5EC069E380910E0190910F010E940D
:1026F000E41D0E94951C69E310C08338B1F40E9468
:10270000BE1080FF4DC063E580910E0190910F01D6
:102710000E94E41D0E94951C63E580910E0190913A
:102720000F010E94EF1D0C94951C843879F40E94CF
:10273000BE1082FF35C067E480910E0190910F01B9
:102740000E94E41D0E94951C67E4E7CF9CEF980F60
:10275000913A10F4682FE1CF90E2980F983050F43E
:10276000877091E001C0990F8A95EAF7892F0E943E
:10277000521CD9CF9BE5980F933020F480E090E075
:102780000C94F21098E5980F973120F480E090E0D7
:102790000C940811803F20F00E9472210C94F721C4
:1027A0000895882321F00E944C1C0C94951C0895D8
:1027B000882321F00E94521C0C94951C08954F927E
:1027C0005F926F927F92BF92CF92DF92EF92FF92D1
:1027D0000F931F93CF93DF937C01D62FC72FFC015C
:1027E000058102950F70128111110E94691C0E94CF
:1027F000421C882379F0112369F080E28D0F883024
:1028000048F082E00E94E01C0E94421C91E0B82E39
:10281000B92601C0B12CCC2EC2948FE0C822D12C95
:10282000F601E859FF4F0C942C2F8C2F807FCF702E
:10283000882311F0C295C07F112399F0CC2309F4AD
:10284000CFC180E28D0F883010F0D11104C08C2FE1
:102850000E944C1C03C08C2F0E945C1C0E94951C83
:10286000BFC18D2F0E946913CC2309F4DEC180E221
:102870008D0F883010F0D11104C08C2F0E94521C93
:1028800003C08C2F0E94621C0E94951CCEC18C2F0D
:10289000807FCF70803211F0C295C07FDD2319F0A8
:1028A000D130C9F022C0112371F0002341F0013072
:1028B00031F40E947C1C8C2B0E94821CB6C10E94A9
:1028C0007C1C8C2B46C1002319F0013009F4ADC1EA
:1028D0000E948B1C18C0112321F0063008F0A5C1FE
:1028E0000EC0053008F0A1C10EC0112351F0002325
:1028F00031F0F701858180FF73C18F7085838C2F44
:1029000028C101117EC18C2F2AC18C2F86958695F6
:10291000837090E0009719F0019761F086C1112350
:1029200021F08D2F9C2F937002C080E090E00E94D8
:10293000F2108BC1112321F08D2F9C2F937002C0B8
:1029400080E090E00E94081180C11123F9F0D53F8A
:1029500051F0D63F71F0D43FA9F480916F0290916D
:10296000700281600BC080916F0290917002826052
:1029700005C080916F029091700284609093700204
:1029800080936F028D2F0E940A211EC0D53F51F007
:10299000D63F71F0D43FA9F480916F0290917002FC
:1029A0008E7F0BC080916F02909170028D7F05C069
:1029B00080916F02909170028B7F90937002809350
:1029C0006F028D2F0E9472210E94F7213EC18C2F31
:1029D000837009F050C0111134C18D2F82958695F6
:1029E0008770880F880F9D2F9F70492E512C612C66
:1029F000712C082E04C0440C551C661C771C0A94CC
:102A0000D2F7D4FF14C00FE010E020E030E0B901AD
:102A1000A80104C0440F551F661F771F8A95D2F77F
:102A2000CB01BA01609570958095909503C060E0E8
:102A300070E0CB01C695C695C370D0E0C230D10519
:102A400061F0C330D10581F0642975298629972961
:102A5000219771F00E94831AF4C064297529862990
:102A600097290E94951AEDC00E94831AC301B201F2
:102A70000E94711AE6C0112319F08C2F817001C0D9
:102A80008695882309F4DDC08D2F82958695877001
:102A9000880F880F9D2F9F70492E512C612C712C0F
:102AA000082E04C0440C551C661C771C0A94D2F7EF
:102AB000D4FF14C00FE010E020E030E0B901A8011D
:102AC00004C0440F551F661F771F8A95D2F7CB01AC
:102AD000BA01609570958095909503C060E070E0B4
:102AE000CB01C695C695C3704C2F50E042305105BE
:102AF00069F04330510589F06429752986299729A1
:102B00004130510571F00E94491B9BC06429752911
:102B1000862997290E945B1B94C00E94491BC30110
:102B2000B2010E94371B8DC08D2F90E0FC01E05E4A
:102B3000F109E531F10508F04FC0E858FF4F0C945A
:102B40002C2FDF708C2F8F71112331F00E94D01A3F
:102B50008D2F0E94D11369C00E94F11A8D2F0E94FF
:102B6000D81363C0112341F0053008F05EC08C2FEC
:102B70008F710E94161B59C0063008F056C0F7CF5F
:102B8000112339F08C2F8F710E94D01A4EC011235F
:102B9000C9F38C2F8F710E94F11A47C0112329F0BD
:102BA0008C2F8F710E94BB1A40C00E94B61A3DC084
:102BB000112349F0CF718C2F0E94D01A63E08C2F23
:102BC0000E94CB1C32C081E00E94E01C023068F100
:102BD00082E00E94E01C29C0112331F0002391F211
:102BE0008D2F0E94301221C0002399F2D93349F46D
:102BF0005FEF67EE73E0515060407040E1F700C056
:102C000000008D2F0E94691310C04C2F4F706D2F44
:102C1000C7010E940F060E94E21917C04C2F4F7087
:102C20006D2FC7010E94120610C088E0C816D1049B
:102C300041F05CF0EAE0CE1AD108F2E0CF16D10400
:102C400020F40E94BE100E949803BB20F1F00E9465
:102C50003E1C80FD1AC0F70112820E94381C0E949F
:102C6000D01AC7010E9453160E94381CDF91CF91E1
:102C70001F910F91FF90EF90DF90CF90BF907F90CA
:102C80006F905F904F900C94F11ADF91CF911F914C
:102C90000F91FF90EF90DF90CF90BF907F906F905B
:102CA0005F904F9008950F931F93CF93DF93EC01A4
:102CB000888199812B813C81232BB9F09F3F11F4AE
:102CC0008F3F99F0CE010E94AA03882371F068819A
:102CD00079818A810E94151C8C010E946D1B0E94C3
:102CE0006E1AB801CE010E94DF13DF91CF911F91C0
:102CF0000F9108950E94691C0E94791C0E94951CE6
:102D00000E9490220E94F72180E090E00E94F21041
:102D100080E090E00C94081180910E0190910F01D9
:102D20000E94FA1D0C947A160E94591C0C948C1661
:102D3000E92FE295EF70F0E03297EE30F105B0F454
:102D4000E357FF4F0C942C2F803F91F018F4803EF6
:102D500068F40EC0843F51F40BC0803E48F0813FC0
:102D600029F406C093FB882780F9089580E0089530
:102D700081E008950E940A1C0E9498160895CF933E
:102D8000DF9300D000D01F92CDB7DEB70F900F9029
:102D90000F900F900F90DF91CF910895CF93DF9315
:102DA00000D000D000D0CDB7DEB726960FB6F8948D
:102DB000DEBF0FBECDBFDF91CF9108951F93CF939C
:102DC000DF93C091900116E080919101C81799F0AE
:102DD000D0E01C9FF0011D9FF00D1124EE56FE4F18
:102DE0004081518162817381848195810E94CE16D8
:102DF0002196C770E9CFDF91CF911F91089540913F
:102E0000C2015091C3016091C4017091C5018091CC
:102E1000C6019091C7010C94CE168091C70182958E
:102E20008F7009F054C08091C401882309F44FC009
:102E300080919001A09191016091C2017091C301B4
:102E40004091C5015091C601B6E08A1709F43FC010
:102E500090E041155105C1F17F3F11F46F3FA1F1A1
:102E6000B89FF001B99FF00D1124EE56FE4F21815D
:102E700072132AC02081621327C02281211124C02D
:102E8000238134812417350710F421503109241B84
:102E9000350B283C3105C0F42091C7012F7020610B
:102EA0002093C70126E0289FF001299FF00D1124EF
:102EB000E956FE4F80818F708061808382EC91E0C3
:102EC0000E9453160C94DE1601968770BECF0895AB
:102ED000CF92DF92EF92FF920F931F93CF93DF93E6
:102EE000CDB7DEB762970FB6F894DEBF0FBECDBF89
:102EF0008C0185E0F801DE011D9601900D928A9506
:102F0000E1F7D8014C9111965C91119712966C9152
:102F100012971396CD90DC9014973091C201709166
:102F2000C3018091C5019091C601009709F46BC15E
:102F30007F3F19F43F3F09F466C1E090C401EE20E1
:102F400009F4C0C02091C701C816D90628F0F601BF
:102F5000E81BF90BCF0104C0809590958C0D9D1D49
:102F6000FF24F394883C910578F0F12C207F09F040
:102F7000C6C07C2DD98AC88A89890E94BF1682EC76
:102F800091E00E945316B1C0822F807F09F046C0A5
:102F9000751314C0341312C0611110C02F7020615A
:102FA0002093C7010E94FF1682EC91E00E94531605
:102FB0008091C701D80115968C932EC0CD2819F1A8
:102FC0005F3F11F44F3FF9F0F62E61111CC0809164
:102FD00090012091910136E0821709F45AC090E0E7
:102FE000389FF001399FF00D1124EE56FE4F71818C
:102FF000571306C07081471303C07281711103C05B
:1030000001968770E9CFF62E662309F427C18091D7
:10301000C70181608093C701F12C20C1751308C0DE
:10302000341306C0611104C08091C701D801C3C028
:103030004D875E878D859E856A8B0E94BA166A8948
:103040008823E1F16623D1F12091C701822F829577
:103050008F7090E0029774F08091C2019091C3014B
:1030600098878F831986DB86CA862C87CE010796C0
:103070000E94531686E0F801A2ECB1E001900D9297
:103080008A95E1F70E940D170E94FF16FF24F39422
:10309000E5C04D875E878D859E850E940A1C292F7D
:1030A00022952F7030E0223031050CF0CBC09F709C
:1030B00009F0C5C0805E883008F4D0C0C8010E9405
:1030C0005316E4CFC816D90608F453C0F601E81B1E
:1030D000F90BCF01883C910508F450C0F12C7C2DF0
:1030E000D98AC88A89890E94BF16E2ECF1E086E09D
:1030F000DF011D928A95E9F70E94FF16AFC0751394
:1031000014C0341312C0611110C08091C701F801BE
:103110008583C8010E94531686E0E2ECF1E0DF01EE
:103120001D928A95E9F7FE2C99C04D875E878D85A3
:103130009E856A8B0E94BA166A89882309F4BECFDD
:10314000662309F4BBCF2091C701822F82958F702F
:1031500090E002970CF48ECF8091C2019091C30150
:103160009A8389831B82DD82CC822E83CE010196D5
:103170007FCF809590958C0D9D1DACCFF62E66234C
:1031800009F49CCF75132EC034132CC02091C701B5
:1031900020FD1FC0822F82958F70D9F0D80115961F
:1031A0002C9315978F3049F08F5F982F9295907FD1
:1031B000822F8F70892B15968C93C8010E9453160D
:1031C00086E0F801A2ECB1E001900D928A95E1F75A
:1031D00093CF86E0F801A2ECB1E001900D928A95C0
:1031E000E1F73CC04D875E878D859E850E94BA16AB
:1031F000811140CF8091C70181608093C701C801D0
:103200000E9453162BC0662309F458CF4D875E8762
:103210008D859E850E94BA16F82E882309F44ECF1C
:1032200086E0F801A2ECB1E001900D928A95E1F7F9
:1032300082EC91E00E942A120E940D175DCF81114D
:1032400039CF0CC0243031050CF038CF9F7009F411
:1032500031CFF8019581907F09F02CCF8F2D6296A8
:103260000FB6F894DEBF0FBECDBFDF91CF911F9197
:103270000F91FF90EF90DF90CF9008951F93CF9321
:10328000DF93CDB7DEB72C970FB6F894DEBF0FBE35
:10329000CDBF4F83588769877A878B879C87CE01FC
:1032A00007960E946817882369F08F8198852A8580
:1032B0003B85232BF1F19F3F09F063C08F3F09F05D
:1032C00060C037C086E0FE013796DE01119601909E
:1032D0000D928A95E1F76F817885EA85FB853097B5
:1032E00041F17F3F11F46F3F21F12091910130E0D6
:1032F000C9010196877099274091900150E0841789
:10330000950709F447C069837A83FD83EC8396E0CF
:10331000929FD001939FB00D1124AE56BE4FFE0177
:10332000319601900D929A95E1F7809391010E9458
:10333000DE1616E080919001909191018917C1F1FC
:10334000189FC00111248E569E4F0E946817882333
:1033500079F1E09190011E9FF0011124EE56FE4F8D
:103360004081518162817381848195810E94CE1652
:103370008091900190E00196877099278093900149
:10338000D9CF4F81588569857A858B859C850E9428
:10339000CE16CFCF0E9494161092910110929001F8
:1033A000E2ECF1E086E0DF011D928A95E9F7C1CFFA
:1033B0002C960FB6F894DEBF0FBECDBFDF91CF9134
:1033C0001F910895EF92FF920F931F93CF93DF9376
:1033D0008C01892B09F46CC0F12CEE24E394E801F4
:1033E0002196F8018491843740F4843008F051C06C
:1033F000813081F0823019F15BC0853709F444C017
:10340000A8F19CE7980F903708F052C08F770E9480
:10341000691341C00E5F1F4FFE01C49180E28C0F03
:10342000883048F4C7708E2D01C0880FCA95EAF71E
:103430000E946C1C14C08C2F0E9430122DC00E5F95
:103440001F4FFE01C49180E28C0F883058F4C77082
:103450008E2D01C0880FCA95EAF70E94721C0E9447
:10346000951C1AC08C2F0E94691316C00E5F1F4F47
:10347000FE01C491CC2381F08FE99FE00197F1F721
:1034800000C00000C150F6CF0E5F1F4FFE01F49048
:1034900003C00E9430128E018F2D882309F49FCF24
:1034A000EFE9FFE03197F1F700C000008150F5CF60
:1034B000DF91CF911F910F91FF90EF9008950895A4
:1034C0000C945F1A0E94601A6093FE017093FF01D2
:1034D00080930002909301020C947A1608950C9444
:1034E000621A0F931F930091FE011091FF0120912A
:1034F000000230910102602B712B822B932B1F91C4
:103500000F910C94621A0F931F930091FE0110917A
:10351000FF01209100023091010260237123822378
:1035200093231F910F910C94621A0F931F93009194
:10353000FE011091FF0120910002309101026027ED
:103540007127822793271F910F910C94621A089577
:103550000C94A71A0E94A81A6093FA017093FB01B9
:103560008093FC019093FD010C947A1660E070E06A
:10357000CB010C94AA1A0F931F9341E050E060E036
:1035800070E08A019B0104C0000F111F221F331F2E
:103590008A95D2F7C901B8011F910F910C94AA1A0C
:1035A0000F931F9341E050E060E070E004C0440FCF
:1035B000551F661F771F8A95D2F78091FA01909167
:1035C000FB01A091FC01B091FD018A019B01082B38
:1035D000192B2A2B3B2BC901B8011F910F910C9479
:1035E000AA1A0F931F9341E050E060E070E004C01E
:1035F000440F551F661F771F8A95D2F74095509547
:10360000609570958091FA019091FB01A091FC0169
:10361000B091FD018A019B01082319232A233B2332
:10362000C901B8011F910F910C94AA1A0F931F930F
:1036300041E050E060E070E004C0440F551F661F99
:10364000771F8A95D2F78091FA019091FB01A091A2
:10365000FC01B091FD018A019B01082719272A2747
:103660003B27C901B8011F910F910C94AA1A0F931F
:103670001F930091FA011091FB012091FC01309100
:10368000FD01602B712B822B932B1F910F910C94BA
:10369000AA1A0F931F930091FA011091FB01209138
:1036A000FC013091FD0160237123822393231F913C
:1036B0000F910C94AA1A0F931F930091FA01109185
:1036C000FB012091FC013091FD01602771278227C9
:1036D00093271F910F910C94AA1A08952FE0929F9F
:1036E000800D1124A82FA695A695A695877051E068
:1036F00001C0550F8A95EAF785E0A89FD0011124F3
:1037000020E030E070E0F901EA0FFB1FE853FE4FC4
:103710004081CB01022E02C0969587950A94E2F76C
:1037200081709927819584278523842780832F5F43
:103730003F4F2530310539F708952FE0929F800DD6
:103740001124682F669566956695982F977085E089
:10375000689FB001112440E050E080E0FA01E60FDC
:10376000F71FE853FE4F208130E0092E02C0369546
:1037700027950A94E2F721703327042E01C0220F07
:103780000A94EAF7822B4F5F5F4F4530510531F7BE
:103790000895BF92CF92DF92EF92FF920F931F9303
:1037A000CF93DF938C01C090FE01D090FF01E09099
:1037B0000002F09001028091FA019091FB01A0912A
:1037C000FC01B091FD01C82AD92AEA2AFB2ACFE1DF
:1037D000D0E0D701C6010C2E04C0B695A7959795E9
:1037E00087950A94D2F780FF07C0BC2EB8018C2FB2
:1037F0000E942D06019719F4219758F7B12C8B2DB3
:10380000DF91CF911F910F91FF90EF90DF90CF90BC
:10381000BF900895CF93DF93EC010E94C91BBE01B6
:103820000E942D06DF91CF9108951F93CF93DF93D0
:10383000EB0190918F01992321F0CB010E940A1C8A
:1038400013C0882349F0CB010E94C91B182F682F91
:10385000CE010E946E1B04C0CB010E949D1B182F3D
:10386000BE01812F0E942D06DF91CF911F910895F7
:103870008091020285958595859508958091020233
:103880008770089590910202977081E009F480E0BA
:10389000089580912602089590912602892B8093A5
:1038A000260208958095909126028923809326020E
:1038B000089510922602089590912502892B8093F5
:1038C00025020895809590912502892380932502F1
:1038D000089510922502089590912402892B8093D7
:1038E00024020895809590912402892380932402D4
:1038F0000895109224020895809103020895089576
:103900000C947F1C90910302981721F0809303027E
:103910000C94801C089580910302882329F0109252
:10392000030280E00C94801C0895E0910E01F09158
:103930000F01809126028083E0910E01F0910F012A
:10394000908180912502892B8083E0910E01F09176
:103950000F01908180912402892B80838091030242
:10396000882381F0E0910E01F0910F019081892B65
:10397000808380910E0190910F010E947F1D811123
:103980000E948B1C80910E0190910F010C94CA1023
:1039900008950C94C81C98E0899F90011124262B4F
:1039A000209302020E94D01A80910202859585958B
:1039B00085950C94C91C1092020280E00C94C91CDD
:1039C000209102028095822380930202982F9770A3
:1039D00079F430E0482F082E000C550B24173507DA
:1039E00039F08595859585950E94F11A0C94DB1C1C
:1039F000089580E090E00E944D2F21E08D3E9E4F83
:103A000009F020E0822F089582E090E00C943F2F8F
:103A1000682F82E090E00C94532F83E090E00C94A8
:103A20003F2F682F83E090E00C94532F84E090E0C8
:103A30000C943F2F682F84E090E00C94532FAB013F
:103A4000BC018FE090E00C94652FAB01BC0183E1D9
:103A500090E00C94652F60E070E0CB010C94251D84
:103A600060E070E0CB010E941F1D0C942B1D6DEED9
:103A70007EEF80E090E00E94712F60E082E090E0B5
:103A80000E94532F60E083E090E00E94532F109239
:103A9000FE011092FF01109200021092010260E0FC
:103AA00084E090E00E94532F60E085E090E00E9467
:103AB000532F60E086E090E00E94532F6FEF87E085
:103AC00090E00E94532F40E050E0BA0188E090E07F
:103AD0000E94652F60E08DE090E00E94532F40E04F
:103AE00050E0BA0188E190E00E94652F60E087E134
:103AF00090E00E94532F0C94301D0C94371DFC0154
:103B0000329680912001882331F08091750287FFE1
:103B100002C09EE101C096E080E0915028F0219122
:103B20002223D9F38F5FF9CF08959C01FC013296CF
:103B30009FEF80E04191461789F09F3F19F44111B2
:103B400001C0982F8F5F8630A9F79F3F39F0F901A8
:103B5000E90FF11D97FDFA95628308950895FC0120
:103B6000329608962081261301C010823196E817FC
:103B7000F907C1F70895262F2695269526952E310B
:103B800068F4FC01E20FF11D677021E030E001C034
:103B9000220F6A95EAF78281282B22830895262F27
:103BA0002695269526952E3170F4FC01E20FF11D25
:103BB000677021E030E001C0220F6A95EAF7209596
:103BC000828128232283089520912001222329F035
:103BD0002091750227FD0C94BB1D0C94951D20911E
:103BE0002001222329F02091750227FD0C94CF1D7E
:103BF0000C94AF1D20912001FC013296222331F05C
:103C00008091750287FF02C08EE101C086E0DF016E
:103C10001D928A95E9F7089508950C940C1E0E9450
:103C20000D1E80917B02843049F11092280220E41D
:103C300088E190E00FB6F894A895809360000FBEDD
:103C40002093600080E00E9498030E940D1E83B7BD
:103C5000817F846083BF83B7816083BF78948895B8
:103C600083B78E7F83BF0FB6F894A89580916000CC
:103C7000886180936000109260000FBE08950895DF
:103C80000895CF930E943F1E0E94DA080E94401EB2
:103C9000C0E08C2F0E948608892B29F4CF5FC530A5
:103CA000C1F780E001C081E0CF91089508950C94A0
:103CB000561E0E9494160E94BE100E9498030C94F7
:103CC000571E1F920F920FB60F9211248F939F933E
:103CD000AF93BF9380912802811113C0809171022C
:103CE00090917202A0917302B09174024196A11D4D
:103CF000B11D8093710290937202A0937302B093EE
:103D00007402BF91AF919F918F910F900FBE0F9052
:103D10001F90189582E084BD93E095BD9AEF97BD02
:103D200080936E0008952FB7F8948091710290915E
:103D30007202A0917302B09174022FBF0895CF92C6
:103D4000DF92EF92FF920F931F932FB7F894409159
:103D500071025091720260917302709174022FBFD0
:103D60006A017B01EE24FF248C0120E030E0C016C4
:103D7000D106E206F30610F4415051099A01281BBE
:103D8000390BC9011F910F91FF90EF90DF90CF90F9
:103D9000089578941F920F920FB60F9211248F936B
:103DA0009F93AF93BF938091710290917202A09103
:103DB0007302B09174020196A11DB11D809371022E
:103DC00090937202A0937302B0937402BF91AF916B
:103DD0009F918F910F900FBE0F901F90189581E0CB
:103DE0008093E00080E28093D8001092C9008FE1B8
:103DF0009EE40197F1F700C0000087E090EBDC0142
:103E00008093840290938502A0938602B0938702E8
:103E10009CE088E10FB6F894A895809360000FBEEF
:103E200090936000FFCFAF92BF92CF92DF92EF925C
:103E3000FF920F931F93CF93C0E0CC24C394D12C57
:103E4000E82EF12C8C2F0E9486085C0100E010E027
:103E50009601002E02C0220F331F0A94E2F72A2196
:103E60003B21232B31F40F5F1F4F0F30110581F7DA
:103E70000AC0602F7C2F80E00E941306E816F90626
:103E800091F781E004C0CF5FC530E1F680E0CF91CB
:103E90001F910F91FF90EF90DF90CF90BF90AF9068
:103EA0000895CF93C82F8CE20E94131F882321F01E
:103EB0008C2FCF910C94131F80E0CF910895CF9356
:103EC0000E94F91C811102C00E947D1DC5E6C150EF
:103ED00049F00E94DA088FE39CE90197F1F700C0EE
:103EE0000000F5CF89E20E94511F81110FC18AE2C3
:103EF0000E94511F81110E947D1D85E00E94511F6B
:103F000081110E94EF1E0E94041D8093270287E00A
:103F10000E94511F8823A9F18BE10E94511F882321
:103F200051F08091270281FB222720F991E092270E
:103F300090FB81F90EC08EE00E94511F882361F032
:103F40008091270282FB222720F991E0922790FBA3
:103F500082F98093270215C080E10E94511F909141
:103F60002702882341F093FB222720F981E0822752
:103F700080FB93F904C0892F809580FB90F9909382
:103F80002702809127020E94081D0E94161D90E0C2
:103F9000909376028093750280EE0E94511F8823D1
:103FA00041F080917502982F909590FB80F9809355
:103FB000750289E30E94511F882359F08091750290
:103FC00081FB222720F991E0922790FB81F98093D1
:103FD000750282EE0E94511F882359F0809175026C
:103FE00082FB222720F991E0922790FB82F98093AF
:103FF000750286EE0E94511F882359F08091750248
:1040000083FB222720F991E0922790FB83F980938C
:10401000750283EE0E94511F882359F0809175022A
:1040200084FB222720F991E0922790FB84F980936A
:10403000750285E30E94511F882359F08091750213
:1040400085FB222720F991E0922790FB85F9809348
:10405000750281E30E94511F882359F080917502F7
:1040600086FB222720F991E0922790FB86F9809326
:10407000750281E10E94511F882359F080917502D9
:1040800087FB222720F991E0922790FB87F9809304
:104090007502809175020E941A1D87E20E94511FCD
:1040A000C82F8EE10E94511F8111C2608FE10E94D2
:1040B000511F8111C46080E20E94511F8111C860AC
:1040C00081E20E94511F8111C06182E20E94511F52
:1040D0008111C06283E20E94511F8111C06484E299
:1040E0000E94511F882311F0C06802C0CC2329F020
:1040F0008C2F0E94111D6C2F03C00E940D1D682F74
:1041000070E080E090E0CF910C946F1ACF91089509
:1041100080912C0280FF0BC06091130185E0689FA5
:10412000B001112475956795759567952BC081FF32
:1041300009C06091130185E0689FB0011124759555
:10414000679520C082FF07C06091130185E0689FDA
:10415000B001112417C090912B029923D1F06091E6
:104160001201961788F72091130185E0289F90018E
:104170001124929FA001939F500D112470E0CA0159
:104180000E94182F6038710540F46115710539F0EF
:1041900002C065E070E0862F08958FE7089581E002
:1041A000089580912C0280FF08C06091110170E099
:1041B000759567957595679521C081FF06C06091DB
:1041C000110170E07595679519C082FF04C0609178
:1041D000110170E010C090912B029923C1F0609101
:1041E00010019617A0F780911101899FC001112439
:1041F00070E00E94182F6038710528F46115710570
:1042000021F0862F08958FE7089581E0089561E0F9
:1042100070E0F4CF803F21F40E948820819504C093
:10422000813F29F40E948820809330020895823FC4
:1042300021F40E948820819504C0833F29F40E94C4
:10424000882080932F020895893F19F40E94D1207D
:1042500005C08A3F31F40E94D120819580933102BC
:1042600008958B3F21F40E94D120819504C08C3F9A
:1042700029F40E94D120809332020895843F21F4D2
:1042800080912E02816017C0853F21F480912E021B
:10429000826011C0863F21F480912E0284600BC0A1
:1042A000873F21F480912E02886005C0883F31F459
:1042B00080912E02806180932E0208958D3F21F41B
:1042C00080912C0281600BC08E3F21F480912C02E2
:1042D000826005C08F3F29F480912C028460809316
:1042E0002C020895803F39F48091300287FF6CC022
:1042F0001092300269C0813F29F480913002181673
:10430000BCF362C090912F02823F29F497FF5CC0FA
:1043100010922F0259C0833F19F41916CCF354C0E0
:10432000893F41F48091310218160CF04DC0109273
:1043300031024AC08A3F29F48091310287FF44C08C
:10434000F6CF8B3F39F48091320287FF3DC0109247
:1043500032023AC08C3F29F4809132021816BCF325
:1043600033C0843F21F480912E028E7F17C0853F99
:1043700021F480912E028D7F11C0863F21F480911F
:104380002E028B7F0BC0873F21F480912E02877F06
:1043900005C0883F31F480912E028F7E80932E02DB
:1043A00013C08D3F21F480912C028E7F0BC08E3F75
:1043B00021F480912C028D7F05C08F3F29F48091DC
:1043C0002C028B7F80932C0280912F0281110EC0D2
:1043D0008091300281110AC080913102811106C0A2
:1043E00080913202811102C010922B0208958DE259
:1043F00092E00E94E4100E94931E90932A02809300
:10440000290208951F93CF93DF9380912902909101
:104410002A020E949F1EAC0190912B02992321F049
:104420002091140130E006C0209115018AE0289FF8
:10443000900111244217530708F46EC080912F0297
:10444000C0913002D091310210913202811107C027
:10445000C1115EC0D1115CC011115AC05DC09F3F37
:1044600019F09F5F90932B02181624F40E94882065
:1044700080932F0280912F0287FF05C00E94882021
:10448000819580932F021C1624F40E94882080932B
:1044900030028091300287FF05C00E9488208195FC
:1044A0008093300240912F02442379F03091300202
:1044B000332359F025EB4203A001112450932F021E
:1044C0003203C0011124909330021D1624F40E947F
:1044D000D120809331028091310287FF05C00E9474
:1044E000D120819580933102111624F40E94D120AD
:1044F000809332028091320287FF05C00E94D12052
:10450000819580933202DF91CF911F910C94F72116
:104510009F3F09F0A6CFAECFDF91CF911F910895B5
:10452000EDE2F2E086E0DF011D928A95E9F7109254
:104530002B0210922C020895833081F128F48130EF
:1045400059F08230D1F00895853009F449C0B8F1AE
:10455000863009F456C0089580911501262F30E069
:10456000280F311D2F3F310524F4680F609315018A
:1045700008958FEF80931501089580911401262FDF
:1045800030E0280F311D2F3F310524F4680F609370
:10459000140108958FEF8093140108958091130101
:1045A000262F30E0280F311D2F3F310524F4680FEE
:1045B0006093130108958FEF809313010895809104
:1045C0001201262F30E0280F311D2F3F310524F432
:1045D000680F6093120108958FEF80931201089580
:1045E00080911101262F30E0280F311D2F3F31051A
:1045F00024F4680F6093110108958FEF80931101E7
:10460000089580911001262F30E0280F311D2F3F93
:10461000310524F4680F6093100108958FEF8093A3
:1046200010010895833011F128F4813049F082306F
:1046300091F00895853081F120F18630C1F108951F
:1046400080911501681720F4861B80931501089549
:1046500010921501089580911401681720F4861BAB
:10466000809314010895109214010895809113010C
:10467000681720F4861B809313010895109213018C
:10468000089580911201681720F4861B809312010F
:10469000089510921201089580911101681720F475
:1046A000861B809311010895109211010895809145
:1046B0001001681720F4861B809310010895109252
:1046C000100108950F931F93482F50E0FA0135977A
:1046D000EF33F10508F07FC0E556FF4F0C942C2F07
:1046E0000E947D1D71C080912702817F8E7F809303
:1046F000270281E0809334026FC00E9494160FEF6E
:1047000013ED20E3015010402040E1F700C000000D
:104710000E94EF1E59C080912702982F90959170AA
:1047200090FB80F98093270291114EC0897F877F8B
:1047300010C08091270281FB222720F991E0922767
:1047400090FB81F9809327029923F1F18091270250
:1047500081608093270238C08091270282FB222744
:1047600020F991E0922790FB82F9ECCF809127020B
:1047700083FB222720F991E0922790FB83F9E2CF77
:104780000E9494168091750287FB222720F991E000
:10479000922790FB87F98093750216C0895301C058
:1047A0008D5141E050E060E070E08A019B0104C05F
:1047B000000F111F221F331F8A95D2F7C901B801BC
:1047C0000E946F1A0E94941681E006C061E070E0BA
:1047D00080E090E0F5CF80E01F910F91089580E098
:1047E000089580E008958E518A3030F4E82FF0E08B
:1047F000EB5CFE4F8081089580E00895CF93C82F31
:1048000080913402813051F018F0823099F17DC0EE
:104810000E94491C823209F07AC004C00E94491CDF
:10482000823261F48C2F0E94EF23811104C08C2FFF
:104830000E9462231DC081E090E01AC08C2F0E946C
:10484000F123811114C0C43179F048F4CB3079F0F0
:10485000C03109F060C082E08093340208C0C932E0
:1048600019F0C83321F057C01092340254C081E0CF
:10487000817053C0C93289F118F5C43171F1B0F4B7
:10488000C73009F046C08EE18093150182E3809322
:1048900014018AE08093130184E18093120188E07F
:1048A0008093110188E28093100133C082EE8C0F57
:1048B000863078F58C2F0E94F3238093330229C031
:1048C000CE34E9F020F4CB3421F56AE013C0C135D1
:1048D00079F0C235F1F461E00DC080913302882394
:1048E00019F01092330215C081E08093340215C094
:1048F00061E006C0809133020E949C220AC06AE0F7
:10490000809133020E94122304C01092340280E08E
:1049100004C081E002C080E0ABCFCF9108958091C8
:10492000550208950F931F93CF93DF9300D01F92EA
:10493000CDB7DEB78C010E940227823011F084309F
:1049400021F584E089831B830A8382E08093E90058
:104950008FEF9091E800815095FD06C095ED9A95F6
:10496000F1F700008111F5CF8091E80085FF0DC0BF
:1049700040E050E063E070E0CE0101960E941F2706
:104980008091E8008E778093E8000F900F900F9051
:10499000DF91CF911F910F910895CF93DF9300D0B6
:1049A0001F92CDB7DEB720917B02243031F523E092
:1049B0002983805891099B838A8382E08093E90050
:1049C0008FEF9091E800815095FD06C095ED9A9586
:1049D000F1F700008111F5CF8091E80085FF0DC04F
:1049E00040E050E063E070E0CE0101960E941F2796
:1049F0008091E8008E778093E8000F900F900F90E1
:104A0000DF91CF910895CF93DF93EC010E940227AD
:104A1000823011F08430F9F482E08093E9009FEF56
:104A20008091E800915085FD06C085ED8A95F1F7EB
:104A300000009111F5CF8091E80085FF0CC040E0A7
:104A400050E066E070E0CE010E941F278091E800F0
:104A50008E778093E800DF91CF910895CF93DF9315
:104A6000EC010E940227823011F08430D9F5809148
:104A70002001882339F08091750287FF03C060E22E
:104A800082E002C068E081E08093E9008FEF9091BE
:104A9000E800815095FD06C095ED9A95F1F700006C
:104AA0008111F5CF8091E80085FF1CC08091200125
:104AB000811105C040E050E068E070E003C070E0A4
:104AC00040E050E0CE010E941F278091E8008E77E1
:104AD0008093E80080E2FE01A5E3B2E001900D9230
:104AE0008A95E1F7DF91CF91089580917A02811143
:104AF00009C00E94B4280E9411298091E2008460BC
:104B00008093E200089510927A020895089508951E
:104B10000C94591E42E061EC81E00E942E2842E292
:104B200061EC82E00C942E2880917D02833009F4A0
:104B300060C030F4813071F0823009F499C008957A
:104B40008A3009F485C08B3009F46BC0893009F0D4
:104B5000A7C020C080917C02813A09F0A1C0809159
:104B6000E800877F8093E800809180029091810225
:104B7000892B21F460E285E392E003C060E080E0ED
:104B800090E070E00E946A278091E8008B77809324
:104B9000E800089580917C02813209F081C0809103
:104BA000800290918102029708F07AC08091E8001B
:104BB000877F8093E8008091E80082FD05C08091A6
:104BC0007B028111F8CF6CC02091F3008091F2003C
:104BD00090E0922B029729F48091F1008B7F813035
:104BE00021F48091F100809355028091E8008B7749
:104BF00053C080917C02813A09F052C080918002BA
:104C000090918102892B09F04BC08091E800877F49
:104C10008093E8008091E80080FFFCCF8091200124
:104C200036C080917C028132D9F5809180029091CA
:104C30008102892BA9F58091E800877F8093E800A5
:104C40000E94632880917E02809320010C94941628
:104C500080917C02813221F58091E800877F8093EA
:104C6000E8000E94632880917F0280935602089595
:104C700080917C02813AA1F48091E800877F809343
:104C8000E8008091E80080FFFCCF8091560280937D
:104C9000F1008091E8008E778093E8000C946328FF
:104CA000089584B7877F84BF0FB6F894A895809144
:104CB0006000886180936000109260000FBE80E801
:104CC00080936100109261000E942C110E94B42810
:104CD0000E9411298091E20084608093E200789420
:104CE0000E94A02B0E94341186E191E00E94B9102D
:104CF00080917B02853069F40E940F1E80917902B9
:104D00008823B1F30E94411E882391F30E94092752
:104D1000EFCF0E943E110E944410EACF0C949026DF
:104D2000292F332723303105C9F064F421303105B0
:104D300081F02230310509F04CC08BE390E02AE786
:104D400034E04BC02132310521F12232310589F1A5
:104D500040C082E190E025EB34E03FC099278130EC
:104D6000910571F02CF4892BA1F5E6E7F4E00DC074
:104D70008230910541F0039761F5E6E5F4E005C066
:104D8000E8E6F4E002C0ECE5F4E0849190E09F01F5
:104D900024C06115710541F061307105D1F489E0DD
:104DA00090E025EA34E019C089E090E02CE834E096
:104DB00014C06115710541F06130710551F480EC4A
:104DC00090E027EC34E009C080E490E027E835E08B
:104DD00004C080E090E020E030E0FA0131832083DD
:104DE00008950895CF93C82F0E94F126C0935702CB
:104DF000CF91089580917B02843011F081E0089575
:104E000082E0089580915702811102C00C94FA2625
:104E1000089580E189BD82E189BD09B400FEFDCF1E
:104E20008091D8008F7D8093D8008091E0008260CF
:104E30008093E0008091E00081FDFCCF0895CF9247
:104E4000DF92EF92FF920F931F93CF93DF93EC01CA
:104E50008B016A010E948228811133C0C114D104E0
:104E600039F0F60180819181081B190BC80FD91FF9
:104E7000E12CF12C0115110519F18091E80085FD57
:104E800016C08091E8008E778093E800C114D104A9
:104E900049F0F60180819181E80EF91EF182E082ED
:104EA00085E00FC00E948228882321F30AC08991DF
:104EB0008093F10001501109FFEFEF1AFF0ADACFDA
:104EC00080E0DF91CF911F910F91FF90EF90DF90E5
:104ED000CF900895209182023091830226173707E0
:104EE00048F06115710539F42091E8002E77209380
:104EF000E80001C0B90140E061157105A9F12091F8
:104F00007B02222309F443C0253009F442C02091DA
:104F1000E80023FD40C02091E80022FD32C020912E
:104F2000E80020FFE9CF4091F3002091F20030E04B
:104F3000342BFC01CF016115710559F02830310582
:104F400040F481918093F100615071092F5F3F4FD0
:104F5000F1CF41E02830310509F040E02091E80030
:104F60002E772093E800C8CF4111C9CF0AC08091A5
:104F70007B02882361F0853061F08091E80083FD39
:104F80000AC08091E80082FFF2CF80E0089582E0BD
:104F9000089583E0089581E0089520918202309180
:104FA00083022617370748F06115710539F42091FF
:104FB000E8002E772093E80001C0B901FC0120E051
:104FC0006115710591F180917B02882309F440C03D
:104FD000853009F43FC08091E80083FD3DC0809199
:104FE000E80082FD2FC08091E80080FFE9CF20918A
:104FF000F3008091F20090E0922B6115710559F059
:105000008830910540F424912093F100319661504D
:1050100071090196F2CF21E0089709F020E0809114
:10502000E8008E778093E800CBCF2111CCCF0AC067
:1050300080917B02882361F0853061F08091E800E7
:1050400083FD0AC08091E80082FFF2CF80E00895DE
:1050500082E0089583E0089581E00895982F9730C5
:1050600058F59093E900981739F07091EC00209171
:10507000ED005091F00003C0242F762F50E021FF67
:1050800019C03091EB003E7F3093EB003091ED0082
:105090003D7F3093ED003091EB0031603093EB00B9
:1050A0007093EC002093ED005093F0002091EE00FF
:1050B00027FF07C09F5FD3CF8F708093E90081E007
:1050C000089580E0089580917C0287FF11C080914F
:1050D000E80082FD05C080917B028111F8CF11C0EC
:1050E0008091E8008B770BC080917B02882349F088
:1050F0008091E80080FFF8CF8091E8008E77809360
:10510000E80008952091E4003091E50095E6409193
:10511000EC00842F817040FF22C08091E80080FD68
:105120001CC080917B02882391F0853091F08091A2
:10513000EB0085FD10C04091E4005091E50042175E
:10514000530729F39A01915011F784E0089582E002
:10515000089583E0089581E0089580E008954091E6
:10516000E80042FFDECF08950E9422290E942A29EA
:10517000E0EEF0E0808181608083E8EDF0E0808106
:105180008F77808319BCA7EDB0E08C918E7F8C93D4
:1051900080818F7E808310927A0208950F931F93EF
:1051A000CF93DF930E9422290E942A29C8EDD0E0E4
:1051B00088818F77888388818068888388818F7DC4
:1051C000888319BC10927B021092770210927902A8
:1051D0001092780200EE10E0F80180818B7F8083CE
:1051E00088818160888342E060E080E00E942E2810
:1051F000E1EEF0E080818E7F8083E2EEF0E080815E
:1052000081608083808188608083F80180818E7FC7
:105210008083888180618883DF91CF911F910F9176
:105220000895E8EDF0E080818F7E8083E7EDF0E087
:1052300080818160808384E082BF81E080937A02F4
:105240000C94CE28E8EDF0E080818E7F8083109270
:10525000E20008951092DA001092E10008951F9282
:105260000F920FB60F9211242F933F934F935F939A
:105270006F937F938F939F93AF93BF93EF93FF931E
:105280008091E10082FF0BC08091E20082FF07C0A5
:105290008091E1008B7F8093E1000E949F2B8091A1
:1052A000DA0080FF1FC08091D80080FF1BC0809172
:1052B000DA008E7F8093DA008091D90080FF0DC0E4
:1052C00080E189BD82E189BD09B400FEFDCF81E0A6
:1052D00080937B020E94752505C019BC10927B0249
:1052E0000E9483258091E10080FF19C08091E20037
:1052F00080FF15C08091E2008E7F8093E200809154
:10530000E20080618093E2008091D8008062809307
:10531000D80019BC85E080937B020E94872580918C
:10532000E10084FF30C08091E20084FF2CC080E166
:1053300089BD82E189BD09B400FEFDCF8091D8000E
:105340008F7D8093D8008091E1008F7E8093E10073
:105350008091E2008F7E8093E2008091E200816084
:105360008093E20080917702882311F084E007C0E7
:105370008091E30087FD02C081E001C083E080935B
:105380007B020E9488258091E10083FF29C08091E3
:10539000E20083FF25C08091E100877F8093E100D8
:1053A00082E080937B02109277028091E1008E7FF1
:1053B0008093E1008091E2008E7F8093E2008091F3
:1053C000E20080618093E20042E060E080E00E94C1
:1053D0002E288091F00088608093F0000E9486253E
:1053E000FF91EF91BF91AF919F918F917F916F91BD
:1053F0005F914F913F912F910F900FBE0F901F9093
:1054000018951F920F920FB60F9211242F933F936E
:105410004F935F936F937F938F939F93AF93BF93BC
:10542000CF93DF93EF93FF93C091E900CF7080910A
:10543000EC00D82FD17080FDD0E81092E900809167
:10544000F000877F8093F00078940E94452A1092A4
:10545000E9008091F00088608093F000CD2BCF7040
:10546000C093E900FF91EF91DF91CF91BF91AF9190
:105470009F918F917F916F915F914F913F912F916C
:105480000F900FBE0F901F9018951F93CF93DF932F
:10549000CDB7DEB7AA970FB6F894DEBF0FBECDBF6B
:1054A000ECE7F2E088E08E0F9091F10091938E137B
:1054B000FBCF0E9494258091E80083FF28C1809152
:1054C0007C0290917D02492F50E04A30510508F04E
:1054D0001EC1FA01E652FF4F0C942C2F803821F0A8
:1054E000823809F014C108C0809178029091790245
:1054F000992389F082600FC0809180028F7087307D
:1055000008F005C18093E9008091EB0085FB8827B6
:1055100080F91092E9009091E800977F9093E8005D
:105520008093F1001092F100D0C0282F2D7F09F058
:10553000EEC0882319F0823061F0E9C080917E02CC
:10554000813009F0E4C0933009F080E08093790263
:105550002EC080917E0281112AC0809180028F70BE
:105560002FEF280F263008F0D2C08093E900209159
:10557000EB0020FF1CC0933021F48091EB0080628F
:1055800014C09091EB0090619093EB0021E030E02B
:10559000A90102C0440F551F8A95E2F74093EA0023
:1055A0001092EA008091EB0088608093EB001092EB
:1055B000E9008091E800877F8093E8000E946328DB
:1055C000A6C08111A4C010917E021F778091E300D4
:1055D0008078812B8093E3008091E800877F80931F
:1055E000E8000E9463288091E80080FFFCCF809152
:1055F000E30080688093E300111102C082E001C0E3
:1056000083E080937B0283C08058823008F07FC0A3
:1056100080917E0290917F028C3D53E0950779F551
:1056200083E08A838AE289834FB7F894DE01139678
:1056300020E03EE051E2E32FF0E050935700E49188
:1056400020FF03C0E295EF703F5FEF708E2F90E078
:10565000EA3010F0C79601C0C0968D939D932F5FDE
:10566000243149F74FBF8091E800877F8093E8009D
:105670006AE270E0CE0101960E946A2715C060912F
:10568000800270918102AE014F5F5F4F0E948E26B3
:10569000BC01892BE1F19091E800977F9093E8009D
:1056A00089819A810E94CD278091E8008B77809331
:1056B000E8002DC0803859F58091E800877F8093FD
:1056C000E800809177028093F1008091E8008E7766
:1056D00073CF81111CC090917E029230C0F48091F2
:1056E000E800877F8093E800909377020E94632808
:1056F00080917702811106C08091E30087FD02C08E
:1057000081E001C084E080937B020E948A25809121
:10571000E80083FF0AC08091E800877F8093E8005B
:105720008091EB0080628093EB00AA960FB6F8940C
:10573000DEBF0FBECDBFDF91CF911F9108950895B9
:10574000CF9380917B028823A1F0C091E900CF70B4
:105750009091EC00892F817090FD80E8C82B109209
:10576000E9008091E80083FD0E94452ACF70C09334
:10577000E900CF9108955058BB27AA270E94D32B48
:105780000C947E2D0E94702D38F00E94772D20F011
:1057900039F49F3F19F426F40C94462D0EF4E0954D
:1057A000E7FB0C94402DE92F0E948F2D58F3BA1778
:1057B000620773078407950720F079F4A6F50C9427
:1057C000B12D0EF4E0950B2EBA2FA02D0B01B901CF
:1057D00090010C01CA01A0011124FF27591B99F067
:1057E000593F50F4503E68F11A16F040A22F232F73
:1057F000342F4427585FF3CF469537952795A795C3
:10580000F0405395C9F77EF41F16BA0B620B730B69
:10581000840BBAF09150A1F0FF0FBB1F661F771FDA
:10582000881FC2F70EC0BA0F621F731F841F48F48F
:10583000879577956795B795F7959E3F08F0B0CF18
:105840009395880F08F09927EE0F979587950895FF
:105850000E943C2C0C947E2D0E94772D58F00E94C3
:10586000702D40F029F45F3F29F00C94402D511128
:105870000C94B22D0C94462D0E948F2D68F3992321
:10588000B1F3552391F3951B550BBB27AA2762173C
:105890007307840738F09F5F5F4F220F331F441F49
:1058A000AA1FA9F335D00E2E3AF0E0E832D091507D
:1058B0005040E695001CCAF72BD0FE2F29D0660F6A
:1058C000771F881FBB1F261737074807AB07B0E8AD
:1058D00009F0BB0B802DBF01FF2793585F4F3AF0B3
:1058E0009E3F510578F00C94402D0C94B22D5F3FF3
:1058F000E4F3983ED4F3869577956795B795F79539
:105900009F5FC9F7880F911D9695879597F9089520
:10591000E1E0660F771F881FBB1F621773078407BC
:10592000BA0720F0621B730B840BBA0BEE1F88F7CB
:10593000E095089529F416F00C94402D0C94B12DA7
:105940000C94462D0E94972DA8F39638A0F707F8DF
:105950000F92E8942BE33AEA48EB5FE70E94442E6B
:105960000F920F920F924DB75EB70F920E94FA2DD1
:10597000E8ECF1E00E94492D4F915F91EF91FF918A
:10598000E595EE1FFF1F49F0FE57E0684427EE0F34
:10599000441FFA95E1F74195550B0E94C42D0F90D5
:1059A00007FE0C94B82D08950E94972D88F09F57FC
:1059B00098F0B92F9927B751B0F0E1F0660F771F33
:1059C000881F991F1AF0BA95C9F714C0B13091F029
:1059D0000E94B12DB1E008950C94B12D672F782F5E
:1059E0008827B85F39F0B93FCCF3869577956795EE
:1059F000B395D9F73EF490958095709561957F4F5A
:105A00008F4F9F4F0895E89409C097FB3EF49095FF
:105A10008095709561957F4F8F4F9F4F9923A9F087
:105A2000F92F96E9BB279395F69587957795679516
:105A3000B795F111F8CFFAF4BB0F11F460FF1BC05A
:105A40006F5F7F4F8F4F9F4F16C0882311F096E9ED
:105A500011C0772321F09EE8872F762F05C066239B
:105A600071F096E8862F70E060E02AF09A95660F54
:105A7000771F881FDAF7880F9695879597F908950D
:105A800097F99F6780E870E060E008959FEF80ECF1
:105A90000895DF93CF931F930F93FF92EF92DF92BE
:105AA0007B018C01689406C0DA2EEF010E94412E22
:105AB000FE01E894A5912591359145915591A6F364
:105AC000EF010E94D32BFE019701A801DA9469F738
:105AD000DF90EF90FF900F911F91CF91DF9108958C
